{
  "contractName": "cyclicalManyToManyElectionProcedure",
  "abi": [
    {
      "inputs": [
        {
          "internalType": "address payable",
          "name": "_referenceOrganContract",
          "type": "address"
        },
        {
          "internalType": "address payable",
          "name": "_affectedOrganContract",
          "type": "address"
        },
        {
          "internalType": "uint256",
          "name": "_ballotFrequency",
          "type": "uint256"
        },
        {
          "internalType": "uint256",
          "name": "_ballotDuration",
          "type": "uint256"
        },
        {
          "internalType": "uint256",
          "name": "_quorumSize",
          "type": "uint256"
        },
        {
          "internalType": "uint256",
          "name": "_reelectionMaximum",
          "type": "uint256"
        },
        {
          "internalType": "uint256",
          "name": "_voterToCandidateRatio",
          "type": "uint256"
        },
        {
          "internalType": "bytes32",
          "name": "_name",
          "type": "bytes32"
        }
      ],
      "payable": false,
      "stateMutability": "nonpayable",
      "type": "constructor"
    },
    {
      "constant": true,
      "inputs": [],
      "name": "currentBallot",
      "outputs": [
        {
          "internalType": "uint256",
          "name": "ballotNumber",
          "type": "uint256"
        },
        {
          "internalType": "bytes32",
          "name": "name",
          "type": "bytes32"
        },
        {
          "internalType": "uint256",
          "name": "startDate",
          "type": "uint256"
        },
        {
          "internalType": "uint256",
          "name": "candidacyEndDate",
          "type": "uint256"
        },
        {
          "internalType": "uint256",
          "name": "electionEndDate",
          "type": "uint256"
        },
        {
          "internalType": "bool",
          "name": "wasEnded",
          "type": "bool"
        },
        {
          "internalType": "uint256",
          "name": "totalVoteCount",
          "type": "uint256"
        },
        {
          "internalType": "uint256",
          "name": "totalVoters",
          "type": "uint256"
        },
        {
          "internalType": "uint256",
          "name": "electedOfficialSlotNumber",
          "type": "uint256"
        }
      ],
      "payable": false,
      "stateMutability": "view",
      "type": "function"
    },
    {
      "constant": true,
      "inputs": [
        {
          "internalType": "uint256",
          "name": "",
          "type": "uint256"
        }
      ],
      "name": "currentModerators",
      "outputs": [
        {
          "internalType": "address",
          "name": "",
          "type": "address"
        }
      ],
      "payable": false,
      "stateMutability": "view",
      "type": "function"
    },
    {
      "constant": true,
      "inputs": [],
      "name": "electionParameters",
      "outputs": [
        {
          "internalType": "uint256",
          "name": "ballotFrequency",
          "type": "uint256"
        },
        {
          "internalType": "uint256",
          "name": "nextElectionDate",
          "type": "uint256"
        },
        {
          "internalType": "uint256",
          "name": "ballotDuration",
          "type": "uint256"
        },
        {
          "internalType": "uint256",
          "name": "candidacyDuration",
          "type": "uint256"
        },
        {
          "internalType": "uint256",
          "name": "reelectionMaximum",
          "type": "uint256"
        },
        {
          "internalType": "uint256",
          "name": "quorumSize",
          "type": "uint256"
        },
        {
          "internalType": "uint256",
          "name": "voterToCandidateRatio",
          "type": "uint256"
        }
      ],
      "payable": false,
      "stateMutability": "view",
      "type": "function"
    },
    {
      "constant": true,
      "inputs": [],
      "name": "isAProcedure",
      "outputs": [
        {
          "internalType": "bool",
          "name": "",
          "type": "bool"
        }
      ],
      "payable": false,
      "stateMutability": "view",
      "type": "function"
    },
    {
      "constant": true,
      "inputs": [],
      "name": "isAnOrgan",
      "outputs": [
        {
          "internalType": "bool",
          "name": "",
          "type": "bool"
        }
      ],
      "payable": false,
      "stateMutability": "view",
      "type": "function"
    },
    {
      "constant": true,
      "inputs": [],
      "name": "kelsenVersionNumber",
      "outputs": [
        {
          "internalType": "int256",
          "name": "",
          "type": "int256"
        }
      ],
      "payable": false,
      "stateMutability": "view",
      "type": "function"
    },
    {
      "constant": true,
      "inputs": [],
      "name": "linkedOrgans",
      "outputs": [
        {
          "internalType": "address payable",
          "name": "firstOrganAddress",
          "type": "address"
        },
        {
          "internalType": "address payable",
          "name": "secondOrganAddress",
          "type": "address"
        }
      ],
      "payable": false,
      "stateMutability": "view",
      "type": "function"
    },
    {
      "constant": true,
      "inputs": [],
      "name": "nextBallotToEnforce",
      "outputs": [
        {
          "internalType": "uint256",
          "name": "",
          "type": "uint256"
        }
      ],
      "payable": false,
      "stateMutability": "view",
      "type": "function"
    },
    {
      "constant": true,
      "inputs": [
        {
          "internalType": "uint256",
          "name": "",
          "type": "uint256"
        }
      ],
      "name": "nextModerators",
      "outputs": [
        {
          "internalType": "address",
          "name": "",
          "type": "address"
        }
      ],
      "payable": false,
      "stateMutability": "view",
      "type": "function"
    },
    {
      "constant": true,
      "inputs": [],
      "name": "procedureInfo",
      "outputs": [
        {
          "internalType": "uint256",
          "name": "procedureTypeNumber",
          "type": "uint256"
        },
        {
          "internalType": "bytes32",
          "name": "procedureName",
          "type": "bytes32"
        },
        {
          "internalType": "uint256",
          "name": "linkedOrgans",
          "type": "uint256"
        }
      ],
      "payable": false,
      "stateMutability": "view",
      "type": "function"
    },
    {
      "constant": false,
      "inputs": [
        {
          "internalType": "bytes32",
          "name": "_ballotName",
          "type": "bytes32"
        }
      ],
      "name": "createBallot",
      "outputs": [],
      "payable": false,
      "stateMutability": "nonpayable",
      "type": "function"
    },
    {
      "constant": false,
      "inputs": [
        {
          "internalType": "bytes32",
          "name": "_ipfsHash",
          "type": "bytes32"
        },
        {
          "internalType": "uint8",
          "name": "_hash_function",
          "type": "uint8"
        },
        {
          "internalType": "uint8",
          "name": "_size",
          "type": "uint8"
        }
      ],
      "name": "presentCandidacy",
      "outputs": [],
      "payable": false,
      "stateMutability": "nonpayable",
      "type": "function"
    },
    {
      "constant": false,
      "inputs": [
        {
          "internalType": "address[]",
          "name": "_candidateAddresses",
          "type": "address[]"
        }
      ],
      "name": "vote",
      "outputs": [],
      "payable": false,
      "stateMutability": "nonpayable",
      "type": "function"
    },
    {
      "constant": false,
      "inputs": [],
      "name": "endBallot",
      "outputs": [],
      "payable": false,
      "stateMutability": "nonpayable",
      "type": "function"
    },
    {
      "constant": false,
      "inputs": [],
      "name": "enforceBallot",
      "outputs": [],
      "payable": false,
      "stateMutability": "nonpayable",
      "type": "function"
    },
    {
      "constant": true,
      "inputs": [],
      "name": "getCandidateList",
      "outputs": [
        {
          "internalType": "address[]",
          "name": "_candidateList",
          "type": "address[]"
        }
      ],
      "payable": false,
      "stateMutability": "view",
      "type": "function"
    },
    {
      "constant": true,
      "inputs": [],
      "name": "nextElectionICanVoteIn",
      "outputs": [
        {
          "internalType": "uint256",
          "name": "lastElectionIParticipatedIn",
          "type": "uint256"
        }
      ],
      "payable": false,
      "stateMutability": "view",
      "type": "function"
    },
    {
      "constant": true,
      "inputs": [
        {
          "internalType": "address",
          "name": "_candidateAddress",
          "type": "address"
        }
      ],
      "name": "getCandidacyInfo",
      "outputs": [
        {
          "internalType": "bytes32",
          "name": "_ipfsHash",
          "type": "bytes32"
        },
        {
          "internalType": "uint8",
          "name": "_hash_function",
          "type": "uint8"
        },
        {
          "internalType": "uint8",
          "name": "_size",
          "type": "uint8"
        }
      ],
      "payable": false,
      "stateMutability": "view",
      "type": "function"
    }
  ],
  "bytecode": "0x608060405260026000556000600560006101000a81548160ff0219169083151502179055506001600560016101000a81548160ff02191690831515021790555034801561004b57600080fd5b506040516112f83803806112f8833981810160405261010081101561006f57600080fd5b810190808051906020019092919080519060200190929190805190602001909291908051906020019092919080519060200190929190805190602001909291908051906020019092919080519060200190929190505050600273__procedureLibrary______________________6356e77656909160028460026040518563ffffffff1660e01b81526004018085815260200184815260200183815260200182815260200194505050505060006040518083038186803b15801561013257600080fd5b505af4158015610146573d6000803e3d6000fd5b50505050600673__procedureLibrary______________________636f53715a90918a8a6040518463ffffffff1660e01b8152600401808481526020018373ffffffffffffffffffffffffffffffffffffffff1673ffffffffffffffffffffffffffffffffffffffff1681526020018273ffffffffffffffffffffffffffffffffffffffff1673ffffffffffffffffffffffffffffffffffffffff168152602001935050505060006040518083038186803b15801561020457600080fd5b505af4158015610218573d6000803e3d6000fd5b50505050600873__cyclicalVotingLibrary_________________63578ede039091888888888b600202896040518863ffffffff1660e01b81526004018088815260200187815260200186815260200185815260200184815260200183815260200182815260200197505050505050505060006040518083038186803b1580156102a157600080fd5b505af41580156102b5573d6000803e3d6000fd5b505050505050505050505050611028806102d06000396000f3fe608060405234801561001057600080fd5b50600436106101165760003560e01c80639e3dd259116100a2578063d36d2dd711610071578063d36d2dd714610418578063e80b30a514610460578063ed08132914610482578063f80723a81461053a578063fdbc40061461059457610116565b80639e3dd2591461029d5780639eaa613f1461031a578063a482810c14610388578063a8bef97a146103f657610116565b80635dbe4d28116100e95780635dbe4d28146101e957806361104cf1146102075780636d943451146102255780638db704cb146102535780639397942e1461027157610116565b80632e95da2f1461011b5780633a47cb601461018d578063529cbae514610197578063584e2fa1146101a1575b600080fd5b61015d6004803603602081101561013157600080fd5b81019080803573ffffffffffffffffffffffffffffffffffffffff1690602001909291905050506105f3565b604051808481526020018360ff1660ff1681526020018260ff1660ff168152602001935050505060405180910390f35b6101956106f1565b005b61019f6107c8565b005b6101a961094e565b6040518088815260200187815260200186815260200185815260200184815260200183815260200182815260200197505050505050505060405180910390f35b6101f161097e565b6040518082815260200191505060405180910390f35b61020f610984565b6040518082815260200191505060405180910390f35b6102516004803603602081101561023b57600080fd5b810190808035906020019092919050505061098a565b005b61025b610af9565b6040518082815260200191505060405180910390f35b610279610b42565b60405180848152602001838152602001828152602001935050505060405180910390f35b6102a5610b5a565b604051808373ffffffffffffffffffffffffffffffffffffffff1673ffffffffffffffffffffffffffffffffffffffff1681526020018273ffffffffffffffffffffffffffffffffffffffff1673ffffffffffffffffffffffffffffffffffffffff1681526020019250505060405180910390f35b6103466004803603602081101561033057600080fd5b8101908080359060200190929190505050610bac565b604051808273ffffffffffffffffffffffffffffffffffffffff1673ffffffffffffffffffffffffffffffffffffffff16815260200191505060405180910390f35b6103b46004803603602081101561039e57600080fd5b8101908080359060200190929190505050610be8565b604051808273ffffffffffffffffffffffffffffffffffffffff1673ffffffffffffffffffffffffffffffffffffffff16815260200191505060405180910390f35b6103fe610c24565b604051808215151515815260200191505060405180910390f35b61045e6004803603606081101561042e57600080fd5b8101908080359060200190929190803560ff169060200190929190803560ff169060200190929190505050610c37565b005b610468610d01565b604051808215151515815260200191505060405180910390f35b6105386004803603602081101561049857600080fd5b81019080803590602001906401000000008111156104b557600080fd5b8201836020820111156104c757600080fd5b803590602001918460208302840111640100000000831117156104e957600080fd5b919080806020026020016040519081016040528093929190818152602001838360200280828437600081840152601f19601f820116905080830192505050505050509192919290505050610d14565b005b610542610e01565b604051808a815260200189815260200188815260200187815260200186815260200185151515158152602001848152602001838152602001828152602001995050505050505050505060405180910390f35b61059c610e4a565b6040518080602001828103825283818151815260200191508051906020019060200280838360005b838110156105df5780820151818401526020810190506105c4565b505050509050019250505060405180910390f35b6000806000600860090160008573ffffffffffffffffffffffffffffffffffffffff1673ffffffffffffffffffffffffffffffffffffffff16815260200190815260200160002060010154600860090160008673ffffffffffffffffffffffffffffffffffffffff1673ffffffffffffffffffffffffffffffffffffffff16815260200190815260200160002060020160009054906101000a900460ff16600860090160008773ffffffffffffffffffffffffffffffffffffffff1673ffffffffffffffffffffffffffffffffffffffff16815260200190815260200160002060020160019054906101000a900460ff169250925092509193909250565b600873__cyclicalVotingLibrary_________________63e9eedbd5909160156013600660000160009054906101000a900473ffffffffffffffffffffffffffffffffffffffff166040518563ffffffff1660e01b8152600401808581526020018481526020018381526020018273ffffffffffffffffffffffffffffffffffffffff1673ffffffffffffffffffffffffffffffffffffffff16815260200194505050505060006040518083038186803b1580156107ae57600080fd5b505af41580156107c2573d6000803e3d6000fd5b50505050565b60145460156000015410156107dc57600080fd5b600873__cyclicalVotingLibrary_________________634f63e7e79091601560136012600660010160009054906101000a900473ffffffffffffffffffffffffffffffffffffffff166040518663ffffffff1660e01b8152600401808681526020018581526020018481526020018381526020018273ffffffffffffffffffffffffffffffffffffffff1673ffffffffffffffffffffffffffffffffffffffff1681526020019550505050505060006040518083038186803b1580156108a257600080fd5b505af41580156108b6573d6000803e3d6000fd5b50505050600160156000015401601481905550601560008082016000905560018201600090556002820160009055600382016000905560048201600090556005820160006101000a81549060ff02191690556006820160009055600782016000905560088201600090556009820160006109309190610fad565b50506014546015600001819055506013600061094c9190610fad565b565b60088060000154908060010154908060020154908060030154908060040154908060050154908060060154905087565b60005481565b60145481565b600873__cyclicalVotingLibrary_________________63bd292a4790916015846040518463ffffffff1660e01b815260040180848152602001838152602001828152602001935050505060006040518083038186803b1580156109ed57600080fd5b505af4158015610a01573d6000803e3d6000fd5b505050506000600660000160009054906101000a900473ffffffffffffffffffffffffffffffffffffffff16905060008173ffffffffffffffffffffffffffffffffffffffff1663bbea06196040518163ffffffff1660e01b8152600401604080518083038186803b158015610a7657600080fd5b505afa158015610a8a573d6000803e3d6000fd5b505050506040513d6040811015610aa057600080fd5b8101908080519060200190929190805190602001909291905050509150506008600601548181610acc57fe5b0460156008018190555060006015600801541415610af05760016015600801819055505b60009150505050565b60006008800160003373ffffffffffffffffffffffffffffffffffffffff1673ffffffffffffffffffffffffffffffffffffffff16815260200190815260200160002054905090565b60028060000154908060010154908060020154905083565b60068060000160009054906101000a900473ffffffffffffffffffffffffffffffffffffffff16908060010160009054906101000a900473ffffffffffffffffffffffffffffffffffffffff16905082565b60128181548110610bb957fe5b906000526020600020016000915054906101000a900473ffffffffffffffffffffffffffffffffffffffff1681565b60138181548110610bf557fe5b906000526020600020016000915054906101000a900473ffffffffffffffffffffffffffffffffffffffff1681565b600560009054906101000a900460ff1681565b610c65600660000160009054906101000a900473ffffffffffffffffffffffffffffffffffffffff16610edb565b600873__cyclicalVotingLibrary_________________638f4b1f74909160158686866040518663ffffffff1660e01b8152600401808681526020018581526020018481526020018360ff1660ff1681526020018260ff1660ff1681526020019550505050505060006040518083038186803b158015610ce457600080fd5b505af4158015610cf8573d6000803e3d6000fd5b50505050505050565b600560019054906101000a900460ff1681565b610d42600660000160009054906101000a900473ffffffffffffffffffffffffffffffffffffffff16610edb565b600873__cyclicalVotingLibrary_________________63eedbe58190916015846040518463ffffffff1660e01b81526004018084815260200183815260200180602001828103825283818151815260200191508051906020019060200280838360005b83811015610dc1578082015181840152602081019050610da6565b5050505090500194505050505060006040518083038186803b158015610de657600080fd5b505af4158015610dfa573d6000803e3d6000fd5b5050505050565b60158060000154908060010154908060020154908060030154908060040154908060050160009054906101000a900460ff16908060060154908060070154908060080154905089565b60606015600901805480602002602001604051908101604052809291908181526020018280548015610ed157602002820191906000526020600020905b8160009054906101000a900473ffffffffffffffffffffffffffffffffffffffff1673ffffffffffffffffffffffffffffffffffffffff1681526020019060010190808311610e87575b5050505050905090565b600081905060008173ffffffffffffffffffffffffffffffffffffffff16635549ea51336040518263ffffffff1660e01b8152600401808273ffffffffffffffffffffffffffffffffffffffff1673ffffffffffffffffffffffffffffffffffffffff16815260200191505060206040518083038186803b158015610f5f57600080fd5b505afa158015610f73573d6000803e3d6000fd5b505050506040513d6020811015610f8957600080fd5b81019080805190602001909291905050501415610fa557600080fd5b600091505050565b5080546000825590600052602060002090810190610fcb9190610fce565b50565b610ff091905b80821115610fec576000816000905550600101610fd4565b5090565b9056fea265627a7a723158201da7b16aa23bfd4d4fb17c21c59c92f19e87b699a7aba1424eb30f1f61e334ad64736f6c634300050c0032",
  "source": "pragma solidity >=0.4.22 <0.6.0;\r\n\r\n// Standard contract for a presidential election procedure\r\n\r\nimport \"../standardProcedure.sol\";\r\nimport \"../Organ.sol\";\r\nimport \"../libraries/cyclicalVotingLibrary.sol\";\r\n\r\n\r\ncontract cyclicalManyToManyElectionProcedure is Procedure{\r\n    // 1: Cyclical many to one election (Presidential Election)\r\n    // 2: Cyclical many to many election (Moderators Election)\r\n    // 3: Simple norm nomination \r\n    // 4: Simple admins and master nomination\r\n    // 5: Vote on Norms \r\n    // 6: Vote on masters and admins \r\n    // 7: Cooptation\r\n\r\n    using procedureLibrary for procedureLibrary.twoRegisteredOrgans;\r\n    using cyclicalVotingLibrary for cyclicalVotingLibrary.RecurringElectionInfo;\r\n    using cyclicalVotingLibrary for cyclicalVotingLibrary.Candidacy;\r\n    using cyclicalVotingLibrary for cyclicalVotingLibrary.ElectionBallot;\r\n\r\n    // First stakeholder address is referenceOrganContract\r\n    // Second stakeholder address is affectedOrganContract\r\n    procedureLibrary.twoRegisteredOrgans public linkedOrgans;\r\n    cyclicalVotingLibrary.RecurringElectionInfo public electionParameters;\r\n\r\n    // Keeping track of current moderators, next moderators and which ballot is the next to be enforced\r\n    address[] public currentModerators;\r\n    address[] public nextModerators;\r\n    uint public nextBallotToEnforce;\r\n\r\n    // A dynamically-sized array of `Ballot` structs.\r\n    //Ballot[] public ballots;\r\n    cyclicalVotingLibrary.ElectionBallot public currentBallot;\r\n\r\n    \r\n    constructor(address payable _referenceOrganContract, address payable _affectedOrganContract, uint _ballotFrequency, uint _ballotDuration, uint _quorumSize, uint _reelectionMaximum, uint _voterToCandidateRatio, bytes32 _name) \r\n   \r\n    public \r\n    {\r\n        procedureInfo.initProcedure(2, _name, 2);\r\n        linkedOrgans.initTwoRegisteredOrgans(_referenceOrganContract, _affectedOrganContract);\r\n        electionParameters.initElectionParameters(_ballotFrequency, _ballotDuration, _quorumSize, _reelectionMaximum, 2*_ballotDuration, _voterToCandidateRatio);\r\n    }\r\n\r\n    /// Create a new ballot to choose one of `proposalNames`.\r\n    function createBallot(bytes32 _ballotName) \r\n    public \r\n    {\r\n\r\n        electionParameters.createRecurrentBallot(currentBallot, _ballotName);\r\n        // Retrieving size of electorate\r\n        Organ voterRegistryOrgan = Organ(linkedOrgans.firstOrganAddress);\r\n        ( ,uint voterNumber) = voterRegistryOrgan.organInfos();\r\n\r\n        currentBallot.electedOfficialSlotNumber = voterNumber/uint(electionParameters.voterToCandidateRatio);\r\n        if ( currentBallot.electedOfficialSlotNumber == 0) \r\n        {\r\n            currentBallot.electedOfficialSlotNumber = 1;\r\n        }\r\n        delete voterRegistryOrgan;\r\n    }\r\n\r\n    function presentCandidacy( bytes32 _ipfsHash, uint8 _hash_function, uint8 _size) \r\n    public \r\n    {\r\n        // Check the candidate is a member of the reference organ\r\n        procedureLibrary.isAllowed(linkedOrgans.firstOrganAddress);\r\n\r\n        // Check that the ballot is still active\r\n        electionParameters.presentCandidacyLib(currentBallot, _ipfsHash, _hash_function, _size);    \r\n    }\r\n\r\n    /// Vote for a candidate\r\n    function vote(address[] memory _candidateAddresses) \r\n    public \r\n    {\r\n        procedureLibrary.isAllowed(linkedOrgans.firstOrganAddress);\r\n        electionParameters.voteManyToMany(currentBallot, _candidateAddresses);\r\n    }\r\n\r\n    // The vote is finished and we close it. This triggers the outcome of the vote.\r\n\r\n    function endBallot() \r\n    public \r\n    {\r\n        electionParameters.countManyToMany(currentBallot, nextModerators, linkedOrgans.firstOrganAddress);\r\n    }\r\n    \r\n    function enforceBallot() \r\n    public \r\n    {\r\n        // Checking the ballot is indeed the next one to be enforced\r\n        require(currentBallot.ballotNumber >= nextBallotToEnforce);\r\n\r\n        electionParameters.enforceManyToMany(currentBallot, nextModerators, currentModerators, linkedOrgans.secondOrganAddress);\r\n\r\n        nextBallotToEnforce = currentBallot.ballotNumber + 1;\r\n\r\n        delete currentBallot;\r\n        currentBallot.ballotNumber = nextBallotToEnforce;\r\n        // Removing data of nextModerators\r\n        delete nextModerators;\r\n    }\r\n\r\n    //////////////////////// Functions to communicate with other contracts\r\n    function getCandidateList() \r\n    public \r\n    view \r\n    returns (address[] memory _candidateList)\r\n    {\r\n        return currentBallot.candidateList;\r\n    }\r\n    \r\n    function nextElectionICanVoteIn() \r\n    public \r\n    view \r\n    returns (uint lastElectionIParticipatedIn)\r\n    {\r\n        return electionParameters.nextElectionUserCanVoteIn[msg.sender];\r\n    }\r\n\r\n    function getCandidacyInfo(address _candidateAddress) \r\n    public \r\n    view\r\n    returns (bytes32 _ipfsHash, uint8 _hash_function, uint8 _size)\r\n    {\r\n        return (electionParameters.candidacies[_candidateAddress].ipfsHash, electionParameters.candidacies[_candidateAddress].hash_function , electionParameters.candidacies[_candidateAddress].size);\r\n    }\r\n\r\n\r\n}\r\n",
  "sourcePath": "C:/Users/Ewan Debove/Documents/A5/Blockchain Programming/TD7/contracts/utils/Kelsen/solidity/contracts/procedures/cyclicalManyToManyElectionProcedure.sol",
  "compiler": {
    "name": "solc",
    "version": "0.5.12+commit.7709ece9.Emscripten.clang"
  },
  "schemaVersion": "3.0.19",
  "updatedAt": "2019-12-04T10:02:32.757Z",
  "devdoc": {
    "methods": {}
  },
  "userdoc": {
    "methods": {
      "createBallot(bytes32)": {
        "notice": "Create a new ballot to choose one of `proposalNames`."
      },
      "getCandidateList()": {
        "notice": "///////////////////// Functions to communicate with other contracts"
      },
      "vote(address[])": {
        "notice": "Vote for a candidate"
      }
    }
  }
}