{
  "contractName": "cyclicalManyToOneElectionProcedure",
  "abi": [
    {
      "inputs": [
        {
          "internalType": "address payable",
          "name": "_referenceOrganContract",
          "type": "address"
        },
        {
          "internalType": "address payable",
          "name": "_affectedOrganContract",
          "type": "address"
        },
        {
          "internalType": "uint256",
          "name": "_ballotFrequency",
          "type": "uint256"
        },
        {
          "internalType": "uint256",
          "name": "_ballotDuration",
          "type": "uint256"
        },
        {
          "internalType": "uint256",
          "name": "_quorumSize",
          "type": "uint256"
        },
        {
          "internalType": "uint256",
          "name": "_reelectionMaximum",
          "type": "uint256"
        },
        {
          "internalType": "bytes32",
          "name": "_name",
          "type": "bytes32"
        }
      ],
      "payable": false,
      "stateMutability": "nonpayable",
      "type": "constructor"
    },
    {
      "constant": true,
      "inputs": [],
      "name": "currentBallot",
      "outputs": [
        {
          "internalType": "uint256",
          "name": "ballotNumber",
          "type": "uint256"
        },
        {
          "internalType": "bytes32",
          "name": "name",
          "type": "bytes32"
        },
        {
          "internalType": "uint256",
          "name": "startDate",
          "type": "uint256"
        },
        {
          "internalType": "uint256",
          "name": "candidacyEndDate",
          "type": "uint256"
        },
        {
          "internalType": "uint256",
          "name": "electionEndDate",
          "type": "uint256"
        },
        {
          "internalType": "bool",
          "name": "wasEnded",
          "type": "bool"
        },
        {
          "internalType": "uint256",
          "name": "totalVoteCount",
          "type": "uint256"
        },
        {
          "internalType": "uint256",
          "name": "totalVoters",
          "type": "uint256"
        },
        {
          "internalType": "uint256",
          "name": "electedOfficialSlotNumber",
          "type": "uint256"
        }
      ],
      "payable": false,
      "stateMutability": "view",
      "type": "function"
    },
    {
      "constant": true,
      "inputs": [],
      "name": "currentPresident",
      "outputs": [
        {
          "internalType": "address",
          "name": "",
          "type": "address"
        }
      ],
      "payable": false,
      "stateMutability": "view",
      "type": "function"
    },
    {
      "constant": true,
      "inputs": [],
      "name": "electionParameters",
      "outputs": [
        {
          "internalType": "uint256",
          "name": "ballotFrequency",
          "type": "uint256"
        },
        {
          "internalType": "uint256",
          "name": "nextElectionDate",
          "type": "uint256"
        },
        {
          "internalType": "uint256",
          "name": "ballotDuration",
          "type": "uint256"
        },
        {
          "internalType": "uint256",
          "name": "candidacyDuration",
          "type": "uint256"
        },
        {
          "internalType": "uint256",
          "name": "reelectionMaximum",
          "type": "uint256"
        },
        {
          "internalType": "uint256",
          "name": "quorumSize",
          "type": "uint256"
        },
        {
          "internalType": "uint256",
          "name": "voterToCandidateRatio",
          "type": "uint256"
        }
      ],
      "payable": false,
      "stateMutability": "view",
      "type": "function"
    },
    {
      "constant": true,
      "inputs": [],
      "name": "isAProcedure",
      "outputs": [
        {
          "internalType": "bool",
          "name": "",
          "type": "bool"
        }
      ],
      "payable": false,
      "stateMutability": "view",
      "type": "function"
    },
    {
      "constant": true,
      "inputs": [],
      "name": "isAnOrgan",
      "outputs": [
        {
          "internalType": "bool",
          "name": "",
          "type": "bool"
        }
      ],
      "payable": false,
      "stateMutability": "view",
      "type": "function"
    },
    {
      "constant": true,
      "inputs": [],
      "name": "kelsenVersionNumber",
      "outputs": [
        {
          "internalType": "int256",
          "name": "",
          "type": "int256"
        }
      ],
      "payable": false,
      "stateMutability": "view",
      "type": "function"
    },
    {
      "constant": true,
      "inputs": [],
      "name": "linkedOrgans",
      "outputs": [
        {
          "internalType": "address payable",
          "name": "firstOrganAddress",
          "type": "address"
        },
        {
          "internalType": "address payable",
          "name": "secondOrganAddress",
          "type": "address"
        }
      ],
      "payable": false,
      "stateMutability": "view",
      "type": "function"
    },
    {
      "constant": true,
      "inputs": [],
      "name": "procedureInfo",
      "outputs": [
        {
          "internalType": "uint256",
          "name": "procedureTypeNumber",
          "type": "uint256"
        },
        {
          "internalType": "bytes32",
          "name": "procedureName",
          "type": "bytes32"
        },
        {
          "internalType": "uint256",
          "name": "linkedOrgans",
          "type": "uint256"
        }
      ],
      "payable": false,
      "stateMutability": "view",
      "type": "function"
    },
    {
      "constant": false,
      "inputs": [
        {
          "internalType": "bytes32",
          "name": "_ballotName",
          "type": "bytes32"
        }
      ],
      "name": "createBallot",
      "outputs": [],
      "payable": false,
      "stateMutability": "nonpayable",
      "type": "function"
    },
    {
      "constant": false,
      "inputs": [
        {
          "internalType": "bytes32",
          "name": "_ipfsHash",
          "type": "bytes32"
        },
        {
          "internalType": "uint8",
          "name": "_hash_function",
          "type": "uint8"
        },
        {
          "internalType": "uint8",
          "name": "_size",
          "type": "uint8"
        }
      ],
      "name": "presentCandidacy",
      "outputs": [],
      "payable": false,
      "stateMutability": "nonpayable",
      "type": "function"
    },
    {
      "constant": false,
      "inputs": [
        {
          "internalType": "address payable",
          "name": "_candidateAddress",
          "type": "address"
        }
      ],
      "name": "vote",
      "outputs": [],
      "payable": false,
      "stateMutability": "nonpayable",
      "type": "function"
    },
    {
      "constant": false,
      "inputs": [],
      "name": "endBallot",
      "outputs": [
        {
          "internalType": "address",
          "name": "electionWinner",
          "type": "address"
        }
      ],
      "payable": false,
      "stateMutability": "nonpayable",
      "type": "function"
    },
    {
      "constant": true,
      "inputs": [],
      "name": "getCandidateList",
      "outputs": [
        {
          "internalType": "address[]",
          "name": "_candidateList",
          "type": "address[]"
        }
      ],
      "payable": false,
      "stateMutability": "view",
      "type": "function"
    },
    {
      "constant": true,
      "inputs": [],
      "name": "nextElectionICanVoteIn",
      "outputs": [
        {
          "internalType": "uint256",
          "name": "lastElectionIParticipatedIn",
          "type": "uint256"
        }
      ],
      "payable": false,
      "stateMutability": "view",
      "type": "function"
    },
    {
      "constant": true,
      "inputs": [
        {
          "internalType": "address",
          "name": "_candidateAddress",
          "type": "address"
        }
      ],
      "name": "getCandidacyInfo",
      "outputs": [
        {
          "internalType": "bytes32",
          "name": "_ipfsHash",
          "type": "bytes32"
        },
        {
          "internalType": "uint8",
          "name": "_hash_function",
          "type": "uint8"
        },
        {
          "internalType": "uint8",
          "name": "_size",
          "type": "uint8"
        }
      ],
      "payable": false,
      "stateMutability": "view",
      "type": "function"
    }
  ],
  "bytecode": "0x608060405260026000556000600560006101000a81548160ff0219169083151502179055506001600560016101000a81548160ff02191690831515021790555034801561004b57600080fd5b50604051611273380380611273833981810160405260e081101561006e57600080fd5b8101908080519060200190929190805190602001909291908051906020019092919080519060200190929190805190602001909291908051906020019092919080519060200190929190505050600273__procedureLibrary______________________6356e77656909160018460026040518563ffffffff1660e01b81526004018085815260200184815260200183815260200182815260200194505050505060006040518083038186803b15801561012757600080fd5b505af415801561013b573d6000803e3d6000fd5b50505050600673__procedureLibrary______________________636f53715a909189896040518463ffffffff1660e01b8152600401808481526020018373ffffffffffffffffffffffffffffffffffffffff1673ffffffffffffffffffffffffffffffffffffffff1681526020018273ffffffffffffffffffffffffffffffffffffffff1673ffffffffffffffffffffffffffffffffffffffff168152602001935050505060006040518083038186803b1580156101f957600080fd5b505af415801561020d573d6000803e3d6000fd5b50505050600873__cyclicalVotingLibrary_________________63578ede039091878787878a60020260006040518863ffffffff1660e01b81526004018088815260200187815260200186815260200185815260200184815260200183815260200182815260200197505050505050505060006040518083038186803b15801561029757600080fd5b505af41580156102ab573d6000803e3d6000fd5b5050505050505050505050610fae806102c56000396000f3fe608060405234801561001057600080fd5b50600436106100f55760003560e01c80638db704cb11610097578063d36d2dd711610066578063d36d2dd7146103c1578063e80b30a514610409578063f80723a81461042b578063fdbc400614610485576100f5565b80638db704cb146102d85780639397942e146102f65780639e3dd25914610322578063a8bef97a1461039f576100f5565b8063584e2fa1116100d3578063584e2fa1146102005780635dbe4d28146102485780636d943451146102665780636dd7d8ea14610294576100f5565b80632e95da2f146100fa5780633a47cb601461016c57806347ae53e2146101b6575b600080fd5b61013c6004803603602081101561011057600080fd5b81019080803573ffffffffffffffffffffffffffffffffffffffff1690602001909291905050506104e4565b604051808481526020018360ff1660ff1681526020018260ff1660ff168152602001935050505060405180910390f35b6101746105e2565b604051808273ffffffffffffffffffffffffffffffffffffffff1673ffffffffffffffffffffffffffffffffffffffff16815260200191505060405180910390f35b6101be610a32565b604051808273ffffffffffffffffffffffffffffffffffffffff1673ffffffffffffffffffffffffffffffffffffffff16815260200191505060405180910390f35b610208610a58565b6040518088815260200187815260200186815260200185815260200184815260200183815260200182815260200197505050505050505060405180910390f35b610250610a88565b6040518082815260200191505060405180910390f35b6102926004803603602081101561027c57600080fd5b8101908080359060200190929190505050610a8e565b005b6102d6600480360360208110156102aa57600080fd5b81019080803573ffffffffffffffffffffffffffffffffffffffff169060200190929190505050610b0c565b005b6102e0610be4565b6040518082815260200191505060405180910390f35b6102fe610c2d565b60405180848152602001838152602001828152602001935050505060405180910390f35b61032a610c45565b604051808373ffffffffffffffffffffffffffffffffffffffff1673ffffffffffffffffffffffffffffffffffffffff1681526020018273ffffffffffffffffffffffffffffffffffffffff1673ffffffffffffffffffffffffffffffffffffffff1681526020019250505060405180910390f35b6103a7610c97565b604051808215151515815260200191505060405180910390f35b610407600480360360608110156103d757600080fd5b8101908080359060200190929190803560ff169060200190929190803560ff169060200190929190505050610caa565b005b610411610d74565b604051808215151515815260200191505060405180910390f35b610433610d87565b604051808a815260200189815260200188815260200187815260200186815260200185151515158152602001848152602001838152602001828152602001995050505050505050505060405180910390f35b61048d610dd0565b6040518080602001828103825283818151815260200191508051906020019060200280838360005b838110156104d05780820151818401526020810190506104b5565b505050509050019250505060405180910390f35b6000806000600860090160008573ffffffffffffffffffffffffffffffffffffffff1673ffffffffffffffffffffffffffffffffffffffff16815260200190815260200160002060010154600860090160008673ffffffffffffffffffffffffffffffffffffffff1673ffffffffffffffffffffffffffffffffffffffff16815260200190815260200160002060020160009054906101000a900460ff16600860090160008773ffffffffffffffffffffffffffffffffffffffff1673ffffffffffffffffffffffffffffffffffffffff16815260200190815260200160002060020160019054906101000a900460ff169250925092509193909250565b6000600873__cyclicalVotingLibrary_________________63e0e2f6bb90916013600660000160009054906101000a900473ffffffffffffffffffffffffffffffffffffffff166040518463ffffffff1660e01b8152600401808481526020018381526020018273ffffffffffffffffffffffffffffffffffffffff1673ffffffffffffffffffffffffffffffffffffffff168152602001935050505060206040518083038186803b15801561069857600080fd5b505af41580156106ac573d6000803e3d6000fd5b505050506040513d60208110156106c257600080fd5b81019080805190602001909291905050509050600073ffffffffffffffffffffffffffffffffffffffff168173ffffffffffffffffffffffffffffffffffffffff16146109ab576001600860070160008373ffffffffffffffffffffffffffffffffffffffff1673ffffffffffffffffffffffffffffffffffffffff16815260200190815260200160002060008282540192505081905550601260009054906101000a900473ffffffffffffffffffffffffffffffffffffffff1673ffffffffffffffffffffffffffffffffffffffff168173ffffffffffffffffffffffffffffffffffffffff161461090657600873__cyclicalVotingLibrary_________________633e9191589091601384601260009054906101000a900473ffffffffffffffffffffffffffffffffffffffff16600660010160009054906101000a900473ffffffffffffffffffffffffffffffffffffffff166040518663ffffffff1660e01b8152600401808681526020018581526020018473ffffffffffffffffffffffffffffffffffffffff1673ffffffffffffffffffffffffffffffffffffffff1681526020018373ffffffffffffffffffffffffffffffffffffffff1673ffffffffffffffffffffffffffffffffffffffff1681526020018273ffffffffffffffffffffffffffffffffffffffff1673ffffffffffffffffffffffffffffffffffffffff1681526020019550505050505060006040518083038186803b1580156108ed57600080fd5b505af4158015610901573d6000803e3d6000fd5b505050505b600860090160008273ffffffffffffffffffffffffffffffffffffffff1673ffffffffffffffffffffffffffffffffffffffff168152602001908152602001600020600080820160006101000a81549073ffffffffffffffffffffffffffffffffffffffff021916905560018201600090556002820160006101000a81549060ff02191690556002820160016101000a81549060ff0219169055600382016000905550505b60006001601360000154019050601360008082016000905560018201600090556002820160009055600382016000905560048201600090556005820160006101000a81549060ff0219169055600682016000905560078201600090556008820160009055600982016000610a1f9190610f33565b5050806013600001819055508191505090565b601260009054906101000a900473ffffffffffffffffffffffffffffffffffffffff1681565b60088060000154908060010154908060020154908060030154908060040154908060050154908060060154905087565b60005481565b600873__cyclicalVotingLibrary_________________63bd292a4790916013846040518463ffffffff1660e01b815260040180848152602001838152602001828152602001935050505060006040518083038186803b158015610af157600080fd5b505af4158015610b05573d6000803e3d6000fd5b5050505050565b610b3a600660000160009054906101000a900473ffffffffffffffffffffffffffffffffffffffff16610e61565b600873__cyclicalVotingLibrary_________________639689683090916013846040518463ffffffff1660e01b8152600401808481526020018381526020018273ffffffffffffffffffffffffffffffffffffffff1673ffffffffffffffffffffffffffffffffffffffff168152602001935050505060006040518083038186803b158015610bc957600080fd5b505af4158015610bdd573d6000803e3d6000fd5b5050505050565b60006008800160003373ffffffffffffffffffffffffffffffffffffffff1673ffffffffffffffffffffffffffffffffffffffff16815260200190815260200160002054905090565b60028060000154908060010154908060020154905083565b60068060000160009054906101000a900473ffffffffffffffffffffffffffffffffffffffff16908060010160009054906101000a900473ffffffffffffffffffffffffffffffffffffffff16905082565b600560009054906101000a900460ff1681565b610cd8600660000160009054906101000a900473ffffffffffffffffffffffffffffffffffffffff16610e61565b600873__cyclicalVotingLibrary_________________638f4b1f74909160138686866040518663ffffffff1660e01b8152600401808681526020018581526020018481526020018360ff1660ff1681526020018260ff1660ff1681526020019550505050505060006040518083038186803b158015610d5757600080fd5b505af4158015610d6b573d6000803e3d6000fd5b50505050505050565b600560019054906101000a900460ff1681565b60138060000154908060010154908060020154908060030154908060040154908060050160009054906101000a900460ff16908060060154908060070154908060080154905089565b60606013600901805480602002602001604051908101604052809291908181526020018280548015610e5757602002820191906000526020600020905b8160009054906101000a900473ffffffffffffffffffffffffffffffffffffffff1673ffffffffffffffffffffffffffffffffffffffff1681526020019060010190808311610e0d575b5050505050905090565b600081905060008173ffffffffffffffffffffffffffffffffffffffff16635549ea51336040518263ffffffff1660e01b8152600401808273ffffffffffffffffffffffffffffffffffffffff1673ffffffffffffffffffffffffffffffffffffffff16815260200191505060206040518083038186803b158015610ee557600080fd5b505afa158015610ef9573d6000803e3d6000fd5b505050506040513d6020811015610f0f57600080fd5b81019080805190602001909291905050501415610f2b57600080fd5b600091505050565b5080546000825590600052602060002090810190610f519190610f54565b50565b610f7691905b80821115610f72576000816000905550600101610f5a565b5090565b9056fea265627a7a723158200f6e104c6f3f8c44f6a834b9626f7fe02383ec90d7085dfd4dd62e845ea2bde264736f6c634300050c0032",
  "source": "pragma solidity >=0.4.22 <0.6.0;\r\n\r\n// Standard contract for a presidential election procedure\r\n\r\nimport \"../standardProcedure.sol\";\r\nimport \"../Organ.sol\";\r\nimport \"../libraries/cyclicalVotingLibrary.sol\";\r\n\r\n\r\ncontract cyclicalManyToOneElectionProcedure is Procedure\r\n{\r\n    // 1: Cyclical many to one election (Presidential Election)\r\n    // 2: Cyclical many to many election (Moderators Election)\r\n    // 3: Simple norm nomination \r\n    // 4: Simple admins and master nomination\r\n    // 5: Vote on Norms \r\n    // 6: Vote on masters and admins \r\n    // 7: Cooptation\r\n    using procedureLibrary for procedureLibrary.twoRegisteredOrgans;\r\n    using cyclicalVotingLibrary for cyclicalVotingLibrary.RecurringElectionInfo;\r\n    using cyclicalVotingLibrary for cyclicalVotingLibrary.Candidacy;\r\n    using cyclicalVotingLibrary for cyclicalVotingLibrary.ElectionBallot;\r\n\r\n    // First stakeholder address is referenceOrganContract\r\n    // Second stakeholder address is affectedOrganContract\r\n    procedureLibrary.twoRegisteredOrgans public linkedOrgans;\r\n    cyclicalVotingLibrary.RecurringElectionInfo public electionParameters;\r\n\r\n    // ############## Variable to set up when declaring the procedure\r\n    // ####### Vote creation process\r\n\r\n    // current President address\r\n    address public currentPresident;\r\n\r\n    // A dynamically-sized array of `Ballot` structs.\r\n    cyclicalVotingLibrary.ElectionBallot public currentBallot;\r\n\r\n    constructor(address payable _referenceOrganContract, address payable _affectedOrganContract, uint _ballotFrequency, uint _ballotDuration, uint _quorumSize, uint _reelectionMaximum, bytes32 _name) \r\n    public \r\n    {\r\n        procedureInfo.initProcedure(1, _name, 2);\r\n        linkedOrgans.initTwoRegisteredOrgans(_referenceOrganContract, _affectedOrganContract);\r\n        electionParameters.initElectionParameters(_ballotFrequency, _ballotDuration, _quorumSize, _reelectionMaximum, 2*_ballotDuration, 0);\r\n    }\r\n\r\n    /// Create a new ballot to choose one of `proposalNames`.\r\n    function createBallot(bytes32 _ballotName) \r\n    public \r\n    {\r\n        electionParameters.createRecurrentBallot(currentBallot, _ballotName);\r\n    }\r\n\r\n    function presentCandidacy(bytes32 _ipfsHash, uint8 _hash_function, uint8 _size) \r\n    public \r\n    {\r\n\r\n        // Check the candidate is a member of the reference organ\r\n        procedureLibrary.isAllowed(linkedOrgans.firstOrganAddress);\r\n        electionParameters.presentCandidacyLib(currentBallot, _ipfsHash, _hash_function, _size);\r\n    }\r\n\r\n\r\n    /// Vote for a candidate\r\n    function vote(address payable _candidateAddress) \r\n    public \r\n    {\r\n        procedureLibrary.isAllowed(linkedOrgans.firstOrganAddress);\r\n        electionParameters.voteManyToOne(currentBallot, _candidateAddress);\r\n    }\r\n\r\n    // The vote is finished and we close it. This triggers the outcome of the vote.\r\n\r\n    function endBallot() \r\n    public \r\n    returns (address electionWinner)\r\n    {\r\n       electionWinner = electionParameters.countManyToOne(currentBallot, linkedOrgans.firstOrganAddress);   \r\n\r\n        if (electionWinner != address(0))\r\n        {\r\n            electionParameters.cumulatedMandates[electionWinner] += 1;\r\n\r\n            if (electionWinner != currentPresident)\r\n            {\r\n                electionParameters.givePowerToNewPresident(currentBallot, electionWinner, currentPresident, linkedOrgans.secondOrganAddress);\r\n            }\r\n\r\n            delete electionParameters.candidacies[electionWinner];\r\n        }\r\n        \r\n        uint nextBallotNumber = currentBallot.ballotNumber + 1;\r\n        // Cleaning contract state from election\r\n        delete currentBallot;\r\n        currentBallot.ballotNumber = nextBallotNumber;\r\n\r\n        return electionWinner;          \r\n    }\r\n        \r\n    // ######### Functions to retrieve procedure infos\r\n\r\n    function getCandidateList() \r\n    public \r\n    view \r\n    returns (address[] memory _candidateList)\r\n    {\r\n        return currentBallot.candidateList;\r\n    }\r\n\r\n    function nextElectionICanVoteIn() \r\n    public \r\n    view \r\n    returns (uint lastElectionIParticipatedIn)\r\n    {\r\n        return electionParameters.nextElectionUserCanVoteIn[msg.sender];\r\n    }\r\n\r\n    function getCandidacyInfo(address _candidateAddress) \r\n    public \r\n    view\r\n    returns (bytes32 _ipfsHash, uint8 _hash_function, uint8 _size)\r\n    {\r\n        return (electionParameters.candidacies[_candidateAddress].ipfsHash, electionParameters.candidacies[_candidateAddress].hash_function , electionParameters.candidacies[_candidateAddress].size);\r\n    }\r\n}\r\n\r\n",
  "sourcePath": "C:/Users/Ewan Debove/Documents/A5/Blockchain Programming/TD7/contracts/utils/Kelsen/solidity/contracts/procedures/cyclicalManyToOneElectionProcedure.sol",
  "compiler": {
    "name": "solc",
    "version": "0.5.12+commit.7709ece9.Emscripten.clang"
  },
  "schemaVersion": "3.0.19",
  "updatedAt": "2019-12-04T10:02:32.762Z",
  "devdoc": {
    "methods": {}
  },
  "userdoc": {
    "methods": {
      "createBallot(bytes32)": {
        "notice": "Create a new ballot to choose one of `proposalNames`."
      },
      "vote(address)": {
        "notice": "Vote for a candidate"
      }
    }
  }
}