{
  "contractName": "depositWithdrawFundsProcedure",
  "abi": [
    {
      "inputs": [
        {
          "internalType": "address payable",
          "name": "_authorizedDepositors",
          "type": "address"
        },
        {
          "internalType": "address payable",
          "name": "_authorizedWithdrawers",
          "type": "address"
        },
        {
          "internalType": "address payable",
          "name": "_defaultReceivingOrgan",
          "type": "address"
        },
        {
          "internalType": "bytes32",
          "name": "_name",
          "type": "bytes32"
        }
      ],
      "payable": false,
      "stateMutability": "nonpayable",
      "type": "constructor"
    },
    {
      "anonymous": false,
      "inputs": [
        {
          "indexed": false,
          "internalType": "address",
          "name": "_from",
          "type": "address"
        },
        {
          "indexed": false,
          "internalType": "address",
          "name": "_payoutAddress",
          "type": "address"
        },
        {
          "indexed": false,
          "internalType": "uint256",
          "name": "_amount",
          "type": "uint256"
        }
      ],
      "name": "depositedFunds",
      "type": "event"
    },
    {
      "anonymous": false,
      "inputs": [
        {
          "indexed": false,
          "internalType": "address",
          "name": "_from",
          "type": "address"
        },
        {
          "indexed": false,
          "internalType": "address",
          "name": "_payoutAddress",
          "type": "address"
        },
        {
          "indexed": false,
          "internalType": "uint256",
          "name": "_amount",
          "type": "uint256"
        }
      ],
      "name": "withdrewFunds",
      "type": "event"
    },
    {
      "payable": true,
      "stateMutability": "payable",
      "type": "fallback"
    },
    {
      "constant": true,
      "inputs": [],
      "name": "isAProcedure",
      "outputs": [
        {
          "internalType": "bool",
          "name": "",
          "type": "bool"
        }
      ],
      "payable": false,
      "stateMutability": "view",
      "type": "function"
    },
    {
      "constant": true,
      "inputs": [],
      "name": "isAnOrgan",
      "outputs": [
        {
          "internalType": "bool",
          "name": "",
          "type": "bool"
        }
      ],
      "payable": false,
      "stateMutability": "view",
      "type": "function"
    },
    {
      "constant": true,
      "inputs": [],
      "name": "kelsenVersionNumber",
      "outputs": [
        {
          "internalType": "int256",
          "name": "",
          "type": "int256"
        }
      ],
      "payable": false,
      "stateMutability": "view",
      "type": "function"
    },
    {
      "constant": true,
      "inputs": [],
      "name": "linkedOrgans",
      "outputs": [
        {
          "internalType": "address payable",
          "name": "firstOrganAddress",
          "type": "address"
        },
        {
          "internalType": "address payable",
          "name": "secondOrganAddress",
          "type": "address"
        },
        {
          "internalType": "address payable",
          "name": "thirdOrganAddress",
          "type": "address"
        }
      ],
      "payable": false,
      "stateMutability": "view",
      "type": "function"
    },
    {
      "constant": true,
      "inputs": [],
      "name": "procedureInfo",
      "outputs": [
        {
          "internalType": "uint256",
          "name": "procedureTypeNumber",
          "type": "uint256"
        },
        {
          "internalType": "bytes32",
          "name": "procedureName",
          "type": "bytes32"
        },
        {
          "internalType": "uint256",
          "name": "linkedOrgans",
          "type": "uint256"
        }
      ],
      "payable": false,
      "stateMutability": "view",
      "type": "function"
    },
    {
      "constant": false,
      "inputs": [
        {
          "internalType": "address payable",
          "name": "_targetOrgan",
          "type": "address"
        }
      ],
      "name": "depositToOrgan",
      "outputs": [],
      "payable": true,
      "stateMutability": "payable",
      "type": "function"
    },
    {
      "constant": false,
      "inputs": [
        {
          "internalType": "address payable",
          "name": "_targetOrgan",
          "type": "address"
        },
        {
          "internalType": "address payable",
          "name": "_receiver",
          "type": "address"
        },
        {
          "internalType": "uint256",
          "name": "_amount",
          "type": "uint256"
        }
      ],
      "name": "withdrawOnOrgan",
      "outputs": [],
      "payable": false,
      "stateMutability": "nonpayable",
      "type": "function"
    }
  ],
  "bytecode": "0x608060405260026000556000600560006101000a81548160ff0219169083151502179055506001600560016101000a81548160ff02191690831515021790555034801561004b57600080fd5b506040516109c33803806109c38339818101604052608081101561006e57600080fd5b8101908080519060200190929190805190602001909291908051906020019092919080519060200190929190505050600273__procedureLibrary______________________6356e77656909160098460036040518563ffffffff1660e01b81526004018085815260200184815260200183815260200182815260200194505050505060006040518083038186803b15801561010957600080fd5b505af415801561011d573d6000803e3d6000fd5b50505050600673__procedureLibrary______________________63e7d640db90918686866040518563ffffffff1660e01b8152600401808581526020018473ffffffffffffffffffffffffffffffffffffffff1673ffffffffffffffffffffffffffffffffffffffff1681526020018373ffffffffffffffffffffffffffffffffffffffff1673ffffffffffffffffffffffffffffffffffffffff1681526020018273ffffffffffffffffffffffffffffffffffffffff1673ffffffffffffffffffffffffffffffffffffffff16815260200194505050505060006040518083038186803b15801561020f57600080fd5b505af4158015610223573d6000803e3d6000fd5b50505050505050506107898061023a6000396000f3fe6080604052600436106100705760003560e01c80639397942e1161004e5780639397942e1461018a5780639e3dd259146101c3578063a8bef97a14610280578063e80b30a5146102af57610070565b806332518e00146100a05780635dbe4d281461011b5780638604271714610146575b61009e600660020160009054906101000a900473ffffffffffffffffffffffffffffffffffffffff166102de565b005b3480156100ac57600080fd5b50610119600480360360608110156100c357600080fd5b81019080803573ffffffffffffffffffffffffffffffffffffffff169060200190929190803573ffffffffffffffffffffffffffffffffffffffff1690602001909291908035906020019092919050505061044f565b005b34801561012757600080fd5b506101306105c6565b6040518082815260200191505060405180910390f35b6101886004803603602081101561015c57600080fd5b81019080803573ffffffffffffffffffffffffffffffffffffffff1690602001909291905050506102de565b005b34801561019657600080fd5b5061019f6105cc565b60405180848152602001838152602001828152602001935050505060405180910390f35b3480156101cf57600080fd5b506101d86105e4565b604051808473ffffffffffffffffffffffffffffffffffffffff1673ffffffffffffffffffffffffffffffffffffffff1681526020018373ffffffffffffffffffffffffffffffffffffffff1673ffffffffffffffffffffffffffffffffffffffff1681526020018273ffffffffffffffffffffffffffffffffffffffff1673ffffffffffffffffffffffffffffffffffffffff168152602001935050505060405180910390f35b34801561028c57600080fd5b5061029561065c565b604051808215151515815260200191505060405180910390f35b3480156102bb57600080fd5b506102c461066f565b604051808215151515815260200191505060405180910390f35b600073ffffffffffffffffffffffffffffffffffffffff16600660000160009054906101000a900473ffffffffffffffffffffffffffffffffffffffff1673ffffffffffffffffffffffffffffffffffffffff161461036657610365600660000160009054906101000a900473ffffffffffffffffffffffffffffffffffffffff16610682565b5b8073ffffffffffffffffffffffffffffffffffffffff166108fc349081150290604051600060405180830381858888f193505050501580156103ac573d6000803e3d6000fd5b507f9ba2320cd77403ddf10e62bb77145a1658f32e86971f41eef53b724d39bcb0a8338234604051808473ffffffffffffffffffffffffffffffffffffffff1673ffffffffffffffffffffffffffffffffffffffff1681526020018373ffffffffffffffffffffffffffffffffffffffff1673ffffffffffffffffffffffffffffffffffffffff168152602001828152602001935050505060405180910390a150565b61047d600660010160009054906101000a900473ffffffffffffffffffffffffffffffffffffffff16610682565b60008390508073ffffffffffffffffffffffffffffffffffffffff1663117de2fd84846040518363ffffffff1660e01b8152600401808373ffffffffffffffffffffffffffffffffffffffff1673ffffffffffffffffffffffffffffffffffffffff16815260200182815260200192505050600060405180830381600087803b15801561050957600080fd5b505af115801561051d573d6000803e3d6000fd5b505050507ffa42098c79fa91f5f4432962c3274dd6ff49a5819b2b349ce0350b620d307ebc843384604051808473ffffffffffffffffffffffffffffffffffffffff1673ffffffffffffffffffffffffffffffffffffffff1681526020018373ffffffffffffffffffffffffffffffffffffffff1673ffffffffffffffffffffffffffffffffffffffff168152602001828152602001935050505060405180910390a150505050565b60005481565b60028060000154908060010154908060020154905083565b60068060000160009054906101000a900473ffffffffffffffffffffffffffffffffffffffff16908060010160009054906101000a900473ffffffffffffffffffffffffffffffffffffffff16908060020160009054906101000a900473ffffffffffffffffffffffffffffffffffffffff16905083565b600560009054906101000a900460ff1681565b600560019054906101000a900460ff1681565b600081905060008173ffffffffffffffffffffffffffffffffffffffff16635549ea51336040518263ffffffff1660e01b8152600401808273ffffffffffffffffffffffffffffffffffffffff1673ffffffffffffffffffffffffffffffffffffffff16815260200191505060206040518083038186803b15801561070657600080fd5b505afa15801561071a573d6000803e3d6000fd5b505050506040513d602081101561073057600080fd5b8101908080519060200190929190505050141561074c57600080fd5b60009150505056fea265627a7a72315820d2cde40e20b021b5c31b6e517fd662776294d4ee80d95dc7e43f9b91a420645964736f6c634300050c0032",
  "source": "pragma solidity >=0.4.22 <0.6.0;\r\n\r\n// Standard contract for promulgation of a norm\r\n\r\nimport \"../standardProcedure.sol\";\r\nimport \"../Organ.sol\";\r\n\r\n\r\ncontract depositWithdrawFundsProcedure is Procedure{\r\n    // 1: Cyclical many to one election (Presidential Election)\r\n    // 2: Cyclical many to many election (Moderators Election)\r\n    // 3: Simple norm nomination \r\n    // 4: Simple admins and master nomination\r\n    // 5: Vote on Norms \r\n    // 6: Vote on masters and admins \r\n    // 7: Cooptation\r\n    // 8: Vote on an expense\r\n    // 9: Deposit/Withdraw funds on an organ\r\n\r\n    using procedureLibrary for procedureLibrary.threeRegisteredOrgans;\r\n\r\n    // First stakeholder address is authorizedDepositorsOrganContract\r\n    // Second stakeholder address is authorizedWithdrawersOrganContract\r\n    // Third stakeholder address is defaultReceivingOrganContract\r\n    procedureLibrary.threeRegisteredOrgans public linkedOrgans;\r\n\r\n    // Events\r\n    event depositedFunds(address _from, address _payoutAddress, uint _amount);\r\n    event withdrewFunds(address _from, address _payoutAddress, uint _amount);\r\n\r\n    constructor (address payable _authorizedDepositors, address payable _authorizedWithdrawers, address payable _defaultReceivingOrgan, bytes32 _name) \r\n    public \r\n    {\r\n        procedureInfo.initProcedure(9, _name, 3);\r\n        linkedOrgans.initThreeRegisteredOrgans(_authorizedDepositors, _authorizedWithdrawers, _defaultReceivingOrgan);\r\n    }\r\n\r\n    function () \r\n    external \r\n    payable \r\n    {\r\n        depositToOrgan(linkedOrgans.thirdOrganAddress);\r\n    }\r\n\r\n    function depositToOrgan(address payable _targetOrgan) \r\n    public \r\n    payable \r\n    {\r\n        // Checking if depositors are restricted\r\n        if (linkedOrgans.firstOrganAddress != address(0)) \r\n        {\r\n            procedureLibrary.isAllowed(linkedOrgans.firstOrganAddress);   \r\n        }\r\n\r\n        // Sending funds to organ\r\n        _targetOrgan.transfer(msg.value);\r\n\r\n        // Log event\r\n        emit depositedFunds(msg.sender, _targetOrgan, msg.value);\r\n    }\r\n\r\n    function withdrawOnOrgan(address payable _targetOrgan, address payable _receiver, uint _amount) \r\n    public \r\n    {\r\n\r\n        // Checking if withdrawers are restricted\r\n        procedureLibrary.isAllowed(linkedOrgans.secondOrganAddress);    \r\n   \r\n        // Instanciating target organ for withdrawal\r\n        Organ organToWithdrawFrom = Organ(_targetOrgan);\r\n\r\n        // Withdrawing funds from organ\r\n        organToWithdrawFrom.payout(_receiver, _amount);\r\n\r\n        // Log event\r\n        emit withdrewFunds( _targetOrgan, msg.sender, _amount);\r\n    }\r\n}\r\n\r\n",
  "sourcePath": "C:/Users/Ewan Debove/Documents/A5/Blockchain Programming/TD7/contracts/utils/Kelsen/solidity/contracts/procedures/depositWithdrawFundsProcedure.sol",
  "compiler": {
    "name": "solc",
    "version": "0.5.12+commit.7709ece9.Emscripten.clang"
  },
  "schemaVersion": "3.0.19",
  "updatedAt": "2019-12-04T10:02:32.766Z",
  "devdoc": {
    "methods": {}
  },
  "userdoc": {
    "methods": {}
  }
}