{
  "contractName": "Kelsen",
  "abi": [
    {
      "constant": true,
      "inputs": [],
      "name": "isAProcedure",
      "outputs": [
        {
          "internalType": "bool",
          "name": "",
          "type": "bool"
        }
      ],
      "payable": false,
      "stateMutability": "view",
      "type": "function"
    },
    {
      "constant": true,
      "inputs": [],
      "name": "isAnOrgan",
      "outputs": [
        {
          "internalType": "bool",
          "name": "",
          "type": "bool"
        }
      ],
      "payable": false,
      "stateMutability": "view",
      "type": "function"
    },
    {
      "constant": true,
      "inputs": [],
      "name": "kelsenVersionNumber",
      "outputs": [
        {
          "internalType": "int256",
          "name": "",
          "type": "int256"
        }
      ],
      "payable": false,
      "stateMutability": "view",
      "type": "function"
    }
  ],
  "bytecode": "0x6080604052600260005534801561001557600080fd5b5060fd806100246000396000f3fe6080604052348015600f57600080fd5b5060043610603c5760003560e01c80635dbe4d28146041578063a8bef97a14605d578063e80b30a514607d575b600080fd5b6047609d565b6040518082815260200191505060405180910390f35b606360a3565b604051808215151515815260200191505060405180910390f35b608360b6565b604051808215151515815260200191505060405180910390f35b60005481565b600160009054906101000a900460ff1681565b6001809054906101000a900460ff168156fea265627a7a72315820862faee64dfcd10bfb1dad3184f6b677c7c60f7e8a11efd5505047cb31bef9b864736f6c634300050c0032",
  "source": "pragma solidity >=0.4.22 <0.6.0;\r\n\r\n\r\n\r\n/// @title Standard organ contract\r\n\r\ncontract Kelsen {\r\n        // Identifiers for Dapp using Kelsen\r\n    int public kelsenVersionNumber = 2;\r\n    bool public isAnOrgan;\r\n    bool public isAProcedure;\r\n}\r\n",
  "sourcePath": "C:\\Users\\Ewan Debove\\Documents\\A5\\Blockchain Programming\\TD7\\contracts\\utils\\Kelsen\\solidity\\contracts\\Kelsen.sol",
  "compiler": {
    "name": "solc",
    "version": "0.5.12+commit.7709ece9.Emscripten.clang"
  },
  "schemaVersion": "3.0.19",
  "updatedAt": "2019-12-04T11:02:18.894Z",
  "devdoc": {
    "methods": {},
    "title": "Standard organ contract"
  },
  "userdoc": {
    "methods": {}
  }
}