{
  "contractName": "normsCooptationProcedure",
  "abi": [
    {
      "inputs": [
        {
          "internalType": "address payable",
          "name": "_membersOrganContract",
          "type": "address"
        },
        {
          "internalType": "address payable",
          "name": "_membersWithVetoOrganContract",
          "type": "address"
        },
        {
          "internalType": "address payable",
          "name": "_finalPromulgatorsOrganContract",
          "type": "address"
        },
        {
          "internalType": "uint256",
          "name": "_quorumSize",
          "type": "uint256"
        },
        {
          "internalType": "uint256",
          "name": "_votingPeriodDuration",
          "type": "uint256"
        },
        {
          "internalType": "uint256",
          "name": "_promulgationPeriodDuration",
          "type": "uint256"
        },
        {
          "internalType": "bytes32",
          "name": "_name",
          "type": "bytes32"
        }
      ],
      "payable": false,
      "stateMutability": "nonpayable",
      "type": "constructor"
    },
    {
      "anonymous": false,
      "inputs": [
        {
          "indexed": false,
          "internalType": "address",
          "name": "_from",
          "type": "address"
        },
        {
          "indexed": false,
          "internalType": "uint256",
          "name": "_propositionNumber",
          "type": "uint256"
        }
      ],
      "name": "countVotes",
      "type": "event"
    },
    {
      "anonymous": false,
      "inputs": [
        {
          "indexed": false,
          "internalType": "address",
          "name": "_candidateAddress",
          "type": "address"
        },
        {
          "indexed": false,
          "internalType": "uint256",
          "name": "_deposit",
          "type": "uint256"
        },
        {
          "indexed": false,
          "internalType": "bytes32",
          "name": "_ipfsHash",
          "type": "bytes32"
        },
        {
          "indexed": false,
          "internalType": "uint8",
          "name": "_hash_function",
          "type": "uint8"
        },
        {
          "indexed": false,
          "internalType": "uint8",
          "name": "_size",
          "type": "uint8"
        }
      ],
      "name": "createPropositionEvent",
      "type": "event"
    },
    {
      "anonymous": false,
      "inputs": [
        {
          "indexed": false,
          "internalType": "address",
          "name": "_from",
          "type": "address"
        },
        {
          "indexed": false,
          "internalType": "uint256",
          "name": "_propositionNumber",
          "type": "uint256"
        }
      ],
      "name": "promulgatePropositionEvent",
      "type": "event"
    },
    {
      "anonymous": false,
      "inputs": [
        {
          "indexed": false,
          "internalType": "address",
          "name": "_from",
          "type": "address"
        },
        {
          "indexed": false,
          "internalType": "uint256",
          "name": "_propositionNumber",
          "type": "uint256"
        },
        {
          "indexed": false,
          "internalType": "bool",
          "name": "_decision",
          "type": "bool"
        }
      ],
      "name": "vetoProposition",
      "type": "event"
    },
    {
      "anonymous": false,
      "inputs": [
        {
          "indexed": false,
          "internalType": "address",
          "name": "_from",
          "type": "address"
        },
        {
          "indexed": false,
          "internalType": "uint256",
          "name": "_propositionNumber",
          "type": "uint256"
        }
      ],
      "name": "voteOnProposition",
      "type": "event"
    },
    {
      "anonymous": false,
      "inputs": [
        {
          "indexed": false,
          "internalType": "address",
          "name": "_from",
          "type": "address"
        },
        {
          "indexed": false,
          "internalType": "uint256",
          "name": "_propositionNumber",
          "type": "uint256"
        },
        {
          "indexed": false,
          "internalType": "uint256",
          "name": "_value",
          "type": "uint256"
        }
      ],
      "name": "withdrawal",
      "type": "event"
    },
    {
      "constant": true,
      "inputs": [],
      "name": "finalPromulgatorsOrganContract",
      "outputs": [
        {
          "internalType": "address payable",
          "name": "",
          "type": "address"
        }
      ],
      "payable": false,
      "stateMutability": "view",
      "type": "function"
    },
    {
      "constant": true,
      "inputs": [],
      "name": "isAProcedure",
      "outputs": [
        {
          "internalType": "bool",
          "name": "",
          "type": "bool"
        }
      ],
      "payable": false,
      "stateMutability": "view",
      "type": "function"
    },
    {
      "constant": true,
      "inputs": [],
      "name": "isAnOrgan",
      "outputs": [
        {
          "internalType": "bool",
          "name": "",
          "type": "bool"
        }
      ],
      "payable": false,
      "stateMutability": "view",
      "type": "function"
    },
    {
      "constant": true,
      "inputs": [],
      "name": "kelsenVersionNumber",
      "outputs": [
        {
          "internalType": "int256",
          "name": "",
          "type": "int256"
        }
      ],
      "payable": false,
      "stateMutability": "view",
      "type": "function"
    },
    {
      "constant": true,
      "inputs": [
        {
          "internalType": "uint256",
          "name": "",
          "type": "uint256"
        }
      ],
      "name": "linkedOrgans",
      "outputs": [
        {
          "internalType": "address",
          "name": "",
          "type": "address"
        }
      ],
      "payable": false,
      "stateMutability": "view",
      "type": "function"
    },
    {
      "constant": true,
      "inputs": [],
      "name": "membersOrganContract",
      "outputs": [
        {
          "internalType": "address payable",
          "name": "",
          "type": "address"
        }
      ],
      "payable": false,
      "stateMutability": "view",
      "type": "function"
    },
    {
      "constant": true,
      "inputs": [],
      "name": "membersWithVetoOrganContract",
      "outputs": [
        {
          "internalType": "address payable",
          "name": "",
          "type": "address"
        }
      ],
      "payable": false,
      "stateMutability": "view",
      "type": "function"
    },
    {
      "constant": true,
      "inputs": [],
      "name": "procedureInfo",
      "outputs": [
        {
          "internalType": "uint256",
          "name": "procedureTypeNumber",
          "type": "uint256"
        },
        {
          "internalType": "bytes32",
          "name": "procedureName",
          "type": "bytes32"
        },
        {
          "internalType": "uint256",
          "name": "linkedOrgans",
          "type": "uint256"
        }
      ],
      "payable": false,
      "stateMutability": "view",
      "type": "function"
    },
    {
      "constant": true,
      "inputs": [],
      "name": "procedureName",
      "outputs": [
        {
          "internalType": "bytes32",
          "name": "",
          "type": "bytes32"
        }
      ],
      "payable": false,
      "stateMutability": "view",
      "type": "function"
    },
    {
      "constant": true,
      "inputs": [],
      "name": "procedureTypeNumber",
      "outputs": [
        {
          "internalType": "int256",
          "name": "",
          "type": "int256"
        }
      ],
      "payable": false,
      "stateMutability": "view",
      "type": "function"
    },
    {
      "constant": true,
      "inputs": [],
      "name": "promulgationPeriodDuration",
      "outputs": [
        {
          "internalType": "uint256",
          "name": "",
          "type": "uint256"
        }
      ],
      "payable": false,
      "stateMutability": "view",
      "type": "function"
    },
    {
      "constant": true,
      "inputs": [
        {
          "internalType": "address",
          "name": "",
          "type": "address"
        },
        {
          "internalType": "uint256",
          "name": "",
          "type": "uint256"
        }
      ],
      "name": "propositionToPromulgator",
      "outputs": [
        {
          "internalType": "uint256",
          "name": "",
          "type": "uint256"
        }
      ],
      "payable": false,
      "stateMutability": "view",
      "type": "function"
    },
    {
      "constant": true,
      "inputs": [
        {
          "internalType": "address",
          "name": "",
          "type": "address"
        },
        {
          "internalType": "uint256",
          "name": "",
          "type": "uint256"
        }
      ],
      "name": "propositionToUser",
      "outputs": [
        {
          "internalType": "uint256",
          "name": "",
          "type": "uint256"
        }
      ],
      "payable": false,
      "stateMutability": "view",
      "type": "function"
    },
    {
      "constant": true,
      "inputs": [
        {
          "internalType": "address",
          "name": "",
          "type": "address"
        },
        {
          "internalType": "uint256",
          "name": "",
          "type": "uint256"
        }
      ],
      "name": "propositionToVetoer",
      "outputs": [
        {
          "internalType": "uint256",
          "name": "",
          "type": "uint256"
        }
      ],
      "payable": false,
      "stateMutability": "view",
      "type": "function"
    },
    {
      "constant": true,
      "inputs": [
        {
          "internalType": "address",
          "name": "",
          "type": "address"
        },
        {
          "internalType": "uint256",
          "name": "",
          "type": "uint256"
        }
      ],
      "name": "propositionToVoter",
      "outputs": [
        {
          "internalType": "uint256",
          "name": "",
          "type": "uint256"
        }
      ],
      "payable": false,
      "stateMutability": "view",
      "type": "function"
    },
    {
      "constant": true,
      "inputs": [
        {
          "internalType": "uint256",
          "name": "",
          "type": "uint256"
        }
      ],
      "name": "propositionsWaitingEndOfVote",
      "outputs": [
        {
          "internalType": "bool",
          "name": "",
          "type": "bool"
        }
      ],
      "payable": false,
      "stateMutability": "view",
      "type": "function"
    },
    {
      "constant": true,
      "inputs": [
        {
          "internalType": "uint256",
          "name": "",
          "type": "uint256"
        }
      ],
      "name": "propositionsWaitingPromulgation",
      "outputs": [
        {
          "internalType": "bool",
          "name": "",
          "type": "bool"
        }
      ],
      "payable": false,
      "stateMutability": "view",
      "type": "function"
    },
    {
      "constant": true,
      "inputs": [],
      "name": "quorumSize",
      "outputs": [
        {
          "internalType": "uint256",
          "name": "",
          "type": "uint256"
        }
      ],
      "payable": false,
      "stateMutability": "view",
      "type": "function"
    },
    {
      "constant": true,
      "inputs": [],
      "name": "totalPropositionNumber",
      "outputs": [
        {
          "internalType": "uint256",
          "name": "",
          "type": "uint256"
        }
      ],
      "payable": false,
      "stateMutability": "view",
      "type": "function"
    },
    {
      "constant": true,
      "inputs": [],
      "name": "votingPeriodDuration",
      "outputs": [
        {
          "internalType": "uint256",
          "name": "",
          "type": "uint256"
        }
      ],
      "payable": false,
      "stateMutability": "view",
      "type": "function"
    },
    {
      "constant": false,
      "inputs": [
        {
          "internalType": "bytes32",
          "name": "_name",
          "type": "bytes32"
        },
        {
          "internalType": "bytes32",
          "name": "_ipfsHash",
          "type": "bytes32"
        },
        {
          "internalType": "uint8",
          "name": "_hash_function",
          "type": "uint8"
        },
        {
          "internalType": "uint8",
          "name": "_size",
          "type": "uint8"
        }
      ],
      "name": "createProposition",
      "outputs": [
        {
          "internalType": "uint256",
          "name": "propositionNumber",
          "type": "uint256"
        }
      ],
      "payable": true,
      "stateMutability": "payable",
      "type": "function"
    },
    {
      "constant": false,
      "inputs": [
        {
          "internalType": "uint256",
          "name": "_propositionNumber",
          "type": "uint256"
        },
        {
          "internalType": "bool",
          "name": "_acceptProposition",
          "type": "bool"
        }
      ],
      "name": "vote",
      "outputs": [],
      "payable": false,
      "stateMutability": "nonpayable",
      "type": "function"
    },
    {
      "constant": false,
      "inputs": [
        {
          "internalType": "uint256",
          "name": "_propositionNumber",
          "type": "uint256"
        },
        {
          "internalType": "bool",
          "name": "_acceptProposition",
          "type": "bool"
        }
      ],
      "name": "veto",
      "outputs": [],
      "payable": false,
      "stateMutability": "nonpayable",
      "type": "function"
    },
    {
      "constant": false,
      "inputs": [
        {
          "internalType": "uint256",
          "name": "_propositionNumber",
          "type": "uint256"
        }
      ],
      "name": "endPropositionVote",
      "outputs": [
        {
          "internalType": "bool",
          "name": "hasBeenAccepted",
          "type": "bool"
        }
      ],
      "payable": false,
      "stateMutability": "nonpayable",
      "type": "function"
    },
    {
      "constant": false,
      "inputs": [
        {
          "internalType": "uint256",
          "name": "_propositionNumber",
          "type": "uint256"
        }
      ],
      "name": "promulgateProposition",
      "outputs": [],
      "payable": false,
      "stateMutability": "nonpayable",
      "type": "function"
    },
    {
      "constant": false,
      "inputs": [
        {
          "internalType": "uint256",
          "name": "_propositionNumber",
          "type": "uint256"
        }
      ],
      "name": "withDrawPayout",
      "outputs": [],
      "payable": false,
      "stateMutability": "nonpayable",
      "type": "function"
    },
    {
      "constant": true,
      "inputs": [
        {
          "internalType": "uint256",
          "name": "_propositionNumber",
          "type": "uint256"
        }
      ],
      "name": "getPropositionDetails",
      "outputs": [
        {
          "internalType": "address",
          "name": "_candidateAddress",
          "type": "address"
        },
        {
          "internalType": "bytes32",
          "name": "_name",
          "type": "bytes32"
        },
        {
          "internalType": "bytes32",
          "name": "_ipfsHash",
          "type": "bytes32"
        },
        {
          "internalType": "uint8",
          "name": "_hash_function",
          "type": "uint8"
        },
        {
          "internalType": "uint8",
          "name": "_size",
          "type": "uint8"
        }
      ],
      "payable": false,
      "stateMutability": "view",
      "type": "function"
    },
    {
      "constant": true,
      "inputs": [
        {
          "internalType": "uint256",
          "name": "_propositionNumber",
          "type": "uint256"
        }
      ],
      "name": "getPropositionDates",
      "outputs": [
        {
          "internalType": "uint256",
          "name": "_startDate",
          "type": "uint256"
        },
        {
          "internalType": "uint256",
          "name": "_votingPeriodEndDate",
          "type": "uint256"
        },
        {
          "internalType": "uint256",
          "name": "_promulgatorWindowEndDate",
          "type": "uint256"
        }
      ],
      "payable": false,
      "stateMutability": "view",
      "type": "function"
    },
    {
      "constant": true,
      "inputs": [
        {
          "internalType": "uint256",
          "name": "_propositionNumber",
          "type": "uint256"
        }
      ],
      "name": "getPropositionStatus",
      "outputs": [
        {
          "internalType": "bool",
          "name": "_wasCounted",
          "type": "bool"
        },
        {
          "internalType": "bool",
          "name": "_wasEnacted",
          "type": "bool"
        }
      ],
      "payable": false,
      "stateMutability": "view",
      "type": "function"
    },
    {
      "constant": true,
      "inputs": [
        {
          "internalType": "uint256",
          "name": "_propositionNumber",
          "type": "uint256"
        }
      ],
      "name": "getVotedPropositionResults",
      "outputs": [
        {
          "internalType": "uint256",
          "name": "totalVoters",
          "type": "uint256"
        },
        {
          "internalType": "uint256",
          "name": "_totalVoteCount",
          "type": "uint256"
        },
        {
          "internalType": "uint256",
          "name": "_voteFor",
          "type": "uint256"
        },
        {
          "internalType": "uint256",
          "name": "_vetoCount",
          "type": "uint256"
        },
        {
          "internalType": "uint256",
          "name": "_notVetoCount",
          "type": "uint256"
        },
        {
          "internalType": "bool",
          "name": "_wasAccepted",
          "type": "bool"
        }
      ],
      "payable": false,
      "stateMutability": "view",
      "type": "function"
    },
    {
      "constant": true,
      "inputs": [
        {
          "internalType": "address",
          "name": "_userAddress",
          "type": "address"
        }
      ],
      "name": "getPropositionsCreatedByUser",
      "outputs": [
        {
          "internalType": "uint256[]",
          "name": "",
          "type": "uint256[]"
        }
      ],
      "payable": false,
      "stateMutability": "view",
      "type": "function"
    },
    {
      "constant": true,
      "inputs": [
        {
          "internalType": "address",
          "name": "_userAddress",
          "type": "address"
        }
      ],
      "name": "getPropositionsVetoedByUser",
      "outputs": [
        {
          "internalType": "uint256[]",
          "name": "",
          "type": "uint256[]"
        }
      ],
      "payable": false,
      "stateMutability": "view",
      "type": "function"
    },
    {
      "constant": true,
      "inputs": [
        {
          "internalType": "address",
          "name": "_userAddress",
          "type": "address"
        }
      ],
      "name": "getPropositionsPromulgatedByUser",
      "outputs": [
        {
          "internalType": "uint256[]",
          "name": "",
          "type": "uint256[]"
        }
      ],
      "payable": false,
      "stateMutability": "view",
      "type": "function"
    },
    {
      "constant": true,
      "inputs": [
        {
          "internalType": "address",
          "name": "_userAddress",
          "type": "address"
        }
      ],
      "name": "getPropositionsUsedByUser",
      "outputs": [
        {
          "internalType": "uint256[]",
          "name": "",
          "type": "uint256[]"
        }
      ],
      "payable": false,
      "stateMutability": "view",
      "type": "function"
    },
    {
      "constant": true,
      "inputs": [
        {
          "internalType": "uint256",
          "name": "propositionNumber",
          "type": "uint256"
        }
      ],
      "name": "haveIVoted",
      "outputs": [
        {
          "internalType": "bool",
          "name": "IHaveVoted",
          "type": "bool"
        }
      ],
      "payable": false,
      "stateMutability": "view",
      "type": "function"
    }
  ],
  "bytecode": "0x608060405260026000556000600560006101000a81548160ff0219169083151502179055506001600560016101000a81548160ff02191690831515021790555060076006553480156200005157600080fd5b506040516200346538038062003465833981810160405260e08110156200007757600080fd5b810190808051906020019092919080519060200190929190805190602001909291908051906020019092919080519060200190929190805190602001909291908051906020019092919050505086600760006101000a81548173ffffffffffffffffffffffffffffffffffffffff021916908373ffffffffffffffffffffffffffffffffffffffff16021790555085600860006101000a81548173ffffffffffffffffffffffffffffffffffffffff021916908373ffffffffffffffffffffffffffffffffffffffff16021790555084600960006101000a81548173ffffffffffffffffffffffffffffffffffffffff021916908373ffffffffffffffffffffffffffffffffffffffff1602179055506040518060600160405280600960009054906101000a900473ffffffffffffffffffffffffffffffffffffffff1673ffffffffffffffffffffffffffffffffffffffff1673ffffffffffffffffffffffffffffffffffffffff168152602001600860009054906101000a900473ffffffffffffffffffffffffffffffffffffffff1673ffffffffffffffffffffffffffffffffffffffff1673ffffffffffffffffffffffffffffffffffffffff168152602001600760009054906101000a900473ffffffffffffffffffffffffffffffffffffffff1673ffffffffffffffffffffffffffffffffffffffff1673ffffffffffffffffffffffffffffffffffffffff1681525060109060036200029e929190620002d9565b5080600f8190555083600d819055506103e8600a8190555082600b8190555081600c81905550600160008190555050505050505050620003ae565b82805482825590600052602060002090810192821562000355579160200282015b82811115620003545782518260006101000a81548173ffffffffffffffffffffffffffffffffffffffff021916908373ffffffffffffffffffffffffffffffffffffffff16021790555091602001919060010190620002fa565b5b50905062000364919062000368565b5090565b620003ab91905b80821115620003a757600081816101000a81549073ffffffffffffffffffffffffffffffffffffffff0219169055506001016200036f565b5090565b90565b6130a780620003be6000396000f3fe6080604052600436106102045760003560e01c80638967893011610118578063cb20a2fd116100a0578063d85884941161006f578063d858849414610c6c578063e09ecb8714610cdb578063e36f6e4e14610d2e578063e80b30a514610d81578063f2edc61614610db057610204565b8063cb20a2fd14610aeb578063cd43eb1f14610b91578063cd87c2b614610be4578063ce88840314610c0f57610204565b8063ac37af1c116100e7578063ac37af1c146109a4578063adb4018b146109f7578063b5fdb88e14610a22578063b945d9e714610a4d578063c9d27afe14610aa457610204565b806389678930146108ab5780638f3b07a4146109115780639397942e1461093c578063a8bef97a1461097557610204565b80635332eea11161019b5780635e8b72441161016a5780635e8b7244146106d157806364cdd61e146107185780636a95d38d1461076f57806375ff60c4146107e5578063880d3f541461085457610204565b80635332eea1146105c15780635ac85212146106305780635b9d73451461066b5780635dbe4d28146106a657610204565b80632647d7f9116101d75780632647d7f9146104225780633068ef4d1461044d57806337443feb146104785780633c0848ee1461051b57610204565b80630366af3d1461020957806305cf00571461026757806307e7a2241461030d5780630b2e34b0146103b3575b600080fd5b34801561021557600080fd5b506102426004803603602081101561022c57600080fd5b8101908080359060200190929190505050610e2b565b6040518083151515158152602001821515151581526020019250505060405180910390f35b34801561027357600080fd5b506102b66004803603602081101561028a57600080fd5b81019080803573ffffffffffffffffffffffffffffffffffffffff169060200190929190505050610e8f565b6040518080602001828103825283818151815260200191508051906020019060200280838360005b838110156102f95780820151818401526020810190506102de565b505050509050019250505060405180910390f35b34801561031957600080fd5b5061035c6004803603602081101561033057600080fd5b81019080803573ffffffffffffffffffffffffffffffffffffffff169060200190929190505050610f26565b6040518080602001828103825283818151815260200191508051906020019060200280838360005b8381101561039f578082015181840152602081019050610384565b505050509050019250505060405180910390f35b3480156103bf57600080fd5b5061040c600480360360408110156103d657600080fd5b81019080803573ffffffffffffffffffffffffffffffffffffffff16906020019092919080359060200190929190505050610fbd565b6040518082815260200191505060405180910390f35b34801561042e57600080fd5b50610437610feb565b6040518082815260200191505060405180910390f35b34801561045957600080fd5b50610462610ff1565b6040518082815260200191505060405180910390f35b34801561048457600080fd5b506104b16004803603602081101561049b57600080fd5b8101908080359060200190929190505050610ff7565b604051808673ffffffffffffffffffffffffffffffffffffffff1673ffffffffffffffffffffffffffffffffffffffff1681526020018581526020018481526020018360ff1660ff1681526020018260ff1660ff1681526020019550505050505060405180910390f35b34801561052757600080fd5b5061056a6004803603602081101561053e57600080fd5b81019080803573ffffffffffffffffffffffffffffffffffffffff1690602001909291905050506110ea565b6040518080602001828103825283818151815260200191508051906020019060200280838360005b838110156105ad578082015181840152602081019050610592565b505050509050019250505060405180910390f35b3480156105cd57600080fd5b5061061a600480360360408110156105e457600080fd5b81019080803573ffffffffffffffffffffffffffffffffffffffff16906020019092919080359060200190929190505050611181565b6040518082815260200191505060405180910390f35b34801561063c57600080fd5b506106696004803603602081101561065357600080fd5b81019080803590602001909291905050506111af565b005b34801561067757600080fd5b506106a46004803603602081101561068e57600080fd5b81019080803590602001909291905050506114e6565b005b3480156106b257600080fd5b506106bb6118df565b6040518082815260200191505060405180910390f35b3480156106dd57600080fd5b50610716600480360360408110156106f457600080fd5b81019080803590602001909291908035151590602001909291905050506118e5565b005b34801561072457600080fd5b5061072d611bea565b604051808273ffffffffffffffffffffffffffffffffffffffff1673ffffffffffffffffffffffffffffffffffffffff16815260200191505060405180910390f35b34801561077b57600080fd5b506107a86004803603602081101561079257600080fd5b8101908080359060200190929190505050611c10565b6040518087815260200186815260200185815260200184815260200183815260200182151515158152602001965050505050505060405180910390f35b3480156107f157600080fd5b5061083e6004803603604081101561080857600080fd5b81019080803573ffffffffffffffffffffffffffffffffffffffff16906020019092919080359060200190929190505050611d2a565b6040518082815260200191505060405180910390f35b34801561086057600080fd5b50610869611d58565b604051808273ffffffffffffffffffffffffffffffffffffffff1673ffffffffffffffffffffffffffffffffffffffff16815260200191505060405180910390f35b6108fb600480360360808110156108c157600080fd5b810190808035906020019092919080359060200190929190803560ff169060200190929190803560ff169060200190929190505050611d7e565b6040518082815260200191505060405180910390f35b34801561091d57600080fd5b506109266123e6565b6040518082815260200191505060405180910390f35b34801561094857600080fd5b506109516123ec565b60405180848152602001838152602001828152602001935050505060405180910390f35b34801561098157600080fd5b5061098a612404565b604051808215151515815260200191505060405180910390f35b3480156109b057600080fd5b506109dd600480360360208110156109c757600080fd5b8101908080359060200190929190505050612417565b604051808215151515815260200191505060405180910390f35b348015610a0357600080fd5b50610a0c612489565b6040518082815260200191505060405180910390f35b348015610a2e57600080fd5b50610a3761248f565b6040518082815260200191505060405180910390f35b348015610a5957600080fd5b50610a62612495565b604051808273ffffffffffffffffffffffffffffffffffffffff1673ffffffffffffffffffffffffffffffffffffffff16815260200191505060405180910390f35b348015610ab057600080fd5b50610ae960048036036040811015610ac757600080fd5b81019080803590602001909291908035151590602001909291905050506124bb565b005b348015610af757600080fd5b50610b3a60048036036020811015610b0e57600080fd5b81019080803573ffffffffffffffffffffffffffffffffffffffff1690602001909291905050506127b6565b6040518080602001828103825283818151815260200191508051906020019060200280838360005b83811015610b7d578082015181840152602081019050610b62565b505050509050019250505060405180910390f35b348015610b9d57600080fd5b50610bca60048036036020811015610bb457600080fd5b810190808035906020019092919050505061284d565b604051808215151515815260200191505060405180910390f35b348015610bf057600080fd5b50610bf961287e565b6040518082815260200191505060405180910390f35b348015610c1b57600080fd5b50610c4860048036036020811015610c3257600080fd5b8101908080359060200190929190505050612884565b60405180848152602001838152602001828152602001935050505060405180910390f35b348015610c7857600080fd5b50610cc560048036036040811015610c8f57600080fd5b81019080803573ffffffffffffffffffffffffffffffffffffffff169060200190929190803590602001909291905050506128ff565b6040518082815260200191505060405180910390f35b348015610ce757600080fd5b50610d1460048036036020811015610cfe57600080fd5b810190808035906020019092919050505061292d565b604051808215151515815260200191505060405180910390f35b348015610d3a57600080fd5b50610d6760048036036020811015610d5157600080fd5b8101908080359060200190929190505050612e7b565b604051808215151515815260200191505060405180910390f35b348015610d8d57600080fd5b50610d96612eac565b604051808215151515815260200191505060405180910390f35b348015610dbc57600080fd5b50610de960048036036020811015610dd357600080fd5b8101908080359060200190929190505050612ebf565b604051808273ffffffffffffffffffffffffffffffffffffffff1673ffffffffffffffffffffffffffffffffffffffff16815260200191505060405180910390f35b60008060118381548110610e3b57fe5b90600052602060002090600f020160030160019054906101000a900460ff1660118481548110610e6757fe5b90600052602060002090600f020160030160029054906101000a900460ff1691509150915091565b6060601560008373ffffffffffffffffffffffffffffffffffffffff1673ffffffffffffffffffffffffffffffffffffffff168152602001908152602001600020805480602002602001604051908101604052809291908181526020018280548015610f1a57602002820191906000526020600020905b815481526020019060010190808311610f06575b50505050509050919050565b6060601760008373ffffffffffffffffffffffffffffffffffffffff1673ffffffffffffffffffffffffffffffffffffffff168152602001908152602001600020805480602002602001604051908101604052809291908181526020018280548015610fb157602002820191906000526020600020905b815481526020019060010190808311610f9d575b50505050509050919050565b60146020528160005260406000208181548110610fd657fe5b90600052602060002001600091509150505481565b60065481565b600d5481565b60008060008060006011868154811061100c57fe5b90600052602060002090600f020160090160009054906101000a900473ffffffffffffffffffffffffffffffffffffffff166011878154811061104b57fe5b90600052602060002090600f0201600a01546011888154811061106a57fe5b90600052602060002090600f0201600b01546011898154811061108957fe5b90600052602060002090600f0201600c0160009054906101000a900460ff1660118a815481106110b557fe5b90600052602060002090600f0201600c0160019054906101000a900460ff168494509450945094509450945091939590929450565b6060601660008373ffffffffffffffffffffffffffffffffffffffff1673ffffffffffffffffffffffffffffffffffffffff16815260200190815260200160002080548060200260200160405190810160405280929190818152602001828054801561117557602002820191906000526020600020905b815481526020019060010190808311611161575b50505050509050919050565b6017602052816000526040600020818154811061119a57fe5b90600052602060002001600091509150505481565b601181815481106111bc57fe5b90600052602060002090600f020160030160029054906101000a900460ff166111e457600080fd5b601181815481106111f157fe5b90600052602060002090600f020160000160003373ffffffffffffffffffffffffffffffffffffffff1673ffffffffffffffffffffffffffffffffffffffff16815260200190815260200160002060009054906101000a900460ff1661125657600080fd5b6011818154811061126357fe5b90600052602060002090600f020160030160009054906101000a900460ff1615156011828154811061129157fe5b90600052602060002090600f020160010160003373ffffffffffffffffffffffffffffffffffffffff1673ffffffffffffffffffffffffffffffffffffffff16815260200190815260200160002060009054906101000a900460ff161515146112f957600080fd5b60006011828154811061130857fe5b90600052602060002090600f020160000160003373ffffffffffffffffffffffffffffffffffffffff1673ffffffffffffffffffffffffffffffffffffffff16815260200190815260200160002060006101000a81548160ff0219169083151502179055506000600760009054906101000a900473ffffffffffffffffffffffffffffffffffffffff1690508073ffffffffffffffffffffffffffffffffffffffff1663117de2fd33601185815481106113be57fe5b90600052602060002090600f0201600e01546040518363ffffffff1660e01b8152600401808373ffffffffffffffffffffffffffffffffffffffff1673ffffffffffffffffffffffffffffffffffffffff16815260200182815260200192505050600060405180830381600087803b15801561143957600080fd5b505af115801561144d573d6000803e3d6000fd5b505050507f2e4d3189c330c7bfcce65176d6c0b1b49698fd9638f1dbba37a5bfb7e55a283333836011858154811061148157fe5b90600052602060002090600f0201600e0154604051808473ffffffffffffffffffffffffffffffffffffffff1673ffffffffffffffffffffffffffffffffffffffff168152602001838152602001828152602001935050505060405180910390a15050565b601181815481106114f357fe5b90600052602060002090600f020160030160029054906101000a900460ff161561151c57600080fd5b6011818154811061152957fe5b90600052602060002090600f020160030160019054906101000a900460ff1661155157600080fd5b600c54600b546011838154811061156457fe5b90600052602060002090600f02016002015401014210156115ab576115aa600960009054906101000a900473ffffffffffffffffffffffffffffffffffffffff16612efb565b5b601181815481106115b857fe5b90600052602060002090600f020160030160009054906101000a900460ff166115e057600080fd5b6000600760009054906101000a900473ffffffffffffffffffffffffffffffffffffffff1690508073ffffffffffffffffffffffffffffffffffffffff1663a08c3cb56011848154811061163057fe5b90600052602060002090600f020160090160009054906101000a900473ffffffffffffffffffffffffffffffffffffffff166011858154811061166f57fe5b90600052602060002090600f0201600b01546011868154811061168e57fe5b90600052602060002090600f0201600c0160009054906101000a900460ff16601187815481106116ba57fe5b90600052602060002090600f0201600c0160019054906101000a900460ff166040518563ffffffff1660e01b8152600401808573ffffffffffffffffffffffffffffffffffffffff1673ffffffffffffffffffffffffffffffffffffffff1681526020018481526020018360ff1660ff1681526020018260ff1660ff168152602001945050505050602060405180830381600087803b15801561175c57600080fd5b505af1158015611770573d6000803e3d6000fd5b505050506040513d602081101561178657600080fd5b8101908080519060200190929190505050506001601183815481106117a757fe5b90600052602060002090600f020160030160026101000a81548160ff0219169083151502179055506000601383815481106117de57fe5b90600052602060002090602091828204019190066101000a81548160ff021916908315150217905550601760003373ffffffffffffffffffffffffffffffffffffffff1673ffffffffffffffffffffffffffffffffffffffff1681526020019081526020016000208290806001815401808255809150509060018203906000526020600020016000909192909190915055507f6488668a970b37da2333b4e2f299369ec2545de1cb7772a523818f23e0e5f8b43383604051808373ffffffffffffffffffffffffffffffffffffffff1673ffffffffffffffffffffffffffffffffffffffff1681526020018281526020019250505060405180910390a15050565b60005481565b601182815481106118f257fe5b90600052602060002090600f020160000160003373ffffffffffffffffffffffffffffffffffffffff1673ffffffffffffffffffffffffffffffffffffffff16815260200190815260200160002060009054906101000a900460ff161561195857600080fd5b611983600860009054906101000a900473ffffffffffffffffffffffffffffffffffffffff16612efb565b6011828154811061199057fe5b90600052602060002090600f020160030160019054906101000a900460ff16156119b957600080fd5b80156119f1576001601183815481106119ce57fe5b90600052602060002090600f020160070160008282540192505081905550611a1f565b600160118381548110611a0057fe5b90600052602060002090600f0201600601600082825401925050819055505b600160118381548110611a2e57fe5b90600052602060002090600f020160000160003373ffffffffffffffffffffffffffffffffffffffff1673ffffffffffffffffffffffffffffffffffffffff16815260200190815260200160002060006101000a81548160ff0219169083151502179055508060118381548110611aa157fe5b90600052602060002090600f020160010160003373ffffffffffffffffffffffffffffffffffffffff1673ffffffffffffffffffffffffffffffffffffffff16815260200190815260200160002060006101000a81548160ff021916908315150217905550601660003373ffffffffffffffffffffffffffffffffffffffff1673ffffffffffffffffffffffffffffffffffffffff1681526020019081526020016000208290806001815401808255809150509060018203906000526020600020016000909192909190915055507f784f91034367c5f65754729da97be44b2d8e37d9ccfd9f568442de3a84f3fe1f338383604051808473ffffffffffffffffffffffffffffffffffffffff1673ffffffffffffffffffffffffffffffffffffffff16815260200183815260200182151515158152602001935050505060405180910390a15050565b600860009054906101000a900473ffffffffffffffffffffffffffffffffffffffff1681565b60008060008060008060118781548110611c2657fe5b90600052602060002090600f020160030160019054906101000a900460ff16611c4e57600080fd5b60118781548110611c5b57fe5b90600052602060002090600f02016005015460118881548110611c7a57fe5b90600052602060002090600f02016005015460118981548110611c9957fe5b90600052602060002090600f02016004015460118a81548110611cb857fe5b90600052602060002090600f02016006015460118b81548110611cd757fe5b90600052602060002090600f02016007015460118c81548110611cf657fe5b90600052602060002090600f020160030160009054906101000a900460ff1695509550955095509550955091939550919395565b60156020528160005260406000208181548110611d4357fe5b90600052602060002001600091509150505481565b600960009054906101000a900473ffffffffffffffffffffffffffffffffffffffff1681565b600080600760009054906101000a900473ffffffffffffffffffffffffffffffffffffffff16905060008173ffffffffffffffffffffffffffffffffffffffff16635549ea51336040518263ffffffff1660e01b8152600401808273ffffffffffffffffffffffffffffffffffffffff1673ffffffffffffffffffffffffffffffffffffffff16815260200191505060206040518083038186803b158015611e2557600080fd5b505afa158015611e39573d6000803e3d6000fd5b505050506040513d6020811015611e4f57600080fd5b810190808051906020019092919050505014611e6a57600080fd5b60008173ffffffffffffffffffffffffffffffffffffffff1663bbea06196040518163ffffffff1660e01b8152600401604080518083038186803b158015611eb157600080fd5b505afa158015611ec5573d6000803e3d6000fd5b505050506040513d6040811015611edb57600080fd5b81019080805190602001909291908051906020019092919050505091505080600a54023411611f0957600080fd5b611f11612fcd565b6064600d54830281611f1f57fe5b048161010001818152505060008161010001511415611f45576001816101000181815250505b600092503381610120019073ffffffffffffffffffffffffffffffffffffffff16908173ffffffffffffffffffffffffffffffffffffffff168152505086816101600181815250508581610180019060ff16908160ff168152505084816101a0019060ff16908160ff1681525050878161014001818152505034816101c00181815250504281600001818152505060008160600190151590811515815250506000816040019015159081151581525050600081602001901515908115158152505060008160a0018181525050600081608001818152505060008160c001818152505060008160e00181815250506000816101e00181815250506011819080600181540180825580915050906001820390600052602060002090600f0201600090919290919091506000820151816002015560208201518160030160006101000a81548160ff02191690831515021790555060408201518160030160016101000a81548160ff02191690831515021790555060608201518160030160026101000a81548160ff0219169083151502179055506080820151816004015560a0820151816005015560c0820151816006015560e0820151816007015561010082015181600801556101208201518160090160006101000a81548173ffffffffffffffffffffffffffffffffffffffff021916908373ffffffffffffffffffffffffffffffffffffffff16021790555061014082015181600a015561016082015181600b015561018082015181600c0160006101000a81548160ff021916908360ff1602179055506101a082015181600c0160016101000a81548160ff021916908360ff1602179055506101c082015181600d01556101e082015181600e01555050506121cc612fcd565b905060016011805490500393506001600e60008282540192505081905550601460003373ffffffffffffffffffffffffffffffffffffffff1673ffffffffffffffffffffffffffffffffffffffff16815260200190815260200160002084908060018154018082558091505090600182039060005260206000200160009091929091909150555060126001908060018154018082558091505090600182039060005260206000209060209182820401919006909192909190916101000a81548160ff0219169083151502179055505060136000908060018154018082558091505090600182039060005260206000209060209182820401919006909192909190916101000a81548160ff021916908315150217905550507f362fe28119932e029adb55bc2d8adcd4902c1f751a356d510fc4492728b1112d3334898989604051808673ffffffffffffffffffffffffffffffffffffffff1673ffffffffffffffffffffffffffffffffffffffff1681526020018581526020018481526020018360ff1660ff1681526020018260ff1660ff1681526020019550505050505060405180910390a1600760009054906101000a900473ffffffffffffffffffffffffffffffffffffffff1673ffffffffffffffffffffffffffffffffffffffff166108fc349081150290604051600060405180830381858888f193505050501580156123da573d6000803e3d6000fd5b50505050949350505050565b600e5481565b60028060000154908060010154908060020154905083565b600560009054906101000a900460ff1681565b60006011828154811061242657fe5b90600052602060002090600f020160000160003373ffffffffffffffffffffffffffffffffffffffff1673ffffffffffffffffffffffffffffffffffffffff16815260200190815260200160002060009054906101000a900460ff169050919050565b600f5481565b600b5481565b600760009054906101000a900473ffffffffffffffffffffffffffffffffffffffff1681565b6124e6600760009054906101000a900473ffffffffffffffffffffffffffffffffffffffff16612efb565b601182815481106124f357fe5b90600052602060002090600f020160000160003373ffffffffffffffffffffffffffffffffffffffff1673ffffffffffffffffffffffffffffffffffffffff16815260200190815260200160002060009054906101000a900460ff161561255957600080fd5b6011828154811061256657fe5b90600052602060002090600f020160030160019054906101000a900460ff161561258f57600080fd5b6001151581151514156125ca576001601183815481106125ab57fe5b90600052602060002090600f0201600401600082825401925050819055505b6001601183815481106125d957fe5b90600052602060002090600f020160000160003373ffffffffffffffffffffffffffffffffffffffff1673ffffffffffffffffffffffffffffffffffffffff16815260200190815260200160002060006101000a81548160ff021916908315150217905550806011838154811061264c57fe5b90600052602060002090600f020160010160003373ffffffffffffffffffffffffffffffffffffffff1673ffffffffffffffffffffffffffffffffffffffff16815260200190815260200160002060006101000a81548160ff0219169083151502179055506001601183815481106126c057fe5b90600052602060002090600f020160050160008282540192505081905550601560003373ffffffffffffffffffffffffffffffffffffffff1673ffffffffffffffffffffffffffffffffffffffff1681526020019081526020016000208290806001815401808255809150509060018203906000526020600020016000909192909190915055507fd1faddd599b0d6b58c83de71d7ff5395895b5891894dcd37f2482f33b2a1c43d3383604051808373ffffffffffffffffffffffffffffffffffffffff1673ffffffffffffffffffffffffffffffffffffffff1681526020018281526020019250505060405180910390a15050565b6060601460008373ffffffffffffffffffffffffffffffffffffffff1673ffffffffffffffffffffffffffffffffffffffff16815260200190815260200160002080548060200260200160405190810160405280929190818152602001828054801561284157602002820191906000526020600020905b81548152602001906001019080831161282d575b50505050509050919050565b6013818154811061285a57fe5b9060005260206000209060209182820401919006915054906101000a900460ff1681565b600c5481565b60008060006011848154811061289657fe5b90600052602060002090600f020160020154600b54601186815481106128b857fe5b90600052602060002090600f02016002015401600c54600b54601188815481106128de57fe5b90600052602060002090600f02016002015401019250925092509193909250565b6016602052816000526040600020818154811061291857fe5b90600052602060002001600091509150505481565b60006011828154811061293c57fe5b90600052602060002090600f020160030160019054906101000a900460ff161561296557600080fd5b42600b546011848154811061297657fe5b90600052602060002090600f020160020154011061299357600080fd5b601182815481106129a057fe5b90600052602060002090600f020160080154601183815481106129bf57fe5b90600052602060002090600f02016005015410156129dc57600080fd5b6000600860009054906101000a900473ffffffffffffffffffffffffffffffffffffffff16905060008173ffffffffffffffffffffffffffffffffffffffff1663bbea06196040518163ffffffff1660e01b8152600401604080518083038186803b158015612a4a57600080fd5b505afa158015612a5e573d6000803e3d6000fd5b505050506040513d6040811015612a7457600080fd5b810190808051906020019092919080519060200190929190505050915050600091508060118581548110612aa457fe5b90600052602060002090600f02016006015410612b835760009250600160118581548110612ace57fe5b90600052602060002090600f020160030160026101000a81548160ff02191690831515021790555060118481548110612b0357fe5b90600052602060002090600f02016004015460118581548110612b2257fe5b90600052602060002090600f0201600501540360118581548110612b4257fe5b90600052602060002090600f0201600d015481612b5b57fe5b0460118581548110612b6957fe5b90600052602060002090600f0201600e0181905550612d29565b8060118581548110612b9157fe5b90600052602060002090600f020160070154101580612bee575060118481548110612bb857fe5b90600052602060002090600f020160050154600260118681548110612bd957fe5b90600052602060002090600f02016004015402115b15612c64576001925060118481548110612c0457fe5b90600052602060002090600f02016004015460118581548110612c2357fe5b90600052602060002090600f0201600d015481612c3c57fe5b0460118581548110612c4a57fe5b90600052602060002090600f0201600e0181905550612d28565b60009250600160118581548110612c7757fe5b90600052602060002090600f020160030160026101000a81548160ff02191690831515021790555060118481548110612cac57fe5b90600052602060002090600f02016004015460118581548110612ccb57fe5b90600052602060002090600f0201600501540360118581548110612ceb57fe5b90600052602060002090600f0201600d015481612d0457fe5b0460118581548110612d1257fe5b90600052602060002090600f0201600e01819055505b5b600160118581548110612d3857fe5b90600052602060002090600f020160030160016101000a81548160ff0219169083151502179055508260118581548110612d6e57fe5b90600052602060002090600f020160030160006101000a81548160ff021916908315150217905550600060128581548110612da557fe5b90600052602060002090602091828204019190066101000a81548160ff021916908315150217905550600160138581548110612ddd57fe5b90600052602060002090602091828204019190066101000a81548160ff0219169083151502179055507f297f1f08d2ef8c90272f7ee3e1d4272015a96cdff8a252b60547b9e432e723603385604051808373ffffffffffffffffffffffffffffffffffffffff1673ffffffffffffffffffffffffffffffffffffffff1681526020018281526020019250505060405180910390a18292505050919050565b60128181548110612e8857fe5b9060005260206000209060209182820401919006915054906101000a900460ff1681565b600560019054906101000a900460ff1681565b60108181548110612ecc57fe5b906000526020600020016000915054906101000a900473ffffffffffffffffffffffffffffffffffffffff1681565b600081905060008173ffffffffffffffffffffffffffffffffffffffff16635549ea51336040518263ffffffff1660e01b8152600401808273ffffffffffffffffffffffffffffffffffffffff1673ffffffffffffffffffffffffffffffffffffffff16815260200191505060206040518083038186803b158015612f7f57600080fd5b505afa158015612f93573d6000803e3d6000fd5b505050506040513d6020811015612fa957600080fd5b81019080805190602001909291905050501415612fc557600080fd5b600091505050565b604051806102000160405280600081526020016000151581526020016000151581526020016000151581526020016000815260200160008152602001600081526020016000815260200160008152602001600073ffffffffffffffffffffffffffffffffffffffff1681526020016000801916815260200160008019168152602001600060ff168152602001600060ff1681526020016000815260200160008152509056fea265627a7a72315820293e73e5a6e559d965a8d1755f6059ab3c3d5ca4b6b41f29740dce627ff00a7864736f6c634300050c0032",
  "source": "pragma solidity >=0.4.22 <0.6.0;\r\n\r\n// Standard contract for promulgation of a norm\r\n\r\nimport \"../standardProcedure.sol\";\r\nimport \"../Organ.sol\";\r\n\r\n\r\ncontract normsCooptationProcedure is Procedure{\r\n    // 1: Cyclical many to one election (Presidential Election)\r\n    // 2: Cyclical many to many election (Moderators Election)\r\n    // 3: Simple norm nomination \r\n    // 4: Simple admins and master nomination\r\n    // 5: Vote on Norms \r\n    // 6: Vote on masters and admins \r\n    // 7: Norms cooptation\r\n    int public procedureTypeNumber = 7;\r\n\r\n    // // Storage for procedure name\r\n    // string public procedureName;\r\n    // // Gathering connected organs for easier DAO mapping\r\n    // address[] public linkedOrgans;\r\n\r\n    // Which organ will be affected\r\n    address payable public  membersOrganContract;\r\n\r\n    // Organ in which the voters with veto power are registered\r\n    address payable public membersWithVetoOrganContract;\r\n\r\n    // Organ in which final promulgators are listed\r\n    address payable public finalPromulgatorsOrganContract;\r\n\r\n\r\n    // ############## Variable to set up when declaring the procedure\r\n    // ####### Vote creation process\r\n    uint minimumDepositSize;\r\n\r\n    // ####### Voting process\r\n    // Time for participant to vote\r\n    uint public votingPeriodDuration;\r\n\r\n    // Time for the final promulgators to promulgate\r\n    uint public promulgationPeriodDuration;\r\n\r\n    // ####### Resolution process\r\n    // Minimum participation to validate election\r\n    uint public quorumSize;\r\n\r\n    // Variable of the procedure to keep track of propositions\r\n    uint public totalPropositionNumber;\r\n\r\n    bytes32 public procedureName;\r\n    address[] public linkedOrgans;\r\n\r\n    // Proposition structure\r\n    struct Proposition {\r\n        // **** Voting variables\r\n        // Mapping to track if each user voted\r\n        mapping(address => bool) hasUserVoted;\r\n        // Mapping to track user votes\r\n        mapping(address => bool) whatHasUserVoted;\r\n        // Time of proposition creation\r\n        uint startDate;\r\n        // Was the proposition accepted?\r\n        bool wasAccepted;\r\n        // Was the proposition counted?\r\n        bool wasCounted;\r\n        // Was the proposition acted upon?\r\n        bool wasEnacted;\r\n        // How many people voted YES?\r\n        uint voteFor;\r\n        // How many people voted?\r\n        uint totalVoteCount;\r\n        // Was the proposition vetoed by the Vetoing members?\r\n        uint vetoCount;\r\n        // Was the proposition validated by the Vetoing members?\r\n        uint notVetoCount;\r\n        // How many members need to vote to enact proposition?\r\n        uint requiredQuorum;\r\n        // Proposition details\r\n        address payable candidateAddress;\r\n        bytes32 name;\r\n        bytes32 ipfsHash; // ID of proposal on IPFS\r\n        uint8 hash_function;\r\n        uint8 size;\r\n        uint deposit;\r\n        uint payoutPerUser;\r\n    }\r\n\r\n\r\n    // A dynamically-sized array of `Proposition` structs.\r\n    Proposition[] propositions;\r\n\r\n    // Dynamic size array of status of propositions\r\n    bool[] public propositionsWaitingEndOfVote;\r\n    bool[] public propositionsWaitingPromulgation;\r\n\r\n    // Mapping each proposition to the user creating it\r\n    mapping (address => uint[]) public propositionToUser;    \r\n\r\n    // Mapping each proposition to the user who participated\r\n    mapping (address => uint[]) public propositionToVoter;\r\n\r\n    // Mapping each proposition to the user vetoing it\r\n    mapping (address => uint[]) public propositionToVetoer;\r\n\r\n    // Mapping each proposition to the user promulgating it\r\n    mapping (address => uint[]) public propositionToPromulgator;\r\n\r\n    \r\n\r\n    // Events\r\n    event createPropositionEvent(address _candidateAddress, uint _deposit, bytes32 _ipfsHash, uint8 _hash_function, uint8 _size);\r\n    event voteOnProposition(address _from, uint _propositionNumber);\r\n    event vetoProposition(address _from, uint _propositionNumber, bool _decision);\r\n    event countVotes(address _from, uint _propositionNumber);\r\n    event promulgatePropositionEvent(address _from, uint _propositionNumber);\r\n    event withdrawal(address _from, uint _propositionNumber, uint _value);\r\n\r\n    constructor(address payable _membersOrganContract, address payable _membersWithVetoOrganContract, address payable _finalPromulgatorsOrganContract, uint _quorumSize, uint _votingPeriodDuration, uint _promulgationPeriodDuration, bytes32 _name) \r\n    public \r\n    {\r\n\r\n    membersOrganContract = _membersOrganContract;\r\n    membersWithVetoOrganContract = _membersWithVetoOrganContract;\r\n    finalPromulgatorsOrganContract = _finalPromulgatorsOrganContract; \r\n    linkedOrgans = [finalPromulgatorsOrganContract,membersWithVetoOrganContract,membersOrganContract];\r\n\r\n    // Procedure name \r\n    procedureName = _name;\r\n    \r\n    quorumSize = _quorumSize;\r\n    minimumDepositSize = 1000;\r\n    // votingPeriodDuration = 3 minutes;\r\n    // promulgationPeriodDuration = 3 minutes;\r\n\r\n    votingPeriodDuration = _votingPeriodDuration;\r\n    promulgationPeriodDuration = _promulgationPeriodDuration;\r\n\r\n\r\n    kelsenVersionNumber = 1;\r\n\r\n    }\r\n\r\n    /// Create a new ballot to choose one of `proposalNames`.\r\n    function createProposition(bytes32 _name, bytes32 _ipfsHash, uint8 _hash_function, uint8 _size) public payable returns (uint propositionNumber){\r\n\r\n            // Checking that the proposition is not made on an existing member\r\n            Organ membersOrgan = Organ(membersOrganContract);\r\n            require(membersOrgan.getAddressPositionInNorm(msg.sender) == 0);\r\n            ( ,uint voterNumber) = membersOrgan.organInfos();\r\n            // Check that deposit size is enough\r\n            require(msg.value > minimumDepositSize * voterNumber);\r\n\r\n            // Creating new proposition \r\n            Proposition memory newProposition;\r\n            \r\n            // Calculating required quorum\r\n            newProposition.requiredQuorum = voterNumber*quorumSize/100;\r\n            if (newProposition.requiredQuorum == 0){\r\n                newProposition.requiredQuorum = 1;\r\n            }\r\n            delete membersOrgan;\r\n\r\n            \r\n            newProposition.candidateAddress = msg.sender;\r\n            newProposition.ipfsHash = _ipfsHash;\r\n            newProposition.hash_function = _hash_function;\r\n            newProposition.size = _size;\r\n            newProposition.name = _name;\r\n            newProposition.deposit = msg.value;\r\n\r\n            // Instanciating proposition\r\n\r\n            newProposition.startDate = now;\r\n            newProposition.wasEnacted = false;\r\n            newProposition.wasCounted = false;\r\n            newProposition.wasAccepted = false;\r\n            newProposition.totalVoteCount = 0;\r\n            newProposition.voteFor = 0;\r\n            newProposition.vetoCount = 0;\r\n            newProposition.notVetoCount = 0;\r\n            newProposition.payoutPerUser = 0;\r\n\r\n            // newProposition.voteAgainst = 0;\r\n            propositions.push(newProposition);\r\n            delete newProposition;\r\n\r\n            propositionNumber = propositions.length - 1;\r\n\r\n            // Tracking propositions being deposed\r\n            totalPropositionNumber += 1;\r\n            propositionToUser[msg.sender].push(propositionNumber);\r\n            propositionsWaitingEndOfVote.push(true);\r\n            propositionsWaitingPromulgation.push(false);\r\n\r\n            // proposition creation event\r\n            emit createPropositionEvent(msg.sender, msg.value, _ipfsHash, _hash_function, _size);\r\n\r\n            // Sending deposit to organ\r\n            membersOrganContract.transfer(msg.value);\r\n    }\r\n\r\n    // Vote for a proposition\r\n    function vote(uint _propositionNumber, bool _acceptProposition) public {\r\n\r\n        // Check the voter is able to vote on a proposition\r\n        procedureLibrary.isAllowed(membersOrganContract);\r\n        \r\n        // Check if voter already voted\r\n        require(!propositions[_propositionNumber].hasUserVoted[msg.sender]);\r\n\r\n        // Check if vote is still active\r\n        require(!propositions[_propositionNumber].wasCounted);\r\n\r\n        // Adding vote\r\n        if(_acceptProposition == true)\r\n        {propositions[_propositionNumber].voteFor += 1;}\r\n\r\n        // Log that user voted\r\n        propositions[_propositionNumber].hasUserVoted[msg.sender] = true;\r\n\r\n        // Log what the user voted\r\n        propositions[_propositionNumber].whatHasUserVoted[msg.sender] = _acceptProposition;\r\n        \r\n        // Adding vote count\r\n        propositions[_propositionNumber].totalVoteCount += 1;\r\n\r\n        // Log that user voted on this proposition\r\n        propositionToVoter[msg.sender].push(_propositionNumber);\r\n\r\n        // create vote event\r\n        emit voteOnProposition(msg.sender, _propositionNumber);\r\n    }\r\n\r\n        /// Veto a candidate\r\n    function veto(uint _propositionNumber, bool _acceptProposition) public {\r\n\r\n        // Check if voter already voted\r\n        require(!propositions[_propositionNumber].hasUserVoted[msg.sender]);\r\n\r\n        // Check the voter is able to veto the proposition\r\n        procedureLibrary.isAllowed(membersWithVetoOrganContract);\r\n        \r\n        // Check if vote is still active\r\n        require(!propositions[_propositionNumber].wasCounted);\r\n\r\n        // Log decision\r\n        if (_acceptProposition) {\r\n            propositions[_propositionNumber].notVetoCount += 1;\r\n        }\r\n       else {\r\n            propositions[_propositionNumber].vetoCount += 1;\r\n       }\r\n\r\n       // Log that user voted\r\n        propositions[_propositionNumber].hasUserVoted[msg.sender] = true;\r\n\r\n        // Log what the user voted\r\n        propositions[_propositionNumber].whatHasUserVoted[msg.sender] = _acceptProposition;\r\n\r\n        // Log that user vetoed this proposition\r\n        propositionToVetoer[msg.sender].push(_propositionNumber);\r\n\r\n        //  Create veto event\r\n        emit vetoProposition(msg.sender, _propositionNumber, _acceptProposition);\r\n\r\n    }\r\n\r\n    // The vote is finished and we close it. This does not trigger the outcome of the vote. PromulgateProposition() should be called after\r\n    function endPropositionVote(uint _propositionNumber) public returns (bool hasBeenAccepted) {\r\n        // We check if the vote was already counted\r\n        require(!propositions[_propositionNumber].wasCounted);\r\n\r\n        // Checking that the vote can be closed\r\n        require(propositions[_propositionNumber].startDate + votingPeriodDuration < now);\r\n\r\n        // Checking that the vote received enough votes to be closed\r\n        require((propositions[_propositionNumber].totalVoteCount >= propositions[_propositionNumber].requiredQuorum));\r\n\r\n        // Checking if members with vetoed blocked/forced the proposition\r\n        Organ membersWithVetoOrgan = Organ(membersWithVetoOrganContract);\r\n\r\n        ( ,uint vetoerNumber) = membersWithVetoOrgan.organInfos();\r\n        delete membersWithVetoOrgan;\r\n        // We check that Quorum was obtained and that a majority of votes were cast in favor of the proposition\r\n        if (propositions[_propositionNumber].vetoCount >= vetoerNumber)\r\n            {hasBeenAccepted=false;\r\n                propositions[_propositionNumber].wasEnacted = true;\r\n                propositions[_propositionNumber].payoutPerUser = propositions[_propositionNumber].deposit/(propositions[_propositionNumber].totalVoteCount-propositions[_propositionNumber].voteFor);}\r\n        else if ((propositions[_propositionNumber].notVetoCount >= vetoerNumber) || (propositions[_propositionNumber].voteFor*2 > propositions[_propositionNumber].totalVoteCount) )\r\n            {hasBeenAccepted = true;\r\n            propositions[_propositionNumber].payoutPerUser = propositions[_propositionNumber].deposit/propositions[_propositionNumber].voteFor;}\r\n        else \r\n            {hasBeenAccepted=false;\r\n            propositions[_propositionNumber].wasEnacted = true;\r\n            propositions[_propositionNumber].payoutPerUser = propositions[_propositionNumber].deposit/(propositions[_propositionNumber].totalVoteCount-propositions[_propositionNumber].voteFor);}\r\n\r\n\r\n        // ############## Updating ballot values if vote concluded\r\n        propositions[_propositionNumber].wasCounted = true;\r\n        propositions[_propositionNumber].wasAccepted = hasBeenAccepted;\r\n        propositionsWaitingEndOfVote[_propositionNumber] = false;\r\n        propositionsWaitingPromulgation[_propositionNumber] = true;\r\n\r\n        // Calculating payout per user\r\n\r\n\r\n        emit countVotes(msg.sender, _propositionNumber);\r\n\r\n        return hasBeenAccepted;\r\n    }\r\n\r\n    function promulgateProposition(uint _propositionNumber) public\r\n    {\r\n        // Checking if ballot was already enforced\r\n        require(!propositions[_propositionNumber].wasEnacted );\r\n\r\n        // Checking the ballot was counted\r\n        require(propositions[_propositionNumber].wasCounted);\r\n\r\n        // If promulgation is happening before endOfVote + promulgationPeriodDuration, check caller is an official promulgator\r\n        if (now < propositions[_propositionNumber].startDate + votingPeriodDuration + promulgationPeriodDuration)\r\n            {        \r\n            // Check the voter is able to promulgate the proposition\r\n            procedureLibrary.isAllowed(finalPromulgatorsOrganContract);\r\n            }\r\n\r\n        // Checking the ballot was accepted\r\n        require(propositions[_propositionNumber].wasAccepted);\r\n\r\n        // We initiate the Organ interface to add a norm\r\n\r\n        Organ membersOrgan = Organ(membersOrganContract);\r\n         // Adding a new norm\r\n        membersOrgan.addNorm(propositions[_propositionNumber].candidateAddress, propositions[_propositionNumber].ipfsHash, propositions[_propositionNumber].hash_function, propositions[_propositionNumber].size );\r\n                \r\n            \r\n\r\n        \r\n        propositions[_propositionNumber].wasEnacted = true;\r\n        propositionsWaitingPromulgation[_propositionNumber] = false;\r\n        propositionToPromulgator[msg.sender].push(_propositionNumber);\r\n        // promulgation event\r\n        emit promulgatePropositionEvent(msg.sender, _propositionNumber);\r\n\r\n    }\r\n\r\n     function withDrawPayout(uint _propositionNumber) public {\r\n        // Checking if ballot was already enforced\r\n        require(propositions[_propositionNumber].wasEnacted );\r\n\r\n        // Checking that the user voted, or that he did not already cash out\r\n        require(propositions[_propositionNumber].hasUserVoted[msg.sender] );\r\n\r\n        // Checking that the user voted as the crowd\r\n        require(propositions[_propositionNumber].whatHasUserVoted[msg.sender] == propositions[_propositionNumber].wasAccepted);\r\n\r\n        // Disabling the possibilit to cash out\r\n        propositions[_propositionNumber].hasUserVoted[msg.sender] = false;\r\n\r\n        // Send payment\r\n        Organ membersOrgan = Organ(membersOrganContract);\r\n        membersOrgan.payout(msg.sender, propositions[_propositionNumber].payoutPerUser);\r\n\r\n        // Log event\r\n        emit withdrawal(msg.sender, _propositionNumber, propositions[_propositionNumber].payoutPerUser);\r\n\r\n     }\r\n\r\n        //////////////////////// Functions to communicate with other contracts\r\n    function getPropositionDetails(uint _propositionNumber) public view returns (address _candidateAddress, bytes32 _name, bytes32 _ipfsHash, uint8 _hash_function, uint8 _size){\r\n        return (propositions[_propositionNumber].candidateAddress, propositions[_propositionNumber].name, propositions[_propositionNumber].ipfsHash, propositions[_propositionNumber].hash_function, propositions[_propositionNumber].size);\r\n    }\r\n    function getPropositionDates(uint _propositionNumber) public view returns (uint _startDate, uint _votingPeriodEndDate, uint _promulgatorWindowEndDate){\r\n        return (propositions[_propositionNumber].startDate, propositions[_propositionNumber].startDate + votingPeriodDuration, propositions[_propositionNumber].startDate + votingPeriodDuration + promulgationPeriodDuration);\r\n    }\r\n    function getPropositionStatus(uint _propositionNumber) public view returns (bool _wasCounted, bool _wasEnacted){\r\n        return (propositions[_propositionNumber].wasCounted, propositions[_propositionNumber].wasEnacted);\r\n    }\r\n    function getVotedPropositionResults(uint _propositionNumber) public view returns (uint totalVoters, uint _totalVoteCount, uint _voteFor, uint _vetoCount, uint _notVetoCount, bool _wasAccepted){\r\n        require(propositions[_propositionNumber].wasCounted);\r\n        return (propositions[_propositionNumber].totalVoteCount, propositions[_propositionNumber].totalVoteCount, propositions[_propositionNumber].voteFor, propositions[_propositionNumber].vetoCount, propositions[_propositionNumber].notVetoCount, propositions[_propositionNumber].wasAccepted);\r\n        }\r\n    function getPropositionsCreatedByUser(address _userAddress) public view returns (uint[] memory)\r\n    {return propositionToUser[_userAddress];}    \r\n    function getPropositionsVetoedByUser(address _userAddress) public view returns (uint[] memory)\r\n    {return propositionToVetoer[_userAddress];}  \r\n    function getPropositionsPromulgatedByUser(address _userAddress) public view returns (uint[] memory)\r\n    {return propositionToPromulgator[_userAddress];}  \r\n    function getPropositionsUsedByUser(address _userAddress) public view returns (uint[] memory)\r\n    {return propositionToVoter[_userAddress];}  \r\n    function haveIVoted(uint propositionNumber) public view returns (bool IHaveVoted)\r\n    {return propositions[propositionNumber].hasUserVoted[msg.sender];}\r\n    // function getLinkedOrgans() public view returns (address[] _linkedOrgans)\r\n    // {return linkedOrgans;}\r\n    // function getProcedureName() public view returns (string _procedureName)\r\n    // {return procedureName;}\r\n\r\n\r\n}\r\n\r\n",
  "sourcePath": "C:/Users/Ewan Debove/Documents/A5/Blockchain Programming/TD7/contracts/utils/Kelsen/solidity/contracts/procedures/normsCooptationProcedure.sol",
  "compiler": {
    "name": "solc",
    "version": "0.5.12+commit.7709ece9.Emscripten.clang"
  },
  "schemaVersion": "3.0.19",
  "updatedAt": "2019-12-04T10:02:32.770Z",
  "devdoc": {
    "methods": {}
  },
  "userdoc": {
    "methods": {
      "createProposition(bytes32,bytes32,uint8,uint8)": {
        "notice": "Create a new ballot to choose one of `proposalNames`."
      },
      "getPropositionDetails(uint256)": {
        "notice": "///////////////////// Functions to communicate with other contracts"
      },
      "veto(uint256,bool)": {
        "notice": "Veto a candidate"
      }
    }
  }
}