{
  "contractName": "Organ",
  "abi": [
    {
      "inputs": [
        {
          "internalType": "bytes32",
          "name": "_organName",
          "type": "bytes32"
        }
      ],
      "payable": false,
      "stateMutability": "nonpayable",
      "type": "constructor"
    },
    {
      "payable": true,
      "stateMutability": "payable",
      "type": "fallback"
    },
    {
      "constant": true,
      "inputs": [],
      "name": "isAProcedure",
      "outputs": [
        {
          "internalType": "bool",
          "name": "",
          "type": "bool"
        }
      ],
      "payable": false,
      "stateMutability": "view",
      "type": "function"
    },
    {
      "constant": true,
      "inputs": [],
      "name": "isAnOrgan",
      "outputs": [
        {
          "internalType": "bool",
          "name": "",
          "type": "bool"
        }
      ],
      "payable": false,
      "stateMutability": "view",
      "type": "function"
    },
    {
      "constant": true,
      "inputs": [],
      "name": "kelsenVersionNumber",
      "outputs": [
        {
          "internalType": "int256",
          "name": "",
          "type": "int256"
        }
      ],
      "payable": false,
      "stateMutability": "view",
      "type": "function"
    },
    {
      "constant": true,
      "inputs": [],
      "name": "organInfos",
      "outputs": [
        {
          "internalType": "bytes32",
          "name": "organName",
          "type": "bytes32"
        },
        {
          "internalType": "uint256",
          "name": "activeNormNumber",
          "type": "uint256"
        }
      ],
      "payable": false,
      "stateMutability": "view",
      "type": "function"
    },
    {
      "constant": false,
      "inputs": [
        {
          "internalType": "bytes32",
          "name": "_organName",
          "type": "bytes32"
        }
      ],
      "name": "setName",
      "outputs": [],
      "payable": false,
      "stateMutability": "nonpayable",
      "type": "function"
    },
    {
      "constant": false,
      "inputs": [
        {
          "internalType": "address payable",
          "name": "_to",
          "type": "address"
        },
        {
          "internalType": "uint256",
          "name": "_value",
          "type": "uint256"
        }
      ],
      "name": "payout",
      "outputs": [],
      "payable": false,
      "stateMutability": "nonpayable",
      "type": "function"
    },
    {
      "constant": false,
      "inputs": [
        {
          "internalType": "address",
          "name": "_newMasterAddress",
          "type": "address"
        },
        {
          "internalType": "bool",
          "name": "_canAdd",
          "type": "bool"
        },
        {
          "internalType": "bool",
          "name": "_canDelete",
          "type": "bool"
        }
      ],
      "name": "addMaster",
      "outputs": [],
      "payable": false,
      "stateMutability": "nonpayable",
      "type": "function"
    },
    {
      "constant": false,
      "inputs": [
        {
          "internalType": "address",
          "name": "_masterToRemove",
          "type": "address"
        }
      ],
      "name": "remMaster",
      "outputs": [],
      "payable": false,
      "stateMutability": "nonpayable",
      "type": "function"
    },
    {
      "constant": false,
      "inputs": [
        {
          "internalType": "address",
          "name": "_masterToRemove",
          "type": "address"
        },
        {
          "internalType": "address",
          "name": "_masterToAdd",
          "type": "address"
        },
        {
          "internalType": "bool",
          "name": "_canAdd",
          "type": "bool"
        },
        {
          "internalType": "bool",
          "name": "_canDelete",
          "type": "bool"
        }
      ],
      "name": "replaceMaster",
      "outputs": [],
      "payable": false,
      "stateMutability": "nonpayable",
      "type": "function"
    },
    {
      "constant": false,
      "inputs": [
        {
          "internalType": "address",
          "name": "_newAdminAddress",
          "type": "address"
        },
        {
          "internalType": "bool",
          "name": "_canAdd",
          "type": "bool"
        },
        {
          "internalType": "bool",
          "name": "_canDelete",
          "type": "bool"
        },
        {
          "internalType": "bool",
          "name": "_canDeposit",
          "type": "bool"
        },
        {
          "internalType": "bool",
          "name": "_canSpend",
          "type": "bool"
        }
      ],
      "name": "addAdmin",
      "outputs": [],
      "payable": false,
      "stateMutability": "nonpayable",
      "type": "function"
    },
    {
      "constant": false,
      "inputs": [
        {
          "internalType": "address",
          "name": "_adminToRemove",
          "type": "address"
        },
        {
          "internalType": "address",
          "name": "_adminToAdd",
          "type": "address"
        },
        {
          "internalType": "bool",
          "name": "_canAdd",
          "type": "bool"
        },
        {
          "internalType": "bool",
          "name": "_canDelete",
          "type": "bool"
        },
        {
          "internalType": "bool",
          "name": "_canDeposit",
          "type": "bool"
        },
        {
          "internalType": "bool",
          "name": "_canSpend",
          "type": "bool"
        }
      ],
      "name": "replaceAdmin",
      "outputs": [],
      "payable": false,
      "stateMutability": "nonpayable",
      "type": "function"
    },
    {
      "constant": false,
      "inputs": [
        {
          "internalType": "address",
          "name": "_adminToRemove",
          "type": "address"
        }
      ],
      "name": "remAdmin",
      "outputs": [],
      "payable": false,
      "stateMutability": "nonpayable",
      "type": "function"
    },
    {
      "constant": false,
      "inputs": [
        {
          "internalType": "address payable",
          "name": "_normAddress",
          "type": "address"
        },
        {
          "internalType": "bytes32",
          "name": "_ipfsHash",
          "type": "bytes32"
        },
        {
          "internalType": "uint8",
          "name": "_hash_function",
          "type": "uint8"
        },
        {
          "internalType": "uint8",
          "name": "_size",
          "type": "uint8"
        }
      ],
      "name": "addNorm",
      "outputs": [
        {
          "internalType": "uint256",
          "name": "_normPosition",
          "type": "uint256"
        }
      ],
      "payable": false,
      "stateMutability": "nonpayable",
      "type": "function"
    },
    {
      "constant": false,
      "inputs": [
        {
          "internalType": "uint256",
          "name": "_normNumber",
          "type": "uint256"
        }
      ],
      "name": "remNorm",
      "outputs": [],
      "payable": false,
      "stateMutability": "nonpayable",
      "type": "function"
    },
    {
      "constant": false,
      "inputs": [
        {
          "internalType": "uint256",
          "name": "_normNumber",
          "type": "uint256"
        },
        {
          "internalType": "address payable",
          "name": "_normAddress",
          "type": "address"
        },
        {
          "internalType": "bytes32",
          "name": "_ipfsHash",
          "type": "bytes32"
        },
        {
          "internalType": "uint8",
          "name": "_hash_function",
          "type": "uint8"
        },
        {
          "internalType": "uint8",
          "name": "_size",
          "type": "uint8"
        }
      ],
      "name": "replaceNorm",
      "outputs": [],
      "payable": false,
      "stateMutability": "nonpayable",
      "type": "function"
    },
    {
      "constant": true,
      "inputs": [
        {
          "internalType": "address",
          "name": "_adressToCheck",
          "type": "address"
        }
      ],
      "name": "isMaster",
      "outputs": [
        {
          "internalType": "bool",
          "name": "canAdd",
          "type": "bool"
        },
        {
          "internalType": "bool",
          "name": "canDelete",
          "type": "bool"
        }
      ],
      "payable": false,
      "stateMutability": "view",
      "type": "function"
    },
    {
      "constant": true,
      "inputs": [
        {
          "internalType": "address",
          "name": "_adressToCheck",
          "type": "address"
        }
      ],
      "name": "isAdmin",
      "outputs": [
        {
          "internalType": "bool",
          "name": "canAdd",
          "type": "bool"
        },
        {
          "internalType": "bool",
          "name": "canDelete",
          "type": "bool"
        },
        {
          "internalType": "bool",
          "name": "canDeposit",
          "type": "bool"
        },
        {
          "internalType": "bool",
          "name": "canSpend",
          "type": "bool"
        }
      ],
      "payable": false,
      "stateMutability": "view",
      "type": "function"
    },
    {
      "constant": true,
      "inputs": [],
      "name": "getNormListSize",
      "outputs": [
        {
          "internalType": "uint256",
          "name": "normArraySize",
          "type": "uint256"
        }
      ],
      "payable": false,
      "stateMutability": "view",
      "type": "function"
    },
    {
      "constant": true,
      "inputs": [
        {
          "internalType": "address",
          "name": "_addressToCheck",
          "type": "address"
        }
      ],
      "name": "getAddressPositionInNorm",
      "outputs": [
        {
          "internalType": "uint256",
          "name": "addressInNormPosition",
          "type": "uint256"
        }
      ],
      "payable": false,
      "stateMutability": "view",
      "type": "function"
    },
    {
      "constant": true,
      "inputs": [
        {
          "internalType": "uint256",
          "name": "_desiredNormPosition",
          "type": "uint256"
        }
      ],
      "name": "getSingleNorm",
      "outputs": [
        {
          "internalType": "address payable",
          "name": "normAddress",
          "type": "address"
        },
        {
          "internalType": "bytes32",
          "name": "ipfsHash",
          "type": "bytes32"
        },
        {
          "internalType": "uint8",
          "name": "hash_function",
          "type": "uint8"
        },
        {
          "internalType": "uint8",
          "name": "size",
          "type": "uint8"
        }
      ],
      "payable": false,
      "stateMutability": "view",
      "type": "function"
    },
    {
      "constant": true,
      "inputs": [],
      "name": "getKelsenVersion",
      "outputs": [
        {
          "internalType": "bool",
          "name": "_isAnOrgan",
          "type": "bool"
        },
        {
          "internalType": "bool",
          "name": "_isAProcedure",
          "type": "bool"
        },
        {
          "internalType": "int256",
          "name": "_versionNumber",
          "type": "int256"
        }
      ],
      "payable": false,
      "stateMutability": "view",
      "type": "function"
    }
  ],
  "bytecode": "0x6080604052600260005560018060026101000a81548160ff0219169083151502179055506000600160036101000a81548160ff02191690831515021790555034801561004a57600080fd5b506040516116573803806116578339818101604052602081101561006d57600080fd5b8101908080519060200190929190505050600273__organLibrary__________________________634e6f396c9091836040518363ffffffff1660e01b8152600401808381526020018281526020019250505060006040518083038186803b1580156100d857600080fd5b505af41580156100ec573d6000803e3d6000fd5b5050505050611557806101006000396000f3fe60806040526004361061012a5760003560e01c80636f2a4d5f116100ab578063a08c3cb51161006f578063a08c3cb514610722578063a8bef97a146107ab578063bbea0619146107da578063db0515261461080c578063e80b30a5146108a8578063f720f80b146108d75761012a565b80636f2a4d5f1461050b57806371e7f3741461059457806379524d2d1461063557806390cb15a9146106b65780639e9b8aed146106f75761012a565b80633f7819a1116100f25780633f7819a1146103585780635549ea51146103c15780635ac801fe146104265780635dbe4d28146104615780636c49e0871461048c5761012a565b80630e9defff14610196578063117de2fd146101d157806311c604181461022c57806324d7806c1461027d57806331a7919814610307575b600273__organLibrary__________________________639025315590916040518263ffffffff1660e01b81526004018082815260200191505060006040518083038186803b15801561017c57600080fd5b505af4158015610190573d6000803e3d6000fd5b50505050005b3480156101a257600080fd5b506101cf600480360360208110156101b957600080fd5b810190808035906020019092919050505061094b565b005b3480156101dd57600080fd5b5061022a600480360360408110156101f457600080fd5b81019080803573ffffffffffffffffffffffffffffffffffffffff169060200190929190803590602001909291905050506109c0565b005b34801561023857600080fd5b5061027b6004803603602081101561024f57600080fd5b81019080803573ffffffffffffffffffffffffffffffffffffffff169060200190929190505050610a6a565b005b34801561028957600080fd5b506102cc600480360360208110156102a057600080fd5b81019080803573ffffffffffffffffffffffffffffffffffffffff169060200190929190505050610b0b565b604051808515151515815260200184151515158152602001831515151581526020018215151515815260200194505050505060405180910390f35b34801561031357600080fd5b506103566004803603602081101561032a57600080fd5b81019080803573ffffffffffffffffffffffffffffffffffffffff169060200190929190505050610c6c565b005b34801561036457600080fd5b506103bf6004803603606081101561037b57600080fd5b81019080803573ffffffffffffffffffffffffffffffffffffffff169060200190929190803515159060200190929190803515159060200190929190505050610d0d565b005b3480156103cd57600080fd5b50610410600480360360208110156103e457600080fd5b81019080803573ffffffffffffffffffffffffffffffffffffffff169060200190929190505050610dc8565b6040518082815260200191505060405180910390f35b34801561043257600080fd5b5061045f6004803603602081101561044957600080fd5b8101908080359060200190929190505050610e14565b005b34801561046d57600080fd5b50610476610e89565b6040518082815260200191505060405180910390f35b34801561049857600080fd5b50610509600480360360a08110156104af57600080fd5b8101908080359060200190929190803573ffffffffffffffffffffffffffffffffffffffff16906020019092919080359060200190929190803560ff169060200190929190803560ff169060200190929190505050610e8f565b005b34801561051757600080fd5b506105926004803603608081101561052e57600080fd5b81019080803573ffffffffffffffffffffffffffffffffffffffff169060200190929190803573ffffffffffffffffffffffffffffffffffffffff169060200190929190803515159060200190929190803515159060200190929190505050610f60565b005b3480156105a057600080fd5b50610633600480360360c08110156105b757600080fd5b81019080803573ffffffffffffffffffffffffffffffffffffffff169060200190929190803573ffffffffffffffffffffffffffffffffffffffff169060200190929190803515159060200190929190803515159060200190929190803515159060200190929190803515159060200190929190505050611050565b005b34801561064157600080fd5b506106b4600480360360a081101561065857600080fd5b81019080803573ffffffffffffffffffffffffffffffffffffffff16906020019092919080351515906020019092919080351515906020019092919080351515906020019092919080351515906020019092919050505061115a565b005b3480156106c257600080fd5b506106cb61122f565b604051808415151515815260200183151515158152602001828152602001935050505060405180910390f35b34801561070357600080fd5b5061070c611262565b6040518082815260200191505060405180910390f35b34801561072e57600080fd5b506107956004803603608081101561074557600080fd5b81019080803573ffffffffffffffffffffffffffffffffffffffff16906020019092919080359060200190929190803560ff169060200190929190803560ff169060200190929190505050611272565b6040518082815260200191505060405180910390f35b3480156107b757600080fd5b506107c0611363565b604051808215151515815260200191505060405180910390f35b3480156107e657600080fd5b506107ef611376565b604051808381526020018281526020019250505060405180910390f35b34801561081857600080fd5b506108456004803603602081101561082f57600080fd5b8101908080359060200190929190505050611388565b604051808573ffffffffffffffffffffffffffffffffffffffff1673ffffffffffffffffffffffffffffffffffffffff1681526020018481526020018360ff1660ff1681526020018260ff1660ff16815260200194505050505060405180910390f35b3480156108b457600080fd5b506108bd61145f565b604051808215151515815260200191505060405180910390f35b3480156108e357600080fd5b50610926600480360360208110156108fa57600080fd5b81019080803573ffffffffffffffffffffffffffffffffffffffff169060200190929190505050611472565b6040518083151515158152602001821515151581526020019250505060405180910390f35b600273__organLibrary__________________________6313d6a0cb9091836040518363ffffffff1660e01b8152600401808381526020018281526020019250505060006040518083038186803b1580156109a557600080fd5b505af41580156109b9573d6000803e3d6000fd5b5050505050565b600273__organLibrary__________________________63c0a9a964909184846040518463ffffffff1660e01b8152600401808481526020018373ffffffffffffffffffffffffffffffffffffffff1673ffffffffffffffffffffffffffffffffffffffff168152602001828152602001935050505060006040518083038186803b158015610a4e57600080fd5b505af4158015610a62573d6000803e3d6000fd5b505050505050565b600273__organLibrary__________________________63f96257cc9091836040518363ffffffff1660e01b8152600401808381526020018273ffffffffffffffffffffffffffffffffffffffff1673ffffffffffffffffffffffffffffffffffffffff1681526020019250505060006040518083038186803b158015610af057600080fd5b505af4158015610b04573d6000803e3d6000fd5b5050505050565b600080600080600260030160008673ffffffffffffffffffffffffffffffffffffffff1673ffffffffffffffffffffffffffffffffffffffff16815260200190815260200160002060000160009054906101000a900460ff16600260030160008773ffffffffffffffffffffffffffffffffffffffff1673ffffffffffffffffffffffffffffffffffffffff16815260200190815260200160002060000160019054906101000a900460ff16600260030160008873ffffffffffffffffffffffffffffffffffffffff1673ffffffffffffffffffffffffffffffffffffffff16815260200190815260200160002060000160039054906101000a900460ff16600260030160008973ffffffffffffffffffffffffffffffffffffffff1673ffffffffffffffffffffffffffffffffffffffff16815260200190815260200160002060000160029054906101000a900460ff1693509350935093509193509193565b600273__organLibrary__________________________63fad7b3849091836040518363ffffffff1660e01b8152600401808381526020018273ffffffffffffffffffffffffffffffffffffffff1673ffffffffffffffffffffffffffffffffffffffff1681526020019250505060006040518083038186803b158015610cf257600080fd5b505af4158015610d06573d6000803e3d6000fd5b5050505050565b600273__organLibrary__________________________634d8cd96790918585856040518563ffffffff1660e01b8152600401808581526020018473ffffffffffffffffffffffffffffffffffffffff1673ffffffffffffffffffffffffffffffffffffffff168152602001831515151581526020018215151515815260200194505050505060006040518083038186803b158015610dab57600080fd5b505af4158015610dbf573d6000803e3d6000fd5b50505050505050565b6000600260050160008373ffffffffffffffffffffffffffffffffffffffff1673ffffffffffffffffffffffffffffffffffffffff168152602001908152602001600020549050919050565b600273__organLibrary__________________________6313c938a79091836040518363ffffffff1660e01b8152600401808381526020018281526020019250505060006040518083038186803b158015610e6e57600080fd5b505af4158015610e82573d6000803e3d6000fd5b5050505050565b60005481565b600273__organLibrary__________________________63c4be85a4909187878787876040518763ffffffff1660e01b8152600401808781526020018681526020018573ffffffffffffffffffffffffffffffffffffffff1673ffffffffffffffffffffffffffffffffffffffff1681526020018481526020018360ff1660ff1681526020018260ff1660ff168152602001965050505050505060006040518083038186803b158015610f4157600080fd5b505af4158015610f55573d6000803e3d6000fd5b505050505050505050565b600273__organLibrary__________________________6395ab63419091868686866040518663ffffffff1660e01b8152600401808681526020018573ffffffffffffffffffffffffffffffffffffffff1673ffffffffffffffffffffffffffffffffffffffff1681526020018473ffffffffffffffffffffffffffffffffffffffff1673ffffffffffffffffffffffffffffffffffffffff16815260200183151515158152602001821515151581526020019550505050505060006040518083038186803b15801561103257600080fd5b505af4158015611046573d6000803e3d6000fd5b5050505050505050565b600273__organLibrary__________________________633d579bd390918888888888886040518863ffffffff1660e01b8152600401808881526020018773ffffffffffffffffffffffffffffffffffffffff1673ffffffffffffffffffffffffffffffffffffffff1681526020018673ffffffffffffffffffffffffffffffffffffffff1673ffffffffffffffffffffffffffffffffffffffff1681526020018515151515815260200184151515158152602001831515151581526020018215151515815260200197505050505050505060006040518083038186803b15801561113a57600080fd5b505af415801561114e573d6000803e3d6000fd5b50505050505050505050565b600273__organLibrary__________________________63f1638523909187878787876040518763ffffffff1660e01b8152600401808781526020018673ffffffffffffffffffffffffffffffffffffffff1673ffffffffffffffffffffffffffffffffffffffff16815260200185151515158152602001841515151581526020018315151515815260200182151515158152602001965050505050505060006040518083038186803b15801561121057600080fd5b505af4158015611224573d6000803e3d6000fd5b505050505050505050565b6000806000600160029054906101000a900460ff16600160039054906101000a900460ff16600054925092509250909192565b6000600260040180549050905090565b6000600273__organLibrary__________________________63bd25fc159091878787876040518663ffffffff1660e01b8152600401808681526020018573ffffffffffffffffffffffffffffffffffffffff1673ffffffffffffffffffffffffffffffffffffffff1681526020018481526020018360ff1660ff1681526020018260ff1660ff1681526020019550505050505060206040518083038186803b15801561131e57600080fd5b505af4158015611332573d6000803e3d6000fd5b505050506040513d602081101561134857600080fd5b81019080805190602001909291905050509050949350505050565b600160029054906101000a900460ff1681565b60028060000154908060010154905082565b6000806000806002600401858154811061139e57fe5b906000526020600020906003020160000160009054906101000a900473ffffffffffffffffffffffffffffffffffffffff16600260040186815481106113e057fe5b9060005260206000209060030201600101546002600401878154811061140257fe5b906000526020600020906003020160020160009054906101000a900460ff166002600401888154811061143157fe5b906000526020600020906003020160020160019054906101000a900460ff1693509350935093509193509193565b600160039054906101000a900460ff1681565b6000806002800160008473ffffffffffffffffffffffffffffffffffffffff1673ffffffffffffffffffffffffffffffffffffffff16815260200190815260200160002060000160009054906101000a900460ff166002800160008573ffffffffffffffffffffffffffffffffffffffff1673ffffffffffffffffffffffffffffffffffffffff16815260200190815260200160002060000160019054906101000a900460ff169150915091509156fea265627a7a72315820b2546abda5e939b3ba517aef2ddea40d99c492bc5be299a419495d4cd812bbbb64736f6c634300050c0032",
  "source": "pragma solidity >=0.4.22 <0.6.0;\r\n\r\n\r\n/// @title Standard organ contract\r\n\r\n\r\nimport \"./Kelsen.sol\";\r\nimport \"./libraries/organLibrary.sol\";\r\n\r\n\r\ncontract Organ is Kelsen{\r\n\r\n\r\n    // Declaring structures for different organ roles:\r\n    // Masters can add/remove admins\r\n    // Admins can add / remove norms\r\n    // Norms are sets of adresses, contracts or references gathered by the organ\r\n    bool public isAnOrgan = true;\r\n    bool public isAProcedure = false;\r\n    \r\n    using organLibrary for organLibrary.OrganInfo;\r\n    // Storing organ infos\r\n    organLibrary.OrganInfo public organInfos;\r\n\r\n    // Organ declaration\r\n    constructor(bytes32 _organName) public {\r\n        organInfos.initOrganLib(_organName);\r\n    }\r\n\r\n    // ################# Organ managing functions\r\n\r\n    function setName(bytes32 _organName) \r\n    public \r\n    {\r\n        organInfos.setNameLib(_organName);\r\n    }\r\n        // Money managing function\r\n    function () \r\n    external \r\n    payable \r\n    {\r\n        organInfos.payInLib();\r\n    }\r\n\r\n    function payout(address payable _to, uint _value) \r\n    public \r\n    {\r\n        organInfos.payoutLib(_to, _value);\r\n    }\r\n\r\n    // ################# Master managing functions\r\n    function addMaster(address _newMasterAddress, bool _canAdd, bool _canDelete) \r\n    public\r\n    {\r\n        organInfos.addMasterLib(_newMasterAddress, _canAdd, _canDelete);\r\n    }\r\n\r\n    function remMaster(address _masterToRemove) \r\n    public \r\n    {\r\n        organInfos.remMasterLib(_masterToRemove);\r\n    }\r\n\r\n    function replaceMaster(address _masterToRemove, address _masterToAdd, bool _canAdd, bool _canDelete) \r\n    public \r\n    {\r\n        organInfos.replaceMasterLib(_masterToRemove, _masterToAdd, _canAdd, _canDelete);\r\n    }\r\n\r\n    // ################# Admin managing functions\r\n    function addAdmin(address _newAdminAddress, bool _canAdd, bool _canDelete, bool _canDeposit, bool _canSpend) \r\n    public \r\n    {\r\n        organInfos.addAdminLib(_newAdminAddress, _canAdd, _canDelete, _canDeposit, _canSpend);\r\n    }\r\n\r\n    function replaceAdmin(address _adminToRemove, address _adminToAdd, bool _canAdd, bool _canDelete, bool _canDeposit, bool _canSpend) \r\n    public \r\n    {\r\n        organInfos.replaceAdminLib(_adminToRemove, _adminToAdd, _canAdd, _canDelete, _canDeposit, _canSpend);\r\n    }\r\n\r\n    function remAdmin(address _adminToRemove) public {\r\n        organInfos.remAdminLib(_adminToRemove);\r\n    }\r\n\r\n    // ################# Norms managing functions\r\n\r\n    function addNorm (address payable _normAddress, bytes32 _ipfsHash, uint8 _hash_function, uint8 _size) \r\n    public  \r\n    returns (uint _normPosition)\r\n    {\r\n        return organInfos.addNormLib(_normAddress, _ipfsHash, _hash_function, _size);\r\n    }\r\n\r\n    function remNorm (uint _normNumber) \r\n    public\r\n    {\r\n       organInfos.remNormLib(_normNumber);\r\n    }\r\n\r\n    function replaceNorm (uint _normNumber, address payable _normAddress, bytes32 _ipfsHash, uint8 _hash_function, uint8 _size) \r\n    public\r\n    {\r\n       organInfos.replaceNormLib(_normNumber, _normAddress, _ipfsHash, _hash_function, _size);\r\n    }\r\n\r\n    //////////////////////// Functions to communicate with other contracts\r\n    // Checking individual addresses\r\n    function isMaster (address _adressToCheck) \r\n    public \r\n    view \r\n    returns (bool canAdd, bool canDelete) \r\n    {\r\n        return (organInfos.masters[_adressToCheck].canAdd, organInfos.masters[_adressToCheck].canDelete);\r\n    }\r\n\r\n    function isAdmin (address _adressToCheck) \r\n    public \r\n    view \r\n    returns (bool canAdd, bool canDelete, bool canDeposit, bool canSpend) \r\n    {\r\n        return (organInfos.admins[_adressToCheck].canAdd, organInfos.admins[_adressToCheck].canDelete, organInfos.admins[_adressToCheck].canDeposit, organInfos.admins[_adressToCheck].canSpend);\r\n    }\r\n\r\n    // Retrieve contract state info\r\n    // Size of norm array, to list elements\r\n    function getNormListSize() \r\n    public \r\n    view \r\n    returns (uint normArraySize)\r\n    {\r\n        return organInfos.norms.length;\r\n    }\r\n\r\n    function getAddressPositionInNorm(address _addressToCheck) \r\n    public \r\n    view \r\n    returns (uint addressInNormPosition)\r\n    {\r\n        return organInfos.addressPositionInNorms[_addressToCheck];\r\n    }\r\n\r\n    function getSingleNorm(uint _desiredNormPosition) \r\n    public \r\n    view \r\n    returns (address payable normAddress, bytes32 ipfsHash, uint8 hash_function, uint8 size)\r\n    {\r\n        return (organInfos.norms[_desiredNormPosition].normAddress, organInfos.norms[_desiredNormPosition].ipfsHash, organInfos.norms[_desiredNormPosition].hash_function, organInfos.norms[_desiredNormPosition].size);\r\n    }\r\n\r\n    function getKelsenVersion() \r\n    public \r\n    view \r\n    returns(bool _isAnOrgan, bool _isAProcedure, int _versionNumber)\r\n    {\r\n        return (isAnOrgan, isAProcedure, kelsenVersionNumber);\r\n    }\r\n}\r\n\r\n",
  "sourcePath": "C:\\Users\\Ewan Debove\\Documents\\A5\\Blockchain Programming\\TD7\\contracts\\utils\\Kelsen\\solidity\\contracts\\Organ.sol",
  "compiler": {
    "name": "solc",
    "version": "0.5.12+commit.7709ece9.Emscripten.clang"
  },
  "schemaVersion": "3.0.19",
  "updatedAt": "2019-12-04T11:02:18.919Z",
  "devdoc": {
    "methods": {}
  },
  "userdoc": {
    "methods": {
      "isMaster(address)": {
        "notice": "///////////////////// Functions to communicate with other contracts"
      }
    }
  }
}