{
  "contractName": "Procedure",
  "abi": [
    {
      "constant": true,
      "inputs": [],
      "name": "isAProcedure",
      "outputs": [
        {
          "internalType": "bool",
          "name": "",
          "type": "bool"
        }
      ],
      "payable": false,
      "stateMutability": "view",
      "type": "function"
    },
    {
      "constant": true,
      "inputs": [],
      "name": "isAnOrgan",
      "outputs": [
        {
          "internalType": "bool",
          "name": "",
          "type": "bool"
        }
      ],
      "payable": false,
      "stateMutability": "view",
      "type": "function"
    },
    {
      "constant": true,
      "inputs": [],
      "name": "kelsenVersionNumber",
      "outputs": [
        {
          "internalType": "int256",
          "name": "",
          "type": "int256"
        }
      ],
      "payable": false,
      "stateMutability": "view",
      "type": "function"
    },
    {
      "constant": true,
      "inputs": [],
      "name": "procedureInfo",
      "outputs": [
        {
          "internalType": "uint256",
          "name": "procedureTypeNumber",
          "type": "uint256"
        },
        {
          "internalType": "bytes32",
          "name": "procedureName",
          "type": "bytes32"
        },
        {
          "internalType": "uint256",
          "name": "linkedOrgans",
          "type": "uint256"
        }
      ],
      "payable": false,
      "stateMutability": "view",
      "type": "function"
    }
  ],
  "bytecode": "0x608060405260026000556000600560006101000a81548160ff0219169083151502179055506001600560016101000a81548160ff02191690831515021790555034801561004b57600080fd5b506101588061005b6000396000f3fe608060405234801561001057600080fd5b506004361061004c5760003560e01c80635dbe4d28146100515780639397942e1461006f578063a8bef97a1461009b578063e80b30a5146100bd575b600080fd5b6100596100df565b6040518082815260200191505060405180910390f35b6100776100e5565b60405180848152602001838152602001828152602001935050505060405180910390f35b6100a36100fd565b604051808215151515815260200191505060405180910390f35b6100c5610110565b604051808215151515815260200191505060405180910390f35b60005481565b60028060000154908060010154908060020154905083565b600560009054906101000a900460ff1681565b600560019054906101000a900460ff168156fea265627a7a72315820ea1cfb45c58af2477792f241a7861c358b91b77d2d57ab9dc65e2e7b0f4c23dd64736f6c634300050c0032",
  "source": "pragma solidity >=0.4.22 <0.6.0;\r\n\r\n\r\n/// @title Standard organ contract\r\n\r\nimport \"./Kelsen.sol\";\r\nimport \"./libraries/procedureLibrary.sol\";\r\n\r\n\r\ncontract Procedure is Kelsen {\r\n\r\n    procedureLibrary.ProcedureData public procedureInfo;\r\n    using procedureLibrary for address;\r\n    using procedureLibrary for procedureLibrary.ProcedureData;\r\n\r\n    // Identifiers to adapt procedure interface\r\n    bool public isAnOrgan = false;\r\n    bool public isAProcedure = true;\r\n}\r\n",
  "sourcePath": "C:\\Users\\Ewan Debove\\Documents\\A5\\Blockchain Programming\\TD7\\contracts\\utils\\Kelsen\\solidity\\contracts\\standardProcedure.sol",
  "compiler": {
    "name": "solc",
    "version": "0.5.12+commit.7709ece9.Emscripten.clang"
  },
  "schemaVersion": "3.0.19",
  "updatedAt": "2019-12-04T11:02:19.019Z",
  "devdoc": {
    "methods": {}
  },
  "userdoc": {
    "methods": {}
  }
}