{
  "contractName": "propositionVotingLibrary",
  "abi": [
    {
      "anonymous": false,
      "inputs": [
        {
          "indexed": false,
          "internalType": "address",
          "name": "_from",
          "type": "address"
        },
        {
          "indexed": false,
          "internalType": "uint256",
          "name": "_propositionNumber",
          "type": "uint256"
        }
      ],
      "name": "countVotes",
      "type": "event"
    },
    {
      "anonymous": false,
      "inputs": [
        {
          "indexed": false,
          "internalType": "uint256",
          "name": "_propositionNumber",
          "type": "uint256"
        },
        {
          "indexed": false,
          "internalType": "bool",
          "name": "_canAdd",
          "type": "bool"
        },
        {
          "indexed": false,
          "internalType": "bool",
          "name": "_canDelete",
          "type": "bool"
        },
        {
          "indexed": false,
          "internalType": "bool",
          "name": "_canDeposit",
          "type": "bool"
        },
        {
          "indexed": false,
          "internalType": "bool",
          "name": "_canSpend",
          "type": "bool"
        }
      ],
      "name": "createAdminPropositionEvent",
      "type": "event"
    },
    {
      "anonymous": false,
      "inputs": [
        {
          "indexed": false,
          "internalType": "uint256",
          "name": "_propositionNumber",
          "type": "uint256"
        },
        {
          "indexed": false,
          "internalType": "bool",
          "name": "_canAdd",
          "type": "bool"
        },
        {
          "indexed": false,
          "internalType": "bool",
          "name": "_canDelete",
          "type": "bool"
        }
      ],
      "name": "createMasterPropositionEvent",
      "type": "event"
    },
    {
      "anonymous": false,
      "inputs": [
        {
          "indexed": false,
          "internalType": "address",
          "name": "_contractToAdd",
          "type": "address"
        },
        {
          "indexed": false,
          "internalType": "address",
          "name": "_contractToRemove",
          "type": "address"
        }
      ],
      "name": "createPropositionDetails",
      "type": "event"
    },
    {
      "anonymous": false,
      "inputs": [
        {
          "indexed": false,
          "internalType": "address",
          "name": "_from",
          "type": "address"
        },
        {
          "indexed": false,
          "internalType": "address",
          "name": "_targetOrgan",
          "type": "address"
        },
        {
          "indexed": false,
          "internalType": "uint256",
          "name": "_propositionType",
          "type": "uint256"
        },
        {
          "indexed": false,
          "internalType": "uint256",
          "name": "_propositionNumber",
          "type": "uint256"
        },
        {
          "indexed": false,
          "internalType": "bytes32",
          "name": "_ipfsHash",
          "type": "bytes32"
        },
        {
          "indexed": false,
          "internalType": "uint8",
          "name": "_hash_function",
          "type": "uint8"
        },
        {
          "indexed": false,
          "internalType": "uint8",
          "name": "_size",
          "type": "uint8"
        }
      ],
      "name": "createPropositionEvent",
      "type": "event"
    },
    {
      "anonymous": false,
      "inputs": [
        {
          "indexed": false,
          "internalType": "address",
          "name": "_from",
          "type": "address"
        },
        {
          "indexed": false,
          "internalType": "uint256",
          "name": "_propositionNumber",
          "type": "uint256"
        },
        {
          "indexed": false,
          "internalType": "bool",
          "name": "_promulgate",
          "type": "bool"
        }
      ],
      "name": "promulgatePropositionEvent",
      "type": "event"
    },
    {
      "anonymous": false,
      "inputs": [
        {
          "indexed": false,
          "internalType": "address",
          "name": "_from",
          "type": "address"
        },
        {
          "indexed": false,
          "internalType": "uint256",
          "name": "_propositionNumber",
          "type": "uint256"
        }
      ],
      "name": "vetoProposition",
      "type": "event"
    },
    {
      "anonymous": false,
      "inputs": [
        {
          "indexed": false,
          "internalType": "address",
          "name": "_from",
          "type": "address"
        },
        {
          "indexed": false,
          "internalType": "uint256",
          "name": "_propositionNumber",
          "type": "uint256"
        }
      ],
      "name": "voteOnProposition",
      "type": "event"
    },
    {
      "constant": true,
      "inputs": [
        {
          "internalType": "uint256",
          "name": "_packedBools",
          "type": "uint256"
        },
        {
          "internalType": "uint256",
          "name": "_boolNumber",
          "type": "uint256"
        }
      ],
      "name": "getBoolean",
      "outputs": [
        {
          "internalType": "bool",
          "name": "",
          "type": "bool"
        }
      ],
      "payable": false,
      "stateMutability": "pure",
      "type": "function"
    },
    {
      "constant": true,
      "inputs": [
        {
          "internalType": "uint256",
          "name": "_packedBools",
          "type": "uint256"
        },
        {
          "internalType": "uint256",
          "name": "_boolNumber",
          "type": "uint256"
        },
        {
          "internalType": "bool",
          "name": "_value",
          "type": "bool"
        }
      ],
      "name": "setBoolean",
      "outputs": [
        {
          "internalType": "uint256",
          "name": "",
          "type": "uint256"
        }
      ],
      "payable": false,
      "stateMutability": "pure",
      "type": "function"
    }
  ],
  "bytecode": "0x612211610026600b82828239805160001a60731461001957fe5b30600052607381538281f3fe73000000000000000000000000000000000000000030146080604052600436106100a85760003560e01c8063aed723d511610070578063aed723d514610227578063cd3393d0146102a4578063d2e73b9d146103b2578063da66af9c146103f9578063e0f9895514610440576100a8565b806320ffac54146100ad5780633369581c146100e857806396233b5f14610123578063995e922814610174578063a062e2b7146101c4575b600080fd5b8180156100b957600080fd5b506100e6600480360360208110156100d057600080fd5b8101908080359060200190929190505050610498565b005b8180156100f457600080fd5b506101216004803603602081101561010b57600080fd5b81019080803590602001909291905050506107fd565b005b81801561012f57600080fd5b506101726004803603606081101561014657600080fd5b8101908080359060200190929190803590602001909291908035151590602001909291905050506108b8565b005b6101aa6004803603604081101561018a57600080fd5b810190808035906020019092919080359060200190929190505050610a37565b604051808215151515815260200191505060405180910390f35b8180156101d057600080fd5b50610225600480360360a08110156101e757600080fd5b810190808035906020019092919080359060200190929190803590602001909291908035906020019092919080359060200190929190505050610a5e565b005b81801561023357600080fd5b5061028a6004803603606081101561024a57600080fd5b810190808035906020019092919080359060200190929190803573ffffffffffffffffffffffffffffffffffffffff169060200190929190505050610a89565b604051808215151515815260200191505060405180910390f35b8180156102b057600080fd5b5061039c60048036036101808110156102c857600080fd5b8101908080359060200190929190803573ffffffffffffffffffffffffffffffffffffffff169060200190929190803573ffffffffffffffffffffffffffffffffffffffff169060200190929190803573ffffffffffffffffffffffffffffffffffffffff16906020019092919080359060200190929190803560ff169060200190929190803560ff16906020019092919080351515906020019092919080351515906020019092919080351515906020019092919080351515906020019092919080359060200190929190505050610cac565b6040518082815260200191505060405180910390f35b8180156103be57600080fd5b506103f7600480360360408110156103d557600080fd5b81019080803590602001909291908035151590602001909291905050506112b6565b005b81801561040557600080fd5b5061043e6004803603604081101561041c57600080fd5b8101908080359060200190929190803515159060200190929190505050611f62565b005b6104826004803603606081101561045657600080fd5b8101908080359060200190929190803590602001909291908035151590602001909291905050506121b4565b6040518082815260200191505060405180910390f35b6000816003015414156104aa57600080fd5b60008160070160009054906101000a900473ffffffffffffffffffffffffffffffffffffffff1690506000806006846001015410156105b1578273ffffffffffffffffffffffffffffffffffffffff1663f720f80b306040518263ffffffff1660e01b8152600401808273ffffffffffffffffffffffffffffffffffffffff1673ffffffffffffffffffffffffffffffffffffffff168152602001915050604080518083038186803b15801561055f57600080fd5b505afa158015610573573d6000803e3d6000fd5b505050506040513d604081101561058957600080fd5b8101908080519060200190929190805190602001909291905050508092508193505050610693565b8273ffffffffffffffffffffffffffffffffffffffff166324d7806c306040518263ffffffff1660e01b8152600401808273ffffffffffffffffffffffffffffffffffffffff1673ffffffffffffffffffffffffffffffffffffffff16815260200191505060806040518083038186803b15801561062e57600080fd5b505afa158015610642573d6000803e3d6000fd5b505050506040513d608081101561065857600080fd5b810190808051906020019092919080519060200190929190805190602001909291908051906020019092919050505090505080925081935050505b811580156106f25750600073ffffffffffffffffffffffffffffffffffffffff168460080160009054906101000a900473ffffffffffffffffffffffffffffffffffffffff1673ffffffffffffffffffffffffffffffffffffffff1614155b806107585750801580156107575750600073ffffffffffffffffffffffffffffffffffffffff168460090160009054906101000a900473ffffffffffffffffffffffffffffffffffffffff1673ffffffffffffffffffffffffffffffffffffffff1614155b5b1561077b5760018460000160076101000a81548160ff0219169083151502179055505b7fed7c73834db4ae22add7f637175d8a32a1dddae4c154ccd25195b77df4c8d18d3385600601546000604051808473ffffffffffffffffffffffffffffffffffffffff1673ffffffffffffffffffffffffffffffffffffffff16815260200183815260200182151515158152602001935050505060405180910390a150505050565b8060000160059054906101000a900460ff161561081957600080fd5b4281600301541161082957600080fd5b60018160000160046101000a81548160ff0219169083151502179055507f62901d9c2f788a5c877cf5a2659a041eedf9a980c6dd3ed22a4878bcc228619b338260060154604051808373ffffffffffffffffffffffffffffffffffffffff1673ffffffffffffffffffffffffffffffffffffffff1681526020018281526020019250505060405180910390a150565b6109078360050160003373ffffffffffffffffffffffffffffffffffffffff1673ffffffffffffffffffffffffffffffffffffffff168152602001908152602001600020548360060154610a37565b1561091157600080fd5b8160000160059054906101000a900460ff161561092d57600080fd5b4282600301541161093d57600080fd5b60011515811515141561095e57600182600401600082825401925050819055505b6109af8360050160003373ffffffffffffffffffffffffffffffffffffffff1673ffffffffffffffffffffffffffffffffffffffff16815260200190815260200160002054836006015460016121b4565b50600182600501600082825401925050819055507fd1faddd599b0d6b58c83de71d7ff5395895b5891894dcd37f2482f33b2a1c43d338360060154604051808373ffffffffffffffffffffffffffffffffffffffff1673ffffffffffffffffffffffffffffffffffffffff1681526020018281526020019250505060405180910390a1505050565b60008060018385901c16905060018114610a52576000610a55565b60015b91505092915050565b8385600001819055508285600101819055508185600201819055508085600301819055505050505050565b60008260000160059054906101000a900460ff1615610aa757600080fd5b42836003015410610ab757600080fd5b600083600301541415610ac957600080fd5b600082905060008173ffffffffffffffffffffffffffffffffffffffff1663bbea06196040518163ffffffff1660e01b8152600401604080518083038186803b158015610b1557600080fd5b505afa158015610b29573d6000803e3d6000fd5b505050506040513d6040811015610b3f57600080fd5b8101908080519060200190929190805190602001909291905050509150508460000160049054906101000a900460ff1615610b9a576000925060018560000160076101000a81548160ff021916908315150217905550610bf8565b80866000015402606486600501540210158015610bc7575085600301548560050154026064866004015402115b15610bd55760019250610bf7565b6000925060018560000160076101000a81548160ff0219169083151502179055505b5b60018560000160056101000a81548160ff021916908315150217905550828560000160066101000a81548160ff0219169083151502179055507f297f1f08d2ef8c90272f7ee3e1d4272015a96cdff8a252b60547b9e432e72360338660060154604051808373ffffffffffffffffffffffffffffffffffffffff1673ffffffffffffffffffffffffffffffffffffffff1681526020018281526020019250505060405180910390a182925050509392505050565b60008c6004015490508b8d600601600083815260200190815260200160002060070160006101000a81548173ffffffffffffffffffffffffffffffffffffffff021916908373ffffffffffffffffffffffffffffffffffffffff1602179055508a8d600601600083815260200190815260200160002060080160006101000a81548173ffffffffffffffffffffffffffffffffffffffff021916908373ffffffffffffffffffffffffffffffffffffffff160217905550898d600601600083815260200190815260200160002060090160006101000a81548173ffffffffffffffffffffffffffffffffffffffff021916908373ffffffffffffffffffffffffffffffffffffffff160217905550888d600601600083815260200190815260200160002060020181905550878d600601600083815260200190815260200160002060000160086101000a81548160ff021916908360ff160217905550868d600601600083815260200190815260200160002060000160096101000a81548160ff021916908360ff160217905550858d600601600083815260200190815260200160002060000160006101000a81548160ff021916908315150217905550848d600601600083815260200190815260200160002060000160016101000a81548160ff021916908315150217905550828d600601600083815260200190815260200160002060000160026101000a81548160ff021916908315150217905550838d600601600083815260200190815260200160002060000160036101000a81548160ff021916908315150217905550818d6006016000838152602001908152602001600020600101819055508c6001015442018d60060160008381526020019081526020016000206003018190555060008d600601600083815260200190815260200160002060000160046101000a81548160ff02191690831515021790555060008d600601600083815260200190815260200160002060000160076101000a81548160ff02191690831515021790555060008d600601600083815260200190815260200160002060000160056101000a81548160ff02191690831515021790555060008d600601600083815260200190815260200160002060000160066101000a81548160ff02191690831515021790555060008d60060160008381526020019081526020016000206005018190555060008d600601600083815260200190815260200160002060040181905550808d60060160008381526020019081526020016000206006018190555060018d600401600082825401925050819055507ff92a740d453f330ca11a309148b364fabf2da98f81f4fc2c876ff86a4844da8b338d84848d8d8d604051808873ffffffffffffffffffffffffffffffffffffffff1673ffffffffffffffffffffffffffffffffffffffff1681526020018773ffffffffffffffffffffffffffffffffffffffff1673ffffffffffffffffffffffffffffffffffffffff1681526020018681526020018581526020018481526020018360ff1660ff1681526020018260ff1660ff16815260200197505050505050505060405180910390a17fe00280f434fd134c148d59d0345a47457ed75114c60d70d759e43848b8faf7f58b8b604051808373ffffffffffffffffffffffffffffffffffffffff1673ffffffffffffffffffffffffffffffffffffffff1681526020018273ffffffffffffffffffffffffffffffffffffffff1673ffffffffffffffffffffffffffffffffffffffff1681526020019250505060405180910390a16003821015611228577fb91f9b0f33e5d279420575ac3eb8a99efa85ec13ee39f815477e6043c3d76fa1818787604051808481526020018315151515815260200182151515158152602001935050505060405180910390a16112a6565b6002821180156112385750600682105b156112a5577f4d99d0eecab7fb4d4b35d5f0277148953e6b8046c83debc341fe52de98fe0482818787878760405180868152602001851515151581526020018415151515815260200183151515158152602001821515151581526020019550505050505060405180910390a15b5b9c9b505050505050505050505050565b8160000160079054906101000a900460ff16156112d257600080fd5b8160000160059054906101000a900460ff166112ed57600080fd5b8160000160069054906101000a900460ff1661130857600080fd5b806113aa5760018260000160076101000a81548160ff0219169083151502179055507fed7c73834db4ae22add7f637175d8a32a1dddae4c154ccd25195b77df4c8d18d33836006015483604051808473ffffffffffffffffffffffffffffffffffffffff1673ffffffffffffffffffffffffffffffffffffffff16815260200183815260200182151515158152602001935050505060405180910390a1611f5e565b60068260010154101561147257600073ffffffffffffffffffffffffffffffffffffffff168260080160009054906101000a900473ffffffffffffffffffffffffffffffffffffffff1673ffffffffffffffffffffffffffffffffffffffff161415806114685750600073ffffffffffffffffffffffffffffffffffffffff168260090160009054906101000a900473ffffffffffffffffffffffffffffffffffffffff1673ffffffffffffffffffffffffffffffffffffffff1614155b61147157600080fd5b5b60008260070160009054906101000a900473ffffffffffffffffffffffffffffffffffffffff1690506000836001015414156115a2578073ffffffffffffffffffffffffffffffffffffffff16633f7819a18460080160009054906101000a900473ffffffffffffffffffffffffffffffffffffffff168560000160009054906101000a900460ff168660000160019054906101000a900460ff166040518463ffffffff1660e01b8152600401808473ffffffffffffffffffffffffffffffffffffffff1673ffffffffffffffffffffffffffffffffffffffff16815260200183151515158152602001821515151581526020019350505050600060405180830381600087803b15801561158557600080fd5b505af1158015611599573d6000803e3d6000fd5b50505050611ec4565b60018360010154141561166f578073ffffffffffffffffffffffffffffffffffffffff166331a791988460090160009054906101000a900473ffffffffffffffffffffffffffffffffffffffff166040518263ffffffff1660e01b8152600401808273ffffffffffffffffffffffffffffffffffffffff1673ffffffffffffffffffffffffffffffffffffffff168152602001915050600060405180830381600087803b15801561165257600080fd5b505af1158015611666573d6000803e3d6000fd5b50505050611ec3565b6002836001015414156117ce578073ffffffffffffffffffffffffffffffffffffffff16636f2a4d5f8460090160009054906101000a900473ffffffffffffffffffffffffffffffffffffffff168560080160009054906101000a900473ffffffffffffffffffffffffffffffffffffffff168660000160009054906101000a900460ff168760000160019054906101000a900460ff166040518563ffffffff1660e01b8152600401808573ffffffffffffffffffffffffffffffffffffffff1673ffffffffffffffffffffffffffffffffffffffff1681526020018473ffffffffffffffffffffffffffffffffffffffff1673ffffffffffffffffffffffffffffffffffffffff1681526020018315151515815260200182151515158152602001945050505050600060405180830381600087803b1580156117b157600080fd5b505af11580156117c5573d6000803e3d6000fd5b50505050611ec2565b60038360010154141561190f578073ffffffffffffffffffffffffffffffffffffffff166379524d2d8460080160009054906101000a900473ffffffffffffffffffffffffffffffffffffffff168560000160009054906101000a900460ff168660000160019054906101000a900460ff168760000160039054906101000a900460ff168860000160029054906101000a900460ff166040518663ffffffff1660e01b8152600401808673ffffffffffffffffffffffffffffffffffffffff1673ffffffffffffffffffffffffffffffffffffffff1681526020018515151515815260200184151515158152602001831515151581526020018215151515815260200195505050505050600060405180830381600087803b1580156118f257600080fd5b505af1158015611906573d6000803e3d6000fd5b50505050611ec1565b6004836001015414156119dc578073ffffffffffffffffffffffffffffffffffffffff166311c604188460090160009054906101000a900473ffffffffffffffffffffffffffffffffffffffff166040518263ffffffff1660e01b8152600401808273ffffffffffffffffffffffffffffffffffffffff1673ffffffffffffffffffffffffffffffffffffffff168152602001915050600060405180830381600087803b1580156119bf57600080fd5b505af11580156119d3573d6000803e3d6000fd5b50505050611ec0565b600583600101541415611b75578073ffffffffffffffffffffffffffffffffffffffff166371e7f3748460090160009054906101000a900473ffffffffffffffffffffffffffffffffffffffff168560080160009054906101000a900473ffffffffffffffffffffffffffffffffffffffff168660000160009054906101000a900460ff168760000160019054906101000a900460ff168860000160039054906101000a900460ff168960000160029054906101000a900460ff166040518763ffffffff1660e01b8152600401808773ffffffffffffffffffffffffffffffffffffffff1673ffffffffffffffffffffffffffffffffffffffff1681526020018673ffffffffffffffffffffffffffffffffffffffff1673ffffffffffffffffffffffffffffffffffffffff168152602001851515151581526020018415151515815260200183151515158152602001821515151581526020019650505050505050600060405180830381600087803b158015611b5857600080fd5b505af1158015611b6c573d6000803e3d6000fd5b50505050611ebf565b600683600101541415611cb0578073ffffffffffffffffffffffffffffffffffffffff1663a08c3cb58460080160009054906101000a900473ffffffffffffffffffffffffffffffffffffffff1685600201548660000160089054906101000a900460ff168760000160099054906101000a900460ff166040518563ffffffff1660e01b8152600401808573ffffffffffffffffffffffffffffffffffffffff1673ffffffffffffffffffffffffffffffffffffffff1681526020018481526020018360ff1660ff1681526020018260ff1660ff168152602001945050505050602060405180830381600087803b158015611c6f57600080fd5b505af1158015611c83573d6000803e3d6000fd5b505050506040513d6020811015611c9957600080fd5b810190808051906020019092919050505050611ebe565b600783600101541415611d67578073ffffffffffffffffffffffffffffffffffffffff16630e9defff8460090160009054906101000a900473ffffffffffffffffffffffffffffffffffffffff1673ffffffffffffffffffffffffffffffffffffffff166040518263ffffffff1660e01b815260040180828152602001915050600060405180830381600087803b158015611d4a57600080fd5b505af1158015611d5e573d6000803e3d6000fd5b50505050611ebd565b600883600101541415611ebc578073ffffffffffffffffffffffffffffffffffffffff16636c49e0878460090160009054906101000a900473ffffffffffffffffffffffffffffffffffffffff1673ffffffffffffffffffffffffffffffffffffffff168560080160009054906101000a900473ffffffffffffffffffffffffffffffffffffffff1686600201548760000160089054906101000a900460ff168860000160099054906101000a900460ff166040518663ffffffff1660e01b8152600401808681526020018573ffffffffffffffffffffffffffffffffffffffff1673ffffffffffffffffffffffffffffffffffffffff1681526020018481526020018360ff1660ff1681526020018260ff1660ff16815260200195505050505050600060405180830381600087803b158015611ea357600080fd5b505af1158015611eb7573d6000803e3d6000fd5b505050505b5b5b5b5b5b5b5b5b60018360000160076101000a81548160ff0219169083151502179055507fed7c73834db4ae22add7f637175d8a32a1dddae4c154ccd25195b77df4c8d18d33846006015484604051808473ffffffffffffffffffffffffffffffffffffffff1673ffffffffffffffffffffffffffffffffffffffff16815260200183815260200182151515158152602001935050505060405180910390a1505b5050565b8160000160079054906101000a900460ff1615611f7e57600080fd5b8160000160059054906101000a900460ff16611f9957600080fd5b8160000160069054906101000a900460ff16611fb457600080fd5b80806120215750600073ffffffffffffffffffffffffffffffffffffffff168260080160009054906101000a900473ffffffffffffffffffffffffffffffffffffffff1673ffffffffffffffffffffffffffffffffffffffff1614158061202057506000826001015414155b5b156121185760008260070160009054906101000a900473ffffffffffffffffffffffffffffffffffffffff1690508073ffffffffffffffffffffffffffffffffffffffff1663117de2fd8460080160009054906101000a900473ffffffffffffffffffffffffffffffffffffffff1685600101546040518363ffffffff1660e01b8152600401808373ffffffffffffffffffffffffffffffffffffffff1673ffffffffffffffffffffffffffffffffffffffff16815260200182815260200192505050600060405180830381600087803b1580156120fe57600080fd5b505af1158015612112573d6000803e3d6000fd5b50505050505b60018260000160076101000a81548160ff0219169083151502179055507fed7c73834db4ae22add7f637175d8a32a1dddae4c154ccd25195b77df4c8d18d33836006015483604051808473ffffffffffffffffffffffffffffffffffffffff1673ffffffffffffffffffffffffffffffffffffffff16815260200183815260200182151515158152602001935050505060405180910390a15050565b600081156121ca57826001901b841790506121d5565b826001901b19841690505b939250505056fea265627a7a72315820ccc6905ce55e3a2837d9052476bdbb52700d9e924927471a5d7799a19bf8d92564736f6c634300050c0032",
  "source": "pragma solidity >=0.4.22 <0.6.0;\r\n\r\nimport \"../Organ.sol\";\r\n\r\n/**\r\n\r\nKelsen Framework\r\nProcedure library\r\nThis library is used to hold the logic common to all procedures\r\n\r\n**/\r\nlibrary propositionVotingLibrary {\r\n  \r\n    struct VotingProcessInfo \r\n    {\r\n        uint quorumSize;\r\n        uint votingPeriodDuration;\r\n        uint promulgationPeriodDuration;\r\n        uint majoritySize;\r\n        uint nextPropositionNumber;\r\n        // Mapping to track user participation\r\n        mapping(address => uint256) userParticipation;\r\n        mapping(uint => Proposition) propositions;\r\n    }\r\n\r\n        // Proposition structure\r\n    struct Proposition \r\n    {\r\n        //Authorization bools\r\n        bool canAdd;  // if true, Admin can add norms\r\n        bool canDelete;  // if true, Admin can delete norms\r\n        bool canSpend;\r\n        bool canDeposit;\r\n        // Counting bools\r\n        bool wasVetoed;\r\n        bool wasCounted;\r\n        bool wasAccepted;\r\n        bool wasEnded;\r\n        uint8 hash_function;\r\n        uint8 size;\r\n        // Proposition type typonomy\r\n        // 0: Add master\r\n        // 1: Remove master\r\n        // 2: Replace master\r\n        // 3: Add admin\r\n        // 4: Remove admin\r\n        // 5: Replace admin\r\n        // 6: Add norm\r\n        // 7: Remove norm. In this case, the norm to be removed must be designated by its NUMBER, encoded in hex in the contractToRemove field.\r\n        // 8: Replace norm. In this case, the norm to be replaced must be designated by its NUMBER, encoded in hex in the contractToRemove field.\r\n        // If the proposition is a payout proposition, the propositionType field is used to specify the desired payout. \r\n        // In this case it needs to be processed with the processPayoutPropositionLib() function\r\n        uint propositionType;\r\n        bytes32 ipfsHash; // ID of proposal on IPFS\r\n        \r\n        uint votingPeriodEndDate;\r\n        uint voteFor;\r\n        // uint voteAgainst;\r\n        uint totalVoteCount;\r\n        uint propositionNumber;\r\n        // Proposition details\r\n        address payable targetOrgan;\r\n        address payable contractToAdd;\r\n        address contractToRemove;\r\n    }\r\n\r\n    // Events\r\n\r\n    event createPropositionEvent(address _from, address _targetOrgan, uint _propositionType, uint _propositionNumber, bytes32 _ipfsHash, uint8 _hash_function, uint8 _size);\r\n    event createPropositionDetails(address _contractToAdd, address _contractToRemove);\r\n    event createMasterPropositionEvent(uint _propositionNumber, bool _canAdd, bool _canDelete);\r\n    event createAdminPropositionEvent(uint _propositionNumber, bool _canAdd, bool _canDelete, bool _canDeposit, bool _canSpend);\r\n    event voteOnProposition(address _from, uint _propositionNumber);\r\n    event vetoProposition(address _from, uint _propositionNumber);\r\n    event countVotes(address _from, uint _propositionNumber);\r\n    event promulgatePropositionEvent(address _from, uint _propositionNumber, bool _promulgate);\r\n\r\n\r\n    function initElectionParameters(VotingProcessInfo storage self, uint _quorumSize, uint _votingPeriodDuration, uint _promulgationPeriodDuration, uint _majoritySize)\r\n    public\r\n    {\r\n        self.quorumSize = _quorumSize;\r\n        self.votingPeriodDuration = _votingPeriodDuration;\r\n        self.promulgationPeriodDuration = _promulgationPeriodDuration;\r\n        self.majoritySize = _majoritySize;\r\n    }\r\n\r\n    function getBoolean(uint256 _packedBools, uint256 _boolNumber)\r\n    public \r\n    pure \r\n    returns(bool)\r\n    {\r\n        uint256 flag = (_packedBools >> _boolNumber) & uint256(1);\r\n        return (flag == 1 ? true : false);\r\n    }\r\n\r\n    function setBoolean(uint256 _packedBools, uint256 _boolNumber, bool _value) \r\n    public \r\n    pure \r\n    returns(uint256) \r\n    {\r\n        if (_value)\r\n            return _packedBools | uint256(1) << _boolNumber;\r\n        else\r\n            return _packedBools & ~(uint256(1) << _boolNumber);\r\n    }\r\n\r\n        /// Create a new ballot to choose one of `proposalNames`.\r\n    function createPropositionLib(VotingProcessInfo storage self, address payable _targetOrgan, address payable _contractToAdd, address _contractToRemove, bytes32 _ipfsHash, uint8 _hash_function, uint8 _size, bool _canAdd, bool _canDelete, bool _canDeposit, bool _canSpend, uint _propositionType) \r\n    public \r\n    returns (uint propositionNumber)\r\n    {\r\n        // Retrieving proposition number\r\n        propositionNumber = self.nextPropositionNumber;\r\n\r\n        self.propositions[propositionNumber].targetOrgan = _targetOrgan;\r\n        self.propositions[propositionNumber].contractToAdd = _contractToAdd;\r\n        self.propositions[propositionNumber].contractToRemove = _contractToRemove;\r\n        self.propositions[propositionNumber].ipfsHash = _ipfsHash;\r\n        self.propositions[propositionNumber].hash_function = _hash_function;\r\n        self.propositions[propositionNumber].size = _size;\r\n        self.propositions[propositionNumber].canAdd = _canAdd;\r\n        self.propositions[propositionNumber].canDelete = _canDelete;\r\n        self.propositions[propositionNumber].canSpend = _canSpend;\r\n        self.propositions[propositionNumber].canDeposit = _canDeposit;\r\n        self.propositions[propositionNumber].propositionType = _propositionType;\r\n        self.propositions[propositionNumber].votingPeriodEndDate = now + self.votingPeriodDuration;            \r\n        self.propositions[propositionNumber].wasVetoed = false;\r\n        self.propositions[propositionNumber].wasEnded = false;\r\n        self.propositions[propositionNumber].wasCounted = false;\r\n        self.propositions[propositionNumber].wasAccepted = false;\r\n        self.propositions[propositionNumber].totalVoteCount = 0;\r\n        self.propositions[propositionNumber].voteFor = 0;\r\n        self.propositions[propositionNumber].propositionNumber = propositionNumber;\r\n\r\n        self.nextPropositionNumber += 1;\r\n\r\n        // proposition creation event\r\n        emit createPropositionEvent(msg.sender, _targetOrgan, _propositionType, propositionNumber, _ipfsHash, _hash_function, _size);\r\n        emit createPropositionDetails(_contractToAdd, _contractToRemove);\r\n        if (_propositionType < 3)\r\n        {\r\n            // Master proposition event\r\n            emit createMasterPropositionEvent(propositionNumber, _canAdd, _canDelete);\r\n        }\r\n        else if (_propositionType > 2 && _propositionType < 6)\r\n        {\r\n            // Admin proposition event\r\n            emit createAdminPropositionEvent(propositionNumber, _canAdd, _canDelete, _canDeposit, _canSpend);\r\n        }\r\n    }\r\n\r\n        /// Vote for a proposition\r\n    function voteLib(VotingProcessInfo storage self, Proposition storage proposition, bool _acceptProposition) \r\n    public \r\n    {\r\n        // Check if voter already voted\r\n        require(!getBoolean(self.userParticipation[msg.sender], proposition.propositionNumber));\r\n\r\n        // Check if vote is still active\r\n        require(!proposition.wasCounted);\r\n\r\n        // Check if voting period ended\r\n        require(proposition.votingPeriodEndDate > now);\r\n\r\n        // Adding vote\r\n        if(_acceptProposition == true)\r\n        {\r\n            proposition.voteFor += 1;\r\n        }\r\n\r\n        // Loggin that user voted\r\n        setBoolean(self.userParticipation[msg.sender], proposition.propositionNumber, true);\r\n\r\n        // Adding vote count\r\n        proposition.totalVoteCount += 1;\r\n\r\n        // create vote event\r\n        emit voteOnProposition(msg.sender, proposition.propositionNumber);\r\n    }\r\n\r\n        /// Vote for a candidate\r\n    function vetoLib(Proposition storage proposition) \r\n    public \r\n    {\r\n        // Check if vote is still active\r\n        require(!proposition.wasCounted);\r\n\r\n        // Check if voting period ended\r\n        require(proposition.votingPeriodEndDate > now);\r\n\r\n        // Log that proposition was vetoed\r\n        proposition.wasVetoed = true;\r\n\r\n        //  Create veto event\r\n        emit vetoProposition(msg.sender, proposition.propositionNumber);\r\n    }\r\n\r\n    function endPropositionVoteLib(VotingProcessInfo storage self, Proposition storage proposition, address payable votersOrganAddress) \r\n    public \r\n    returns (bool hasBeenAccepted) \r\n    {\r\n        // We check if the vote was already counted\r\n        require(!proposition.wasCounted);\r\n\r\n        // Checking that the vote can be closed\r\n        require(proposition.votingPeriodEndDate < now);\r\n\r\n        // Checking that the proposition has been initialised\r\n        require(proposition.votingPeriodEndDate != 0);\r\n\r\n        Organ voterRegistryOrgan = Organ(votersOrganAddress);\r\n        ( ,uint voterNumber) = voterRegistryOrgan.organInfos();\r\n\r\n        // We check that Quorum was obtained and that a majority of votes were cast in favor of the proposition\r\n        if (proposition.wasVetoed)\r\n            {hasBeenAccepted=false;\r\n                proposition.wasEnded = true;}\r\n        else if\r\n            ((proposition.totalVoteCount*100 >= self.quorumSize*voterNumber) && (proposition.voteFor*100 > proposition.totalVoteCount*self.majoritySize))\r\n            {hasBeenAccepted = true;}\r\n        else \r\n            {hasBeenAccepted=false;\r\n            proposition.wasEnded = true;}\r\n\r\n\r\n        // ############## Updating ballot values if vote concluded\r\n        proposition.wasCounted = true;\r\n        proposition.wasAccepted = hasBeenAccepted;\r\n\r\n        emit countVotes(msg.sender, proposition.propositionNumber);\r\n\r\n        return hasBeenAccepted;\r\n    }\r\n\r\n    function promulgatePropositionLib(Proposition storage proposition, bool _promulgate) \r\n    public \r\n    {\r\n        // Checking if ballot was already enforced\r\n        require(!proposition.wasEnded );\r\n\r\n        // Checking the ballot was counted\r\n        require(proposition.wasCounted);\r\n\r\n        // Checking the ballot was accepted\r\n        require(proposition.wasAccepted);\r\n\r\n        // Checking if the promulgator is chosing to invalidate the proposition\r\n        if (!_promulgate)\r\n        {\r\n            // The promulgator choses to invalidate the promulgation\r\n            proposition.wasEnded = true;\r\n            emit promulgatePropositionEvent(msg.sender, proposition.propositionNumber, _promulgate);\r\n            return;\r\n        }\r\n\r\n        // If were are manipulating admin/masters, verify that at contractToRemove and contractToAdd are not both empty\r\n        if (proposition.propositionType < 6)\r\n        {\r\n            require((proposition.contractToAdd != address(0)) || (proposition.contractToRemove != address(0))); \r\n        }\r\n\r\n         // We initiate the Organ interface to add a norm / Admin / master\r\n        Organ affectedOrgan = Organ(proposition.targetOrgan);\r\n\r\n        // Adding a master\r\n        if (proposition.propositionType == 0)\r\n        {\r\n            affectedOrgan.addMaster(proposition.contractToAdd, proposition.canAdd, proposition.canDelete);\r\n        }\r\n        // Removing a master\r\n        else if (proposition.propositionType == 1)\r\n        {\r\n            affectedOrgan.remMaster(proposition.contractToRemove);\r\n        }\r\n        // Replacing a master\r\n        else if (proposition.propositionType == 2)\r\n        {\r\n            affectedOrgan.replaceMaster(proposition.contractToRemove, proposition.contractToAdd, proposition.canAdd, proposition.canDelete);\r\n        }\r\n        // Adding an admin\r\n        else if (proposition.propositionType == 3)\r\n        {\r\n            affectedOrgan.addAdmin(proposition.contractToAdd, proposition.canAdd, proposition.canDelete, proposition.canDeposit, proposition.canSpend);\r\n        }\r\n        // Removing an admin\r\n        else if (proposition.propositionType == 4)\r\n        {\r\n            affectedOrgan.remAdmin(proposition.contractToRemove);\r\n        }\r\n        // Replacing an admin\r\n        else if (proposition.propositionType == 5)\r\n        {\r\n            affectedOrgan.replaceAdmin(proposition.contractToRemove, proposition.contractToAdd, proposition.canAdd, proposition.canDelete, proposition.canDeposit, proposition.canSpend);\r\n        }\r\n        // Adding a norm\r\n        else if (proposition.propositionType == 6)\r\n        {\r\n            affectedOrgan.addNorm(proposition.contractToAdd, proposition.ipfsHash, proposition.hash_function, proposition.size );\r\n        }\r\n        // Removing a norm\r\n        else if (proposition.propositionType == 7)\r\n        {\r\n            affectedOrgan.remNorm(uint(proposition.contractToRemove));\r\n        }\r\n        // Replacing a norm\r\n        else if (proposition.propositionType == 8)\r\n        {\r\n            affectedOrgan.replaceNorm(uint(proposition.contractToRemove), proposition.contractToAdd , proposition.ipfsHash, proposition.hash_function, proposition.size);\r\n        }\r\n       \r\n        proposition.wasEnded = true;\r\n\r\n        // promulgation event\r\n        emit promulgatePropositionEvent(msg.sender, proposition.propositionNumber, _promulgate);\r\n    }\r\n\r\n    function archiveDefunctPropositionLib(Proposition storage proposition) \r\n    public \r\n    {\r\n        // Checking that the proposition has been initialised\r\n        require(proposition.votingPeriodEndDate != 0);\r\n        \r\n        // If a proposition contains an instruction that can not be executed (eg \"add an admin\" without having canAdd enabled), this proposition can be closed\r\n\r\n        Organ targetOrganContract = Organ(proposition.targetOrgan);\r\n        bool canAdd;\r\n        bool canDelete;\r\n        if (proposition.propositionType < 6)\r\n        {\r\n            (canAdd, canDelete) = targetOrganContract.isMaster(address(this));\r\n        }\r\n        else \r\n        {\r\n            (canAdd, canDelete, , ) = targetOrganContract.isAdmin(address(this));\r\n        }\r\n        \r\n        if ((!canAdd && (proposition.contractToAdd != address(0))) || (!canDelete && (proposition.contractToRemove != address(0))) )\r\n        {\r\n            proposition.wasEnded = true;\r\n        }\r\n        emit promulgatePropositionEvent(msg.sender, proposition.propositionNumber, false);\r\n    }\r\n\r\n    function processPayoutPropositionLib(Proposition storage proposition, bool _promulgate) \r\n    public\r\n    {\r\n        // Checking if ballot was already enforced\r\n        require(!proposition.wasEnded );\r\n\r\n        // Checking the ballot was counted\r\n        require(proposition.wasCounted);\r\n\r\n        // Checking the ballot was accepted\r\n        require(proposition.wasAccepted);\r\n\r\n        if ((_promulgate)||((proposition.contractToAdd != address(0)) || (proposition.propositionType != 0)))\r\n        {\r\n            // We initiate the Organ interface to add a norm\r\n            Organ affectedOrgan = Organ(proposition.targetOrgan);\r\n            affectedOrgan.payout(proposition.contractToAdd, proposition.propositionType);\r\n        }\r\n\r\n        proposition.wasEnded = true;\r\n\r\n        // Promulgation event\r\n        emit promulgatePropositionEvent(msg.sender, proposition.propositionNumber, _promulgate);\r\n    }\r\n}",
  "sourcePath": "C:\\Users\\Ewan Debove\\Documents\\A5\\Blockchain Programming\\TD7\\contracts\\utils\\Kelsen\\solidity\\contracts\\libraries\\propositionVotingLibrary.sol",
  "compiler": {
    "name": "solc",
    "version": "0.5.12+commit.7709ece9.Emscripten.clang"
  },
  "schemaVersion": "3.0.19",
  "updatedAt": "2019-12-04T11:02:19.007Z",
  "devdoc": {
    "methods": {}
  },
  "userdoc": {
    "methods": {
      "createPropositionLib(propositionVotingLibrary.VotingProcessInfo storage,address,address,address,bytes32,uint8,uint8,bool,bool,bool,bool,uint256)": {
        "notice": "Create a new ballot to choose one of `proposalNames`."
      },
      "vetoLib(propositionVotingLibrary.Proposition storage)": {
        "notice": "Vote for a candidate"
      },
      "voteLib(propositionVotingLibrary.VotingProcessInfo storage,propositionVotingLibrary.Proposition storage,bool)": {
        "notice": "Vote for a proposition"
      }
    },
    "notice": "Kelsen Framework Procedure library This library is used to hold the logic common to all procedures*"
  }
}