{
  "contractName": "simpleAdminsAndMasterNominationProcedure",
  "abi": [
    {
      "inputs": [
        {
          "internalType": "address payable",
          "name": "_authorizedNominatersOrgan",
          "type": "address"
        },
        {
          "internalType": "bytes32",
          "name": "_name",
          "type": "bytes32"
        }
      ],
      "payable": false,
      "stateMutability": "nonpayable",
      "type": "constructor"
    },
    {
      "constant": true,
      "inputs": [],
      "name": "isAProcedure",
      "outputs": [
        {
          "internalType": "bool",
          "name": "",
          "type": "bool"
        }
      ],
      "payable": false,
      "stateMutability": "view",
      "type": "function"
    },
    {
      "constant": true,
      "inputs": [],
      "name": "isAnOrgan",
      "outputs": [
        {
          "internalType": "bool",
          "name": "",
          "type": "bool"
        }
      ],
      "payable": false,
      "stateMutability": "view",
      "type": "function"
    },
    {
      "constant": true,
      "inputs": [],
      "name": "kelsenVersionNumber",
      "outputs": [
        {
          "internalType": "int256",
          "name": "",
          "type": "int256"
        }
      ],
      "payable": false,
      "stateMutability": "view",
      "type": "function"
    },
    {
      "constant": true,
      "inputs": [],
      "name": "linkedOrgans",
      "outputs": [
        {
          "internalType": "address payable",
          "name": "firstOrganAddress",
          "type": "address"
        }
      ],
      "payable": false,
      "stateMutability": "view",
      "type": "function"
    },
    {
      "constant": true,
      "inputs": [],
      "name": "procedureInfo",
      "outputs": [
        {
          "internalType": "uint256",
          "name": "procedureTypeNumber",
          "type": "uint256"
        },
        {
          "internalType": "bytes32",
          "name": "procedureName",
          "type": "bytes32"
        },
        {
          "internalType": "uint256",
          "name": "linkedOrgans",
          "type": "uint256"
        }
      ],
      "payable": false,
      "stateMutability": "view",
      "type": "function"
    },
    {
      "constant": false,
      "inputs": [
        {
          "internalType": "address payable",
          "name": "_organToReform",
          "type": "address"
        },
        {
          "internalType": "address",
          "name": "_newAdmin",
          "type": "address"
        },
        {
          "internalType": "bool",
          "name": "_canAdd",
          "type": "bool"
        },
        {
          "internalType": "bool",
          "name": "_canDelete",
          "type": "bool"
        },
        {
          "internalType": "bool",
          "name": "_canDeposit",
          "type": "bool"
        },
        {
          "internalType": "bool",
          "name": "_canSpend",
          "type": "bool"
        }
      ],
      "name": "addAdmin",
      "outputs": [],
      "payable": false,
      "stateMutability": "nonpayable",
      "type": "function"
    },
    {
      "constant": false,
      "inputs": [
        {
          "internalType": "address payable",
          "name": "_organToReform",
          "type": "address"
        },
        {
          "internalType": "address",
          "name": "_oldAdmin",
          "type": "address"
        }
      ],
      "name": "remAdmin",
      "outputs": [],
      "payable": false,
      "stateMutability": "nonpayable",
      "type": "function"
    },
    {
      "constant": false,
      "inputs": [
        {
          "internalType": "address payable",
          "name": "_organToReform",
          "type": "address"
        },
        {
          "internalType": "address",
          "name": "_oldAdmin",
          "type": "address"
        },
        {
          "internalType": "address",
          "name": "_newAdmin",
          "type": "address"
        },
        {
          "internalType": "bool",
          "name": "_canAdd",
          "type": "bool"
        },
        {
          "internalType": "bool",
          "name": "_canDelete",
          "type": "bool"
        },
        {
          "internalType": "bool",
          "name": "_canDeposit",
          "type": "bool"
        },
        {
          "internalType": "bool",
          "name": "_canSpend",
          "type": "bool"
        }
      ],
      "name": "replaceAdmin",
      "outputs": [],
      "payable": false,
      "stateMutability": "nonpayable",
      "type": "function"
    },
    {
      "constant": false,
      "inputs": [
        {
          "internalType": "address payable",
          "name": "_organToReform",
          "type": "address"
        },
        {
          "internalType": "address",
          "name": "_newMaster",
          "type": "address"
        },
        {
          "internalType": "bool",
          "name": "_canAdd",
          "type": "bool"
        },
        {
          "internalType": "bool",
          "name": "_canDelete",
          "type": "bool"
        }
      ],
      "name": "addMaster",
      "outputs": [],
      "payable": false,
      "stateMutability": "nonpayable",
      "type": "function"
    },
    {
      "constant": false,
      "inputs": [
        {
          "internalType": "address payable",
          "name": "_organToReform",
          "type": "address"
        },
        {
          "internalType": "address",
          "name": "_oldMaster",
          "type": "address"
        }
      ],
      "name": "remMaster",
      "outputs": [],
      "payable": false,
      "stateMutability": "nonpayable",
      "type": "function"
    },
    {
      "constant": false,
      "inputs": [
        {
          "internalType": "address payable",
          "name": "_organToReform",
          "type": "address"
        },
        {
          "internalType": "address",
          "name": "_oldMaster",
          "type": "address"
        },
        {
          "internalType": "address",
          "name": "_newMaster",
          "type": "address"
        },
        {
          "internalType": "bool",
          "name": "_canAdd",
          "type": "bool"
        },
        {
          "internalType": "bool",
          "name": "_canDelete",
          "type": "bool"
        }
      ],
      "name": "replaceMaster",
      "outputs": [],
      "payable": false,
      "stateMutability": "nonpayable",
      "type": "function"
    }
  ],
  "bytecode": "0x608060405260026000556000600560006101000a81548160ff0219169083151502179055506001600560016101000a81548160ff02191690831515021790555034801561004b57600080fd5b50604051610dc1380380610dc18339818101604052604081101561006e57600080fd5b810190808051906020019092919080519060200190929190505050600273__procedureLibrary______________________6356e77656909160048460016040518563ffffffff1660e01b81526004018085815260200184815260200183815260200182815260200194505050505060006040518083038186803b1580156100f557600080fd5b505af4158015610109573d6000803e3d6000fd5b50505050600673__procedureLibrary______________________63e0f433789091846040518363ffffffff1660e01b8152600401808381526020018273ffffffffffffffffffffffffffffffffffffffff1673ffffffffffffffffffffffffffffffffffffffff1681526020019250505060006040518083038186803b15801561019357600080fd5b505af41580156101a7573d6000803e3d6000fd5b505050505050610c05806101bc6000396000f3fe608060405234801561001057600080fd5b50600436106100a95760003560e01c80639397942e116100715780639397942e146102fc5780639e3dd25914610328578063a14db35214610372578063a8bef97a14610406578063e80b30a514610428578063f69c87511461044a576100a9565b80631d595bf4146100ae57806333754ae6146101125780633a00f8ec1461018e57806345344a3b146102425780635dbe4d28146102de575b600080fd5b610110600480360360408110156100c457600080fd5b81019080803573ffffffffffffffffffffffffffffffffffffffff169060200190929190803573ffffffffffffffffffffffffffffffffffffffff1690602001909291905050506104ae565b005b61018c6004803603608081101561012857600080fd5b81019080803573ffffffffffffffffffffffffffffffffffffffff169060200190929190803573ffffffffffffffffffffffffffffffffffffffff16906020019092919080351515906020019092919080351515906020019092919050505061057d565b005b610240600480360360e08110156101a457600080fd5b81019080803573ffffffffffffffffffffffffffffffffffffffff169060200190929190803573ffffffffffffffffffffffffffffffffffffffff169060200190929190803573ffffffffffffffffffffffffffffffffffffffff169060200190929190803515159060200190929190803515159060200190929190803515159060200190929190803515159060200190929190505050610666565b005b6102dc600480360360a081101561025857600080fd5b81019080803573ffffffffffffffffffffffffffffffffffffffff169060200190929190803573ffffffffffffffffffffffffffffffffffffffff169060200190929190803573ffffffffffffffffffffffffffffffffffffffff16906020019092919080351515906020019092919080351515906020019092919050505061079e565b005b6102e66108bc565b6040518082815260200191505060405180910390f35b6103046108c2565b60405180848152602001838152602001828152602001935050505060405180910390f35b6103306108da565b604051808273ffffffffffffffffffffffffffffffffffffffff1673ffffffffffffffffffffffffffffffffffffffff16815260200191505060405180910390f35b610404600480360360c081101561038857600080fd5b81019080803573ffffffffffffffffffffffffffffffffffffffff169060200190929190803573ffffffffffffffffffffffffffffffffffffffff169060200190929190803515159060200190929190803515159060200190929190803515159060200190929190803515159060200190929190505050610906565b005b61040e610a09565b604051808215151515815260200191505060405180910390f35b610430610a1c565b604051808215151515815260200191505060405180910390f35b6104ac6004803603604081101561046057600080fd5b81019080803573ffffffffffffffffffffffffffffffffffffffff169060200190929190803573ffffffffffffffffffffffffffffffffffffffff169060200190929190505050610a2f565b005b6104dc600660000160009054906101000a900473ffffffffffffffffffffffffffffffffffffffff16610afe565b60008290508073ffffffffffffffffffffffffffffffffffffffff166311c60418836040518263ffffffff1660e01b8152600401808273ffffffffffffffffffffffffffffffffffffffff1673ffffffffffffffffffffffffffffffffffffffff168152602001915050600060405180830381600087803b15801561056057600080fd5b505af1158015610574573d6000803e3d6000fd5b50505050505050565b6105ab600660000160009054906101000a900473ffffffffffffffffffffffffffffffffffffffff16610afe565b60008490508073ffffffffffffffffffffffffffffffffffffffff16633f7819a18585856040518463ffffffff1660e01b8152600401808473ffffffffffffffffffffffffffffffffffffffff1673ffffffffffffffffffffffffffffffffffffffff16815260200183151515158152602001821515151581526020019350505050600060405180830381600087803b15801561064757600080fd5b505af115801561065b573d6000803e3d6000fd5b505050505050505050565b610694600660000160009054906101000a900473ffffffffffffffffffffffffffffffffffffffff16610afe565b60008790508073ffffffffffffffffffffffffffffffffffffffff166371e7f3748888888888886040518763ffffffff1660e01b8152600401808773ffffffffffffffffffffffffffffffffffffffff1673ffffffffffffffffffffffffffffffffffffffff1681526020018673ffffffffffffffffffffffffffffffffffffffff1673ffffffffffffffffffffffffffffffffffffffff168152602001851515151581526020018415151515815260200183151515158152602001821515151581526020019650505050505050600060405180830381600087803b15801561077c57600080fd5b505af1158015610790573d6000803e3d6000fd5b505050505050505050505050565b6107cc600660000160009054906101000a900473ffffffffffffffffffffffffffffffffffffffff16610afe565b60008590508073ffffffffffffffffffffffffffffffffffffffff16636f2a4d5f868686866040518563ffffffff1660e01b8152600401808573ffffffffffffffffffffffffffffffffffffffff1673ffffffffffffffffffffffffffffffffffffffff1681526020018473ffffffffffffffffffffffffffffffffffffffff1673ffffffffffffffffffffffffffffffffffffffff1681526020018315151515815260200182151515158152602001945050505050600060405180830381600087803b15801561089c57600080fd5b505af11580156108b0573d6000803e3d6000fd5b50505050505050505050565b60005481565b60028060000154908060010154908060020154905083565b60068060000160009054906101000a900473ffffffffffffffffffffffffffffffffffffffff16905081565b610934600660000160009054906101000a900473ffffffffffffffffffffffffffffffffffffffff16610afe565b60008690508073ffffffffffffffffffffffffffffffffffffffff166379524d2d87878787876040518663ffffffff1660e01b8152600401808673ffffffffffffffffffffffffffffffffffffffff1673ffffffffffffffffffffffffffffffffffffffff1681526020018515151515815260200184151515158152602001831515151581526020018215151515815260200195505050505050600060405180830381600087803b1580156109e857600080fd5b505af11580156109fc573d6000803e3d6000fd5b5050505050505050505050565b600560009054906101000a900460ff1681565b600560019054906101000a900460ff1681565b610a5d600660000160009054906101000a900473ffffffffffffffffffffffffffffffffffffffff16610afe565b60008290508073ffffffffffffffffffffffffffffffffffffffff166331a79198836040518263ffffffff1660e01b8152600401808273ffffffffffffffffffffffffffffffffffffffff1673ffffffffffffffffffffffffffffffffffffffff168152602001915050600060405180830381600087803b158015610ae157600080fd5b505af1158015610af5573d6000803e3d6000fd5b50505050505050565b600081905060008173ffffffffffffffffffffffffffffffffffffffff16635549ea51336040518263ffffffff1660e01b8152600401808273ffffffffffffffffffffffffffffffffffffffff1673ffffffffffffffffffffffffffffffffffffffff16815260200191505060206040518083038186803b158015610b8257600080fd5b505afa158015610b96573d6000803e3d6000fd5b505050506040513d6020811015610bac57600080fd5b81019080805190602001909291905050501415610bc857600080fd5b60009150505056fea265627a7a723158203381fc34e80e254fa08df243773608ca602d96fab2b42f4d7e92fbd68c1e774564736f6c634300050c0032",
  "source": "pragma solidity >=0.4.22 <0.6.0;\r\n\r\n\r\n// Standard contract for a presidential election procedure\r\n\r\nimport \"../standardProcedure.sol\";\r\nimport \"../Organ.sol\";\r\n\r\ncontract simpleAdminsAndMasterNominationProcedure is Procedure{\r\n\r\n    // 1: Cyclical many to one election (Presidential Election)\r\n    // 2: Cyclical many to many election (Moderators Election)\r\n    // 3: Simple norm nomination \r\n    // 4: Simple admins and master nomination\r\n    // 5: Vote on Norms \r\n    // 6: Vote on masters and admins \r\n    // 7: Cooptation\r\n\r\n    using procedureLibrary for procedureLibrary.oneRegisteredOrgan;\r\n    \r\n    // First stakeholder address is authorizedNominatersOrgan\r\n    procedureLibrary.oneRegisteredOrgan public linkedOrgans;\r\n    \r\n\r\n    constructor(address payable _authorizedNominatersOrgan, bytes32 _name) \r\n    public \r\n    {\r\n        procedureInfo.initProcedure(4, _name, 1);\r\n        linkedOrgans.initOneRegisteredOrgan(_authorizedNominatersOrgan);\r\n    }\r\n\r\n    function addAdmin(address payable _organToReform, address _newAdmin, bool _canAdd, bool _canDelete, bool _canDeposit, bool _canSpend) \r\n    public \r\n    {\r\n        // Checking if caller is an admin\r\n        procedureLibrary.isAllowed(linkedOrgans.firstOrganAddress);\r\n\r\n        // Sending the required command to the desired organ. If the nomination procedure is not an admin, the call will fail\r\n        Organ organToReformInstance = Organ(_organToReform);\r\n        organToReformInstance.addAdmin(_newAdmin, _canAdd, _canDelete, _canDeposit, _canSpend);\r\n    }\r\n\r\n    function remAdmin(address payable _organToReform, address _oldAdmin) \r\n    public \r\n    {\r\n        // Checking if caller is an admin\r\n        procedureLibrary.isAllowed(linkedOrgans.firstOrganAddress);\r\n\r\n        // Sending the required command to the desired organ. If the nomination procedure is not an admin, the call will fail\r\n        Organ organToReformInstance = Organ(_organToReform);\r\n        organToReformInstance.remAdmin(_oldAdmin);\r\n    }\r\n\r\n    function replaceAdmin(address payable _organToReform, address _oldAdmin, address _newAdmin, bool _canAdd, bool _canDelete, bool _canDeposit, bool _canSpend) \r\n    public \r\n    {\r\n        // Checking if caller is an admin\r\n        procedureLibrary.isAllowed(linkedOrgans.firstOrganAddress);\r\n\r\n        // Sending the required command to the desired organ. If the nomination procedure is not an admin, the call will fail\r\n        Organ organToReformInstance = Organ(_organToReform);\r\n        organToReformInstance.replaceAdmin(_oldAdmin, _newAdmin, _canAdd, _canDelete, _canDeposit, _canSpend );\r\n    }\r\n\r\n    function addMaster(address payable _organToReform, address _newMaster, bool _canAdd, bool _canDelete) \r\n    public \r\n    {\r\n        // Checking if caller is an admin\r\n        procedureLibrary.isAllowed(linkedOrgans.firstOrganAddress);\r\n\r\n        // Sending the required command to the desired organ. If the nomination procedure is not an admin, the call will fail\r\n        Organ organToReformInstance = Organ(_organToReform);\r\n        organToReformInstance.addMaster(_newMaster, _canAdd, _canDelete);\r\n    }\r\n\r\n    function remMaster(address payable _organToReform, address _oldMaster) \r\n    public \r\n    {\r\n\r\n        // Checking if caller is an admin\r\n        procedureLibrary.isAllowed(linkedOrgans.firstOrganAddress);\r\n                \r\n        // Sending the required command to the desired organ. If the nomination procedure is not an admin, the call will fail\r\n        Organ organToReformInstance = Organ(_organToReform);\r\n        organToReformInstance.remMaster(_oldMaster);\r\n    }\r\n\r\n    function replaceMaster(address payable _organToReform, address _oldMaster, address _newMaster, bool _canAdd, bool _canDelete) \r\n    public \r\n    {\r\n        // Checking if caller is an admin\r\n        procedureLibrary.isAllowed(linkedOrgans.firstOrganAddress);\r\n        \r\n        // Sending the required command to the desired organ. If the nomination procedure is not an admin, the call will fail\r\n        Organ organToReformInstance = Organ(_organToReform);\r\n        organToReformInstance.replaceMaster(_oldMaster, _newMaster, _canAdd, _canDelete);\r\n    }\r\n}",
  "sourcePath": "C:/Users/Ewan Debove/Documents/A5/Blockchain Programming/TD7/contracts/utils/Kelsen/solidity/contracts/procedures/simpleAdminsAndMasterNominationProcedure.sol",
  "compiler": {
    "name": "solc",
    "version": "0.5.12+commit.7709ece9.Emscripten.clang"
  },
  "schemaVersion": "3.0.19",
  "updatedAt": "2019-12-04T10:02:32.789Z",
  "devdoc": {
    "methods": {}
  },
  "userdoc": {
    "methods": {}
  }
}