{
  "contractName": "voteOnAdminsAndMastersProcedure",
  "abi": [
    {
      "inputs": [
        {
          "internalType": "address payable",
          "name": "_votersOrganContract",
          "type": "address"
        },
        {
          "internalType": "address payable",
          "name": "_membersWithVetoOrganContract",
          "type": "address"
        },
        {
          "internalType": "address payable",
          "name": "_finalPromulgatorsOrganContract",
          "type": "address"
        },
        {
          "internalType": "uint256",
          "name": "_quorumSize",
          "type": "uint256"
        },
        {
          "internalType": "uint256",
          "name": "_votingPeriodDuration",
          "type": "uint256"
        },
        {
          "internalType": "uint256",
          "name": "_promulgationPeriodDuration",
          "type": "uint256"
        },
        {
          "internalType": "uint256",
          "name": "_majoritySize",
          "type": "uint256"
        },
        {
          "internalType": "bytes32",
          "name": "_name",
          "type": "bytes32"
        }
      ],
      "payable": false,
      "stateMutability": "nonpayable",
      "type": "constructor"
    },
    {
      "constant": true,
      "inputs": [],
      "name": "isAProcedure",
      "outputs": [
        {
          "internalType": "bool",
          "name": "",
          "type": "bool"
        }
      ],
      "payable": false,
      "stateMutability": "view",
      "type": "function"
    },
    {
      "constant": true,
      "inputs": [],
      "name": "isAnOrgan",
      "outputs": [
        {
          "internalType": "bool",
          "name": "",
          "type": "bool"
        }
      ],
      "payable": false,
      "stateMutability": "view",
      "type": "function"
    },
    {
      "constant": true,
      "inputs": [],
      "name": "kelsenVersionNumber",
      "outputs": [
        {
          "internalType": "int256",
          "name": "",
          "type": "int256"
        }
      ],
      "payable": false,
      "stateMutability": "view",
      "type": "function"
    },
    {
      "constant": true,
      "inputs": [],
      "name": "linkedOrgans",
      "outputs": [
        {
          "internalType": "address payable",
          "name": "firstOrganAddress",
          "type": "address"
        },
        {
          "internalType": "address payable",
          "name": "secondOrganAddress",
          "type": "address"
        },
        {
          "internalType": "address payable",
          "name": "thirdOrganAddress",
          "type": "address"
        }
      ],
      "payable": false,
      "stateMutability": "view",
      "type": "function"
    },
    {
      "constant": true,
      "inputs": [],
      "name": "procedureInfo",
      "outputs": [
        {
          "internalType": "uint256",
          "name": "procedureTypeNumber",
          "type": "uint256"
        },
        {
          "internalType": "bytes32",
          "name": "procedureName",
          "type": "bytes32"
        },
        {
          "internalType": "uint256",
          "name": "linkedOrgans",
          "type": "uint256"
        }
      ],
      "payable": false,
      "stateMutability": "view",
      "type": "function"
    },
    {
      "constant": true,
      "inputs": [],
      "name": "votingProcedureInfo",
      "outputs": [
        {
          "internalType": "uint256",
          "name": "quorumSize",
          "type": "uint256"
        },
        {
          "internalType": "uint256",
          "name": "votingPeriodDuration",
          "type": "uint256"
        },
        {
          "internalType": "uint256",
          "name": "promulgationPeriodDuration",
          "type": "uint256"
        },
        {
          "internalType": "uint256",
          "name": "majoritySize",
          "type": "uint256"
        },
        {
          "internalType": "uint256",
          "name": "nextPropositionNumber",
          "type": "uint256"
        }
      ],
      "payable": false,
      "stateMutability": "view",
      "type": "function"
    },
    {
      "constant": false,
      "inputs": [
        {
          "internalType": "address payable",
          "name": "_targetOrgan",
          "type": "address"
        },
        {
          "internalType": "address payable",
          "name": "_contractToAdd",
          "type": "address"
        },
        {
          "internalType": "address payable",
          "name": "_contractToRemove",
          "type": "address"
        },
        {
          "internalType": "bytes32",
          "name": "_ipfsHash",
          "type": "bytes32"
        },
        {
          "internalType": "uint8",
          "name": "_hash_function",
          "type": "uint8"
        },
        {
          "internalType": "uint8",
          "name": "_size",
          "type": "uint8"
        },
        {
          "internalType": "bool",
          "name": "_canAdd",
          "type": "bool"
        },
        {
          "internalType": "bool",
          "name": "_canDelete",
          "type": "bool"
        },
        {
          "internalType": "bool",
          "name": "_canDeposit",
          "type": "bool"
        },
        {
          "internalType": "bool",
          "name": "_canSpend",
          "type": "bool"
        },
        {
          "internalType": "uint256",
          "name": "_propositionType",
          "type": "uint256"
        }
      ],
      "name": "createProposition",
      "outputs": [
        {
          "internalType": "uint256",
          "name": "propositionNumber",
          "type": "uint256"
        }
      ],
      "payable": false,
      "stateMutability": "nonpayable",
      "type": "function"
    },
    {
      "constant": false,
      "inputs": [
        {
          "internalType": "uint256",
          "name": "_propositionNumber",
          "type": "uint256"
        },
        {
          "internalType": "bool",
          "name": "_acceptProposition",
          "type": "bool"
        }
      ],
      "name": "vote",
      "outputs": [],
      "payable": false,
      "stateMutability": "nonpayable",
      "type": "function"
    },
    {
      "constant": false,
      "inputs": [
        {
          "internalType": "uint256",
          "name": "_propositionNumber",
          "type": "uint256"
        }
      ],
      "name": "veto",
      "outputs": [],
      "payable": false,
      "stateMutability": "nonpayable",
      "type": "function"
    },
    {
      "constant": false,
      "inputs": [
        {
          "internalType": "uint256",
          "name": "_propositionNumber",
          "type": "uint256"
        }
      ],
      "name": "endPropositionVote",
      "outputs": [
        {
          "internalType": "bool",
          "name": "hasBeenAccepted",
          "type": "bool"
        }
      ],
      "payable": false,
      "stateMutability": "nonpayable",
      "type": "function"
    },
    {
      "constant": false,
      "inputs": [
        {
          "internalType": "uint256",
          "name": "_propositionNumber",
          "type": "uint256"
        },
        {
          "internalType": "bool",
          "name": "_promulgate",
          "type": "bool"
        }
      ],
      "name": "promulgateProposition",
      "outputs": [],
      "payable": false,
      "stateMutability": "nonpayable",
      "type": "function"
    },
    {
      "constant": false,
      "inputs": [
        {
          "internalType": "uint256",
          "name": "_propositionNumber",
          "type": "uint256"
        }
      ],
      "name": "archiveDefunctProposition",
      "outputs": [],
      "payable": false,
      "stateMutability": "nonpayable",
      "type": "function"
    },
    {
      "constant": true,
      "inputs": [
        {
          "internalType": "uint256",
          "name": "_propositionNumber",
          "type": "uint256"
        }
      ],
      "name": "haveIVoted",
      "outputs": [
        {
          "internalType": "bool",
          "name": "IHaveVoted",
          "type": "bool"
        }
      ],
      "payable": false,
      "stateMutability": "view",
      "type": "function"
    },
    {
      "constant": true,
      "inputs": [
        {
          "internalType": "uint256",
          "name": "_propositionNumber",
          "type": "uint256"
        }
      ],
      "name": "getPropositionDocumentation",
      "outputs": [
        {
          "internalType": "bytes32",
          "name": "ipfsHash",
          "type": "bytes32"
        },
        {
          "internalType": "uint8",
          "name": "hash_function",
          "type": "uint8"
        },
        {
          "internalType": "uint8",
          "name": "size",
          "type": "uint8"
        },
        {
          "internalType": "uint256",
          "name": "propositionType",
          "type": "uint256"
        }
      ],
      "payable": false,
      "stateMutability": "view",
      "type": "function"
    },
    {
      "constant": true,
      "inputs": [
        {
          "internalType": "uint256",
          "name": "_propositionNumber",
          "type": "uint256"
        }
      ],
      "name": "getPropositionStatus",
      "outputs": [
        {
          "internalType": "bool",
          "name": "wasVetoed",
          "type": "bool"
        },
        {
          "internalType": "bool",
          "name": "wasCounted",
          "type": "bool"
        },
        {
          "internalType": "bool",
          "name": "wasAccepted",
          "type": "bool"
        },
        {
          "internalType": "bool",
          "name": "wasEnded",
          "type": "bool"
        },
        {
          "internalType": "uint256",
          "name": "votingPeriodEndDate",
          "type": "uint256"
        }
      ],
      "payable": false,
      "stateMutability": "view",
      "type": "function"
    },
    {
      "constant": true,
      "inputs": [
        {
          "internalType": "uint256",
          "name": "_propositionNumber",
          "type": "uint256"
        }
      ],
      "name": "getPropositionStatistics",
      "outputs": [
        {
          "internalType": "uint256",
          "name": "voteFor",
          "type": "uint256"
        },
        {
          "internalType": "uint256",
          "name": "totalVoteCount",
          "type": "uint256"
        }
      ],
      "payable": false,
      "stateMutability": "view",
      "type": "function"
    },
    {
      "constant": true,
      "inputs": [
        {
          "internalType": "uint256",
          "name": "_propositionNumber",
          "type": "uint256"
        }
      ],
      "name": "getPropositionAddresses",
      "outputs": [
        {
          "internalType": "address",
          "name": "targetOrgan",
          "type": "address"
        },
        {
          "internalType": "address",
          "name": "contractToAdd",
          "type": "address"
        },
        {
          "internalType": "address",
          "name": "contractToRemove",
          "type": "address"
        }
      ],
      "payable": false,
      "stateMutability": "view",
      "type": "function"
    },
    {
      "constant": true,
      "inputs": [
        {
          "internalType": "uint256",
          "name": "_propositionNumber",
          "type": "uint256"
        }
      ],
      "name": "getPropositionPermissions",
      "outputs": [
        {
          "internalType": "bool",
          "name": "canAdd",
          "type": "bool"
        },
        {
          "internalType": "bool",
          "name": "canDelete",
          "type": "bool"
        },
        {
          "internalType": "bool",
          "name": "canSpend",
          "type": "bool"
        },
        {
          "internalType": "bool",
          "name": "canDeposit",
          "type": "bool"
        }
      ],
      "payable": false,
      "stateMutability": "view",
      "type": "function"
    }
  ],
  "bytecode": "0x608060405260026000556000600560006101000a81548160ff0219169083151502179055506001600560016101000a81548160ff02191690831515021790555034801561004b57600080fd5b506040516115ef3803806115ef833981810160405261010081101561006f57600080fd5b810190808051906020019092919080519060200190929190805190602001909291908051906020019092919080519060200190929190805190602001909291908051906020019092919080519060200190929190505050600273__procedureLibrary______________________6356e77656909160068460036040518563ffffffff1660e01b81526004018085815260200184815260200183815260200182815260200194505050505060006040518083038186803b15801561013257600080fd5b505af4158015610146573d6000803e3d6000fd5b50505050600673__procedureLibrary______________________63e7d640db90918a8a8a6040518563ffffffff1660e01b8152600401808581526020018473ffffffffffffffffffffffffffffffffffffffff1673ffffffffffffffffffffffffffffffffffffffff1681526020018373ffffffffffffffffffffffffffffffffffffffff1673ffffffffffffffffffffffffffffffffffffffff1681526020018273ffffffffffffffffffffffffffffffffffffffff1673ffffffffffffffffffffffffffffffffffffffff16815260200194505050505060006040518083038186803b15801561023857600080fd5b505af415801561024c573d6000803e3d6000fd5b50505050600973__propositionVotingLibrary______________63a062e2b79091878787876040518663ffffffff1660e01b8152600401808681526020018581526020018481526020018381526020018281526020019550505050505060006040518083038186803b1580156102c257600080fd5b505af41580156102d6573d6000803e3d6000fd5b5050505050505050505050506112fe806102f16000396000f3fe608060405234801561001057600080fd5b50600436106101165760003560e01c80639e3dd259116100a2578063d64ff06311610071578063d64ff06314610616578063e09ecb8714610650578063e80b30a514610696578063eae10c81146106b8578063f249e7c31461070157610116565b80639e3dd259146104c4578063a8bef97a14610574578063ac37af1c14610596578063c9d27afe146105dc57610116565b80633ef4cfbb116100e95780633ef4cfbb146102f25780635dbe4d2814610355578063615d9bff1461037357806388933264146103a15780639397942e1461049857610116565b80630366af3d1461011b578063043bb756146101895780631d28dec71461025d5780632ad9db171461028b575b600080fd5b6101476004803603602081101561013157600080fd5b810190808035906020019092919050505061073b565b60405180861515151581526020018515151515815260200184151515158152602001831515151581526020018281526020019550505050505060405180910390f35b6101b56004803603602081101561019f57600080fd5b810190808035906020019092919050505061080c565b604051808473ffffffffffffffffffffffffffffffffffffffff1673ffffffffffffffffffffffffffffffffffffffff1681526020018373ffffffffffffffffffffffffffffffffffffffff1673ffffffffffffffffffffffffffffffffffffffff1681526020018273ffffffffffffffffffffffffffffffffffffffff1673ffffffffffffffffffffffffffffffffffffffff168152602001935050505060405180910390f35b6102896004803603602081101561027357600080fd5b81019080803590602001909291905050506108d2565b005b6102b7600480360360208110156102a157600080fd5b8101908080359060200190929190505050610981565b604051808515151515815260200184151515158152602001831515151581526020018215151515815260200194505050505060405180910390f35b61031e6004803603602081101561030857600080fd5b8101908080359060200190929190505050610a32565b604051808581526020018460ff1660ff1681526020018360ff1660ff16815260200182815260200194505050505060405180910390f35b61035d610ac9565b6040518082815260200191505060405180910390f35b61039f6004803603602081101561038957600080fd5b8101908080359060200190929190505050610acf565b005b61048260048036036101608110156103b857600080fd5b81019080803573ffffffffffffffffffffffffffffffffffffffff169060200190929190803573ffffffffffffffffffffffffffffffffffffffff169060200190929190803573ffffffffffffffffffffffffffffffffffffffff16906020019092919080359060200190929190803560ff169060200190929190803560ff16906020019092919080351515906020019092919080351515906020019092919080351515906020019092919080351515906020019092919080359060200190929190505050610b50565b6040518082815260200191505060405180910390f35b6104a0610d16565b60405180848152602001838152602001828152602001935050505060405180910390f35b6104cc610d2e565b604051808473ffffffffffffffffffffffffffffffffffffffff1673ffffffffffffffffffffffffffffffffffffffff1681526020018373ffffffffffffffffffffffffffffffffffffffff1673ffffffffffffffffffffffffffffffffffffffff1681526020018273ffffffffffffffffffffffffffffffffffffffff1673ffffffffffffffffffffffffffffffffffffffff168152602001935050505060405180910390f35b61057c610da6565b604051808215151515815260200191505060405180910390f35b6105c2600480360360208110156105ac57600080fd5b8101908080359060200190929190505050610db9565b604051808215151515815260200191505060405180910390f35b610614600480360360408110156105f257600080fd5b8101908080359060200190929190803515159060200190929190505050610e96565b005b61064e6004803603604081101561062c57600080fd5b8101908080359060200190929190803515159060200190929190505050610f5b565b005b61067c6004803603602081101561066657600080fd5b810190808035906020019092919050505061104f565b604051808215151515815260200191505060405180910390f35b61069e61115b565b604051808215151515815260200191505060405180910390f35b6106e4600480360360208110156106ce57600080fd5b810190808035906020019092919050505061116e565b604051808381526020018281526020019250505060405180910390f35b6107096111d3565b604051808681526020018581526020018481526020018381526020018281526020019550505050505060405180910390f35b60008060008060006009600601600087815260200190815260200160002060000160049054906101000a900460ff166009600601600088815260200190815260200160002060000160059054906101000a900460ff166009600601600089815260200190815260200160002060000160069054906101000a900460ff16600960060160008a815260200190815260200160002060000160079054906101000a900460ff16600960060160008b8152602001908152602001600020600301549450945094509450945091939590929450565b60008060006009600601600085815260200190815260200160002060070160009054906101000a900473ffffffffffffffffffffffffffffffffffffffff166009600601600086815260200190815260200160002060080160009054906101000a900473ffffffffffffffffffffffffffffffffffffffff166009600601600087815260200190815260200160002060090160009054906101000a900473ffffffffffffffffffffffffffffffffffffffff168292508191509250925092509193909250565b610900600660010160009054906101000a900473ffffffffffffffffffffffffffffffffffffffff166111f7565b6009600601600082815260200190815260200160002073__propositionVotingLibrary______________633369581c90916040518263ffffffff1660e01b81526004018082815260200191505060006040518083038186803b15801561096657600080fd5b505af415801561097a573d6000803e3d6000fd5b5050505050565b6000806000806009600601600086815260200190815260200160002060000160009054906101000a900460ff166009600601600087815260200190815260200160002060000160019054906101000a900460ff166009600601600088815260200190815260200160002060000160029054906101000a900460ff166009600601600089815260200190815260200160002060000160039054906101000a900460ff1693509350935093509193509193565b60008060008060096006016000868152602001908152602001600020600201546009600601600087815260200190815260200160002060000160089054906101000a900460ff166009600601600088815260200190815260200160002060000160099054906101000a900460ff16600960060160008981526020019081526020016000206001015493509350935093509193509193565b60005481565b6009600601600082815260200190815260200160002073__propositionVotingLibrary______________6320ffac5490916040518263ffffffff1660e01b81526004018082815260200191505060006040518083038186803b158015610b3557600080fd5b505af4158015610b49573d6000803e3d6000fd5b5050505050565b6000610b80600660000160009054906101000a900473ffffffffffffffffffffffffffffffffffffffff166111f7565b600973__propositionVotingLibrary______________63cd3393d090918e8e8e8e8e8e8e8e8e8e8e6040518d63ffffffff1660e01b8152600401808d81526020018c73ffffffffffffffffffffffffffffffffffffffff1673ffffffffffffffffffffffffffffffffffffffff1681526020018b73ffffffffffffffffffffffffffffffffffffffff1673ffffffffffffffffffffffffffffffffffffffff1681526020018a73ffffffffffffffffffffffffffffffffffffffff1673ffffffffffffffffffffffffffffffffffffffff1681526020018981526020018860ff1660ff1681526020018760ff1660ff168152602001861515151581526020018515151515815260200184151515158152602001831515151581526020018281526020019c5050505050505050505050505060206040518083038186803b158015610cca57600080fd5b505af4158015610cde573d6000803e3d6000fd5b505050506040513d6020811015610cf457600080fd5b810190808051906020019092919050505090509b9a5050505050505050505050565b60028060000154908060010154908060020154905083565b60068060000160009054906101000a900473ffffffffffffffffffffffffffffffffffffffff16908060010160009054906101000a900473ffffffffffffffffffffffffffffffffffffffff16908060020160009054906101000a900473ffffffffffffffffffffffffffffffffffffffff16905083565b600560009054906101000a900460ff1681565b600073__propositionVotingLibrary______________63995e9228600960050160003373ffffffffffffffffffffffffffffffffffffffff1673ffffffffffffffffffffffffffffffffffffffff16815260200190815260200160002054846040518363ffffffff1660e01b8152600401808381526020018281526020019250505060206040518083038186803b158015610e5457600080fd5b505af4158015610e68573d6000803e3d6000fd5b505050506040513d6020811015610e7e57600080fd5b81019080805190602001909291905050509050919050565b610ec4600660000160009054906101000a900473ffffffffffffffffffffffffffffffffffffffff166111f7565b600973__propositionVotingLibrary______________6396233b5f909160096006016000868152602001908152602001600020846040518463ffffffff1660e01b81526004018084815260200183815260200182151515158152602001935050505060006040518083038186803b158015610f3f57600080fd5b505af4158015610f53573d6000803e3d6000fd5b505050505050565b600960020154600960060160008481526020019081526020016000206003015401421015610fb657610fb1600660020160009054906101000a900473ffffffffffffffffffffffffffffffffffffffff166111f7565b610fc1565b80610fc057600080fd5b5b6009600601600083815260200190815260200160002073__propositionVotingLibrary______________63d2e73b9d9091836040518363ffffffff1660e01b815260040180838152602001821515151581526020019250505060006040518083038186803b15801561103357600080fd5b505af4158015611047573d6000803e3d6000fd5b505050505050565b6000600973__propositionVotingLibrary______________63aed723d5909160096006016000868152602001908152602001600020600660000160009054906101000a900473ffffffffffffffffffffffffffffffffffffffff166040518463ffffffff1660e01b8152600401808481526020018381526020018273ffffffffffffffffffffffffffffffffffffffff1673ffffffffffffffffffffffffffffffffffffffff168152602001935050505060206040518083038186803b15801561111957600080fd5b505af415801561112d573d6000803e3d6000fd5b505050506040513d602081101561114357600080fd5b81019080805190602001909291905050509050919050565b600560019054906101000a900460ff1681565b6000804260096006016000858152602001908152602001600020600301541061119657600080fd5b6009600601600084815260200190815260200160002060040154600960060160008581526020019081526020016000206005015491509150915091565b60098060000154908060010154908060020154908060030154908060040154905085565b600081905060008173ffffffffffffffffffffffffffffffffffffffff16635549ea51336040518263ffffffff1660e01b8152600401808273ffffffffffffffffffffffffffffffffffffffff1673ffffffffffffffffffffffffffffffffffffffff16815260200191505060206040518083038186803b15801561127b57600080fd5b505afa15801561128f573d6000803e3d6000fd5b505050506040513d60208110156112a557600080fd5b810190808051906020019092919050505014156112c157600080fd5b60009150505056fea265627a7a723158207c7cecc3f400de60fff3634649801ceb647da113c595b858d7f23af39bea997764736f6c634300050c0032",
  "source": "pragma solidity >=0.4.22 <0.6.0;\r\n\r\n// Standard contract for promulgation of a norm\r\n\r\nimport \"../standardProcedure.sol\";\r\nimport \"../Organ.sol\";\r\nimport \"../libraries/propositionVotingLibrary.sol\";\r\n\r\n\r\ncontract voteOnAdminsAndMastersProcedure is Procedure{\r\n    // 1: Cyclical many to one election (Presidential Election)\r\n    // 2: Cyclical many to many election (Moderators Election)\r\n    // 3: Simple norm nomination \r\n    // 4: Simple admins and master nomination\r\n    // 5: Vote on Norms \r\n    // 6: Vote on masters and admins \r\n    // 7: Cooptation\r\n\r\n    using procedureLibrary for procedureLibrary.threeRegisteredOrgans;\r\n    using propositionVotingLibrary for propositionVotingLibrary.Proposition;\r\n    using propositionVotingLibrary for propositionVotingLibrary.VotingProcessInfo;\r\n\r\n    // First stakeholder address is votersOrganContract\r\n    // Second stakeholder address is membersWithVetoOrganContract\r\n    // Third stakeholder address is finalPromulgatorsOrganContract\r\n    procedureLibrary.threeRegisteredOrgans public linkedOrgans;\r\n    propositionVotingLibrary.VotingProcessInfo public votingProcedureInfo;\r\n\r\n    // ######################\r\n\r\n    constructor(address payable _votersOrganContract, address payable _membersWithVetoOrganContract, address payable _finalPromulgatorsOrganContract, uint _quorumSize, uint _votingPeriodDuration, uint _promulgationPeriodDuration, uint _majoritySize, bytes32 _name) \r\n    public \r\n    {\r\n    procedureInfo.initProcedure(6, _name, 3);\r\n    linkedOrgans.initThreeRegisteredOrgans(_votersOrganContract, _membersWithVetoOrganContract, _finalPromulgatorsOrganContract);\r\n    votingProcedureInfo.initElectionParameters(_quorumSize, _votingPeriodDuration, _promulgationPeriodDuration, _majoritySize);\r\n    }\r\n\r\n    /// Create a new ballot to choose one of `proposalNames`.\r\n    function createProposition(address payable _targetOrgan, address payable _contractToAdd, address payable _contractToRemove, bytes32 _ipfsHash, uint8 _hash_function, uint8 _size, bool _canAdd, bool _canDelete, bool _canDeposit, bool _canSpend, uint _propositionType) \r\n    public \r\n    returns (uint propositionNumber)\r\n    {\r\n        // Check the proposition creator is able to make a proposition\r\n        procedureLibrary.isAllowed(linkedOrgans.firstOrganAddress);\r\n\r\n        return votingProcedureInfo.createPropositionLib(_targetOrgan, _contractToAdd, _contractToRemove, _ipfsHash, _hash_function, _size, _canAdd, _canDelete, _canDeposit, _canSpend, _propositionType);\r\n    }\r\n\r\n    /// Vote for a proposition\r\n    function vote(uint _propositionNumber, bool _acceptProposition) \r\n    public \r\n    {\r\n        // Check the voter is able to vote on a proposition\r\n        procedureLibrary.isAllowed(linkedOrgans.firstOrganAddress);\r\n\r\n        votingProcedureInfo.voteLib(votingProcedureInfo.propositions[_propositionNumber], _acceptProposition);\r\n    }\r\n\r\n        /// Vote for a candidate\r\n    function veto(uint _propositionNumber) \r\n    public \r\n    {\r\n\r\n        // Check the voter is able to veto the proposition\r\n        procedureLibrary.isAllowed(linkedOrgans.secondOrganAddress);\r\n        \r\n        votingProcedureInfo.propositions[_propositionNumber].vetoLib();\r\n    }\r\n\r\n    // The vote is finished and we close it. This triggers the outcome of the vote.\r\n\r\n    function endPropositionVote(uint _propositionNumber) \r\n    public \r\n    returns (bool hasBeenAccepted) \r\n    {\r\n\r\n        return votingProcedureInfo.endPropositionVoteLib(votingProcedureInfo.propositions[_propositionNumber], linkedOrgans.firstOrganAddress);\r\n    }\r\n\r\n    function promulgateProposition(uint _propositionNumber, bool _promulgate) \r\n    public \r\n    {\r\n        // If promulgation is happening before endOfVote + promulgationPeriodDuration, check caller is an official promulgator\r\n        if (now < votingProcedureInfo.propositions[_propositionNumber].votingPeriodEndDate + votingProcedureInfo.promulgationPeriodDuration)\r\n        {        \r\n            // Check the voter is able to promulgate the proposition\r\n            procedureLibrary.isAllowed(linkedOrgans.thirdOrganAddress);\r\n        }\r\n        else \r\n        { \r\n            // If Promulgator did not promulgate, the only option is validating\r\n            require(_promulgate);\r\n        }\r\n\r\n        votingProcedureInfo.propositions[_propositionNumber].promulgatePropositionLib(_promulgate);\r\n    }\r\n\r\n    function archiveDefunctProposition(uint _propositionNumber) \r\n    public \r\n    {\r\n    // If a proposition contains an instruction that can not be executed (eg \"add an admin\" without having canAdd enabled), this proposition can be closed\r\n        votingProcedureInfo.propositions[_propositionNumber].archiveDefunctPropositionLib();\r\n    }\r\n\r\n\r\n    //////////////////////// Functions to communicate with other contracts\r\n\r\n    function haveIVoted(uint _propositionNumber) \r\n    public \r\n    view \r\n    returns (bool IHaveVoted)\r\n    {\r\n        return propositionVotingLibrary.getBoolean(votingProcedureInfo.userParticipation[msg.sender], _propositionNumber);\r\n    }\r\n\r\n    function getPropositionDocumentation(uint _propositionNumber) \r\n    public\r\n    view\r\n    returns (bytes32 ipfsHash, uint8 hash_function, uint8 size, uint propositionType)\r\n    {\r\n        return (votingProcedureInfo.propositions[_propositionNumber].ipfsHash, votingProcedureInfo.propositions[_propositionNumber].hash_function, votingProcedureInfo.propositions[_propositionNumber].size, votingProcedureInfo.propositions[_propositionNumber].propositionType);\r\n    }\r\n\r\n    function getPropositionStatus(uint _propositionNumber) \r\n    public\r\n    view\r\n    returns ( bool wasVetoed, bool wasCounted, bool wasAccepted, bool wasEnded, uint votingPeriodEndDate)\r\n    {\r\n        return (votingProcedureInfo.propositions[_propositionNumber].wasVetoed, votingProcedureInfo.propositions[_propositionNumber].wasCounted, votingProcedureInfo.propositions[_propositionNumber].wasAccepted, votingProcedureInfo.propositions[_propositionNumber].wasEnded, votingProcedureInfo.propositions[_propositionNumber].votingPeriodEndDate);\r\n    }\r\n\r\n    function getPropositionStatistics(uint _propositionNumber) \r\n    public\r\n    view\r\n    returns (uint voteFor, uint totalVoteCount)\r\n    {\r\n        require(votingProcedureInfo.propositions[_propositionNumber].votingPeriodEndDate < now);\r\n        return (votingProcedureInfo.propositions[_propositionNumber].voteFor, votingProcedureInfo.propositions[_propositionNumber].totalVoteCount);\r\n    }\r\n\r\n    function getPropositionAddresses(uint _propositionNumber) \r\n    public\r\n    view\r\n    returns (address targetOrgan, address contractToAdd, address contractToRemove)\r\n    {\r\n        return (votingProcedureInfo.propositions[_propositionNumber].targetOrgan, votingProcedureInfo.propositions[_propositionNumber].contractToAdd, votingProcedureInfo.propositions[_propositionNumber].contractToRemove);\r\n    }\r\n\r\n    function getPropositionPermissions(uint _propositionNumber) \r\n    public\r\n    view\r\n    returns (bool canAdd, bool canDelete, bool canSpend, bool canDeposit)\r\n    {\r\n        return (votingProcedureInfo.propositions[_propositionNumber].canAdd, votingProcedureInfo.propositions[_propositionNumber].canDelete, votingProcedureInfo.propositions[_propositionNumber].canSpend, votingProcedureInfo.propositions[_propositionNumber].canDeposit);\r\n    }\r\n\r\n\r\n\r\n}\r\n\r\n",
  "sourcePath": "C:/Users/Ewan Debove/Documents/A5/Blockchain Programming/TD7/contracts/utils/Kelsen/solidity/contracts/procedures/voteOnAdminsAndMastersProcedure.sol",
  "compiler": {
    "name": "solc",
    "version": "0.5.12+commit.7709ece9.Emscripten.clang"
  },
  "schemaVersion": "3.0.19",
  "updatedAt": "2019-12-04T10:02:32.796Z",
  "devdoc": {
    "methods": {}
  },
  "userdoc": {
    "methods": {
      "createProposition(address,address,address,bytes32,uint8,uint8,bool,bool,bool,bool,uint256)": {
        "notice": "Create a new ballot to choose one of `proposalNames`."
      },
      "haveIVoted(uint256)": {
        "notice": "///////////////////// Functions to communicate with other contracts"
      },
      "veto(uint256)": {
        "notice": "Vote for a candidate"
      },
      "vote(uint256,bool)": {
        "notice": "Vote for a proposition"
      }
    }
  }
}