{
  "contractName": "voteOnNormsProcedure",
  "abi": [
    {
      "inputs": [
        {
          "internalType": "address payable",
          "name": "_affectedOrganContract",
          "type": "address"
        },
        {
          "internalType": "address payable",
          "name": "_votersOrganContract",
          "type": "address"
        },
        {
          "internalType": "address payable",
          "name": "_membersWithVetoOrganContract",
          "type": "address"
        },
        {
          "internalType": "address payable",
          "name": "_finalPromulgatorsOrganContract",
          "type": "address"
        },
        {
          "internalType": "uint256",
          "name": "_quorumSize",
          "type": "uint256"
        },
        {
          "internalType": "uint256",
          "name": "_votingPeriodDuration",
          "type": "uint256"
        },
        {
          "internalType": "uint256",
          "name": "_promulgationPeriodDuration",
          "type": "uint256"
        },
        {
          "internalType": "uint256",
          "name": "_majoritySize",
          "type": "uint256"
        },
        {
          "internalType": "bytes32",
          "name": "_name",
          "type": "bytes32"
        }
      ],
      "payable": false,
      "stateMutability": "nonpayable",
      "type": "constructor"
    },
    {
      "constant": true,
      "inputs": [],
      "name": "isAProcedure",
      "outputs": [
        {
          "internalType": "bool",
          "name": "",
          "type": "bool"
        }
      ],
      "payable": false,
      "stateMutability": "view",
      "type": "function"
    },
    {
      "constant": true,
      "inputs": [],
      "name": "isAnOrgan",
      "outputs": [
        {
          "internalType": "bool",
          "name": "",
          "type": "bool"
        }
      ],
      "payable": false,
      "stateMutability": "view",
      "type": "function"
    },
    {
      "constant": true,
      "inputs": [],
      "name": "kelsenVersionNumber",
      "outputs": [
        {
          "internalType": "int256",
          "name": "",
          "type": "int256"
        }
      ],
      "payable": false,
      "stateMutability": "view",
      "type": "function"
    },
    {
      "constant": true,
      "inputs": [],
      "name": "linkedOrgans",
      "outputs": [
        {
          "internalType": "address payable",
          "name": "firstOrganAddress",
          "type": "address"
        },
        {
          "internalType": "address payable",
          "name": "secondOrganAddress",
          "type": "address"
        },
        {
          "internalType": "address payable",
          "name": "thirdOrganAddress",
          "type": "address"
        },
        {
          "internalType": "address payable",
          "name": "fourthOrganAddress",
          "type": "address"
        }
      ],
      "payable": false,
      "stateMutability": "view",
      "type": "function"
    },
    {
      "constant": true,
      "inputs": [],
      "name": "procedureInfo",
      "outputs": [
        {
          "internalType": "uint256",
          "name": "procedureTypeNumber",
          "type": "uint256"
        },
        {
          "internalType": "bytes32",
          "name": "procedureName",
          "type": "bytes32"
        },
        {
          "internalType": "uint256",
          "name": "linkedOrgans",
          "type": "uint256"
        }
      ],
      "payable": false,
      "stateMutability": "view",
      "type": "function"
    },
    {
      "constant": true,
      "inputs": [],
      "name": "votingProcedureInfo",
      "outputs": [
        {
          "internalType": "uint256",
          "name": "quorumSize",
          "type": "uint256"
        },
        {
          "internalType": "uint256",
          "name": "votingPeriodDuration",
          "type": "uint256"
        },
        {
          "internalType": "uint256",
          "name": "promulgationPeriodDuration",
          "type": "uint256"
        },
        {
          "internalType": "uint256",
          "name": "majoritySize",
          "type": "uint256"
        },
        {
          "internalType": "uint256",
          "name": "nextPropositionNumber",
          "type": "uint256"
        }
      ],
      "payable": false,
      "stateMutability": "view",
      "type": "function"
    },
    {
      "constant": false,
      "inputs": [
        {
          "internalType": "address payable",
          "name": "_contractToAdd",
          "type": "address"
        },
        {
          "internalType": "address payable",
          "name": "_contractToRemove",
          "type": "address"
        },
        {
          "internalType": "bytes32",
          "name": "_ipfsHash",
          "type": "bytes32"
        },
        {
          "internalType": "uint8",
          "name": "_hash_function",
          "type": "uint8"
        },
        {
          "internalType": "uint8",
          "name": "_size",
          "type": "uint8"
        }
      ],
      "name": "createProposition",
      "outputs": [
        {
          "internalType": "uint256",
          "name": "propositionNumber",
          "type": "uint256"
        }
      ],
      "payable": false,
      "stateMutability": "nonpayable",
      "type": "function"
    },
    {
      "constant": false,
      "inputs": [
        {
          "internalType": "uint256",
          "name": "_propositionNumber",
          "type": "uint256"
        },
        {
          "internalType": "bool",
          "name": "_acceptProposition",
          "type": "bool"
        }
      ],
      "name": "vote",
      "outputs": [],
      "payable": false,
      "stateMutability": "nonpayable",
      "type": "function"
    },
    {
      "constant": false,
      "inputs": [
        {
          "internalType": "uint256",
          "name": "_propositionNumber",
          "type": "uint256"
        }
      ],
      "name": "veto",
      "outputs": [],
      "payable": false,
      "stateMutability": "nonpayable",
      "type": "function"
    },
    {
      "constant": false,
      "inputs": [
        {
          "internalType": "uint256",
          "name": "_propositionNumber",
          "type": "uint256"
        }
      ],
      "name": "endPropositionVote",
      "outputs": [
        {
          "internalType": "bool",
          "name": "hasBeenAccepted",
          "type": "bool"
        }
      ],
      "payable": false,
      "stateMutability": "nonpayable",
      "type": "function"
    },
    {
      "constant": false,
      "inputs": [
        {
          "internalType": "uint256",
          "name": "_propositionNumber",
          "type": "uint256"
        },
        {
          "internalType": "bool",
          "name": "_promulgate",
          "type": "bool"
        }
      ],
      "name": "promulgateProposition",
      "outputs": [],
      "payable": false,
      "stateMutability": "nonpayable",
      "type": "function"
    },
    {
      "constant": true,
      "inputs": [
        {
          "internalType": "uint256",
          "name": "_propositionNumber",
          "type": "uint256"
        }
      ],
      "name": "haveIVoted",
      "outputs": [
        {
          "internalType": "bool",
          "name": "IHaveVoted",
          "type": "bool"
        }
      ],
      "payable": false,
      "stateMutability": "view",
      "type": "function"
    },
    {
      "constant": true,
      "inputs": [
        {
          "internalType": "uint256",
          "name": "_propositionNumber",
          "type": "uint256"
        }
      ],
      "name": "getPropositionDocumentation",
      "outputs": [
        {
          "internalType": "bytes32",
          "name": "ipfsHash",
          "type": "bytes32"
        },
        {
          "internalType": "uint8",
          "name": "hash_function",
          "type": "uint8"
        },
        {
          "internalType": "uint8",
          "name": "size",
          "type": "uint8"
        },
        {
          "internalType": "uint256",
          "name": "propositionType",
          "type": "uint256"
        }
      ],
      "payable": false,
      "stateMutability": "view",
      "type": "function"
    },
    {
      "constant": true,
      "inputs": [
        {
          "internalType": "uint256",
          "name": "_propositionNumber",
          "type": "uint256"
        }
      ],
      "name": "getPropositionStatus",
      "outputs": [
        {
          "internalType": "bool",
          "name": "wasVetoed",
          "type": "bool"
        },
        {
          "internalType": "bool",
          "name": "wasCounted",
          "type": "bool"
        },
        {
          "internalType": "bool",
          "name": "wasAccepted",
          "type": "bool"
        },
        {
          "internalType": "bool",
          "name": "wasEnded",
          "type": "bool"
        },
        {
          "internalType": "uint256",
          "name": "votingPeriodEndDate",
          "type": "uint256"
        }
      ],
      "payable": false,
      "stateMutability": "view",
      "type": "function"
    },
    {
      "constant": true,
      "inputs": [
        {
          "internalType": "uint256",
          "name": "_propositionNumber",
          "type": "uint256"
        }
      ],
      "name": "getPropositionStatistics",
      "outputs": [
        {
          "internalType": "uint256",
          "name": "voteFor",
          "type": "uint256"
        },
        {
          "internalType": "uint256",
          "name": "totalVoteCount",
          "type": "uint256"
        }
      ],
      "payable": false,
      "stateMutability": "view",
      "type": "function"
    },
    {
      "constant": true,
      "inputs": [
        {
          "internalType": "uint256",
          "name": "_propositionNumber",
          "type": "uint256"
        }
      ],
      "name": "getPropositionAddresses",
      "outputs": [
        {
          "internalType": "address",
          "name": "targetOrgan",
          "type": "address"
        },
        {
          "internalType": "address",
          "name": "contractToAdd",
          "type": "address"
        },
        {
          "internalType": "address",
          "name": "contractToRemove",
          "type": "address"
        }
      ],
      "payable": false,
      "stateMutability": "view",
      "type": "function"
    },
    {
      "constant": true,
      "inputs": [
        {
          "internalType": "uint256",
          "name": "_propositionNumber",
          "type": "uint256"
        }
      ],
      "name": "getPropositionPermissions",
      "outputs": [
        {
          "internalType": "bool",
          "name": "canAdd",
          "type": "bool"
        },
        {
          "internalType": "bool",
          "name": "canDelete",
          "type": "bool"
        },
        {
          "internalType": "bool",
          "name": "canSpend",
          "type": "bool"
        },
        {
          "internalType": "bool",
          "name": "canDeposit",
          "type": "bool"
        }
      ],
      "payable": false,
      "stateMutability": "view",
      "type": "function"
    }
  ],
  "bytecode": "0x608060405260026000556000600560006101000a81548160ff0219169083151502179055506001600560016101000a81548160ff02191690831515021790555034801561004b57600080fd5b50604051611b95380380611b95833981810160405261012081101561006f57600080fd5b81019080805190602001909291908051906020019092919080519060200190929190805190602001909291908051906020019092919080519060200190929190805190602001909291908051906020019092919080519060200190929190505050600273__procedureLibrary______________________6356e77656909160058460046040518563ffffffff1660e01b81526004018085815260200184815260200183815260200182815260200194505050505060006040518083038186803b15801561013c57600080fd5b505af4158015610150573d6000803e3d6000fd5b50505050600673__procedureLibrary______________________6380ac418e90918a8a8a8e6040518663ffffffff1660e01b8152600401808681526020018573ffffffffffffffffffffffffffffffffffffffff1673ffffffffffffffffffffffffffffffffffffffff1681526020018473ffffffffffffffffffffffffffffffffffffffff1673ffffffffffffffffffffffffffffffffffffffff1681526020018373ffffffffffffffffffffffffffffffffffffffff1673ffffffffffffffffffffffffffffffffffffffff1681526020018273ffffffffffffffffffffffffffffffffffffffff1673ffffffffffffffffffffffffffffffffffffffff1681526020019550505050505060006040518083038186803b15801561027657600080fd5b505af415801561028a573d6000803e3d6000fd5b50505050600a73__propositionVotingLibrary______________63a062e2b79091878787876040518663ffffffff1660e01b8152600401808681526020018581526020018481526020018381526020018281526020019550505050505060006040518083038186803b15801561030057600080fd5b505af4158015610314573d6000803e3d6000fd5b50505050505050505050505050611865806103306000396000f3fe608060405234801561001057600080fd5b506004361061010b5760003560e01c8063a8bef97a116100a2578063d64ff06311610071578063d64ff063146105b5578063e09ecb87146105ef578063e80b30a514610635578063eae10c8114610657578063f249e7c3146106a05761010b565b8063a8bef97a14610477578063aa5f394114610499578063ac37af1c14610535578063c9d27afe1461057b5761010b565b80633ef4cfbb116100de5780633ef4cfbb146102e75780635dbe4d281461034a5780639397942e146103685780639e3dd259146103945761010b565b80630366af3d14610110578063043bb7561461017e5780631d28dec7146102525780632ad9db1714610280575b600080fd5b61013c6004803603602081101561012657600080fd5b81019080803590602001909291905050506106da565b60405180861515151581526020018515151515815260200184151515158152602001831515151581526020018281526020019550505050505060405180910390f35b6101aa6004803603602081101561019457600080fd5b81019080803590602001909291905050506107ab565b604051808473ffffffffffffffffffffffffffffffffffffffff1673ffffffffffffffffffffffffffffffffffffffff1681526020018373ffffffffffffffffffffffffffffffffffffffff1673ffffffffffffffffffffffffffffffffffffffff1681526020018273ffffffffffffffffffffffffffffffffffffffff1673ffffffffffffffffffffffffffffffffffffffff168152602001935050505060405180910390f35b61027e6004803603602081101561026857600080fd5b8101908080359060200190929190505050610871565b005b6102ac6004803603602081101561029657600080fd5b8101908080359060200190929190505050610920565b604051808515151515815260200184151515158152602001831515151581526020018215151515815260200194505050505060405180910390f35b610313600480360360208110156102fd57600080fd5b81019080803590602001909291905050506109d1565b604051808581526020018460ff1660ff1681526020018360ff1660ff16815260200182815260200194505050505060405180910390f35b610352610a68565b6040518082815260200191505060405180910390f35b610370610a6e565b60405180848152602001838152602001828152602001935050505060405180910390f35b61039c610a86565b604051808573ffffffffffffffffffffffffffffffffffffffff1673ffffffffffffffffffffffffffffffffffffffff1681526020018473ffffffffffffffffffffffffffffffffffffffff1673ffffffffffffffffffffffffffffffffffffffff1681526020018373ffffffffffffffffffffffffffffffffffffffff1673ffffffffffffffffffffffffffffffffffffffff1681526020018273ffffffffffffffffffffffffffffffffffffffff1673ffffffffffffffffffffffffffffffffffffffff16815260200194505050505060405180910390f35b61047f610b24565b604051808215151515815260200191505060405180910390f35b61051f600480360360a08110156104af57600080fd5b81019080803573ffffffffffffffffffffffffffffffffffffffff169060200190929190803573ffffffffffffffffffffffffffffffffffffffff16906020019092919080359060200190929190803560ff169060200190929190803560ff169060200190929190505050610b37565b6040518082815260200191505060405180910390f35b6105616004803603602081101561054b57600080fd5b8101908080359060200190929190505050611320565b604051808215151515815260200191505060405180910390f35b6105b36004803603604081101561059157600080fd5b81019080803590602001909291908035151590602001909291905050506113fd565b005b6105ed600480360360408110156105cb57600080fd5b81019080803590602001909291908035151590602001909291905050506114c2565b005b61061b6004803603602081101561060557600080fd5b81019080803590602001909291905050506115b6565b604051808215151515815260200191505060405180910390f35b61063d6116c2565b604051808215151515815260200191505060405180910390f35b6106836004803603602081101561066d57600080fd5b81019080803590602001909291905050506116d5565b604051808381526020018281526020019250505060405180910390f35b6106a861173a565b604051808681526020018581526020018481526020018381526020018281526020019550505050505060405180910390f35b6000806000806000600a600601600087815260200190815260200160002060000160049054906101000a900460ff16600a600601600088815260200190815260200160002060000160059054906101000a900460ff16600a600601600089815260200190815260200160002060000160069054906101000a900460ff16600a60060160008a815260200190815260200160002060000160079054906101000a900460ff16600a60060160008b8152602001908152602001600020600301549450945094509450945091939590929450565b6000806000600a600601600085815260200190815260200160002060070160009054906101000a900473ffffffffffffffffffffffffffffffffffffffff16600a600601600086815260200190815260200160002060080160009054906101000a900473ffffffffffffffffffffffffffffffffffffffff16600a600601600087815260200190815260200160002060090160009054906101000a900473ffffffffffffffffffffffffffffffffffffffff168292508191509250925092509193909250565b61089f600660010160009054906101000a900473ffffffffffffffffffffffffffffffffffffffff1661175e565b600a600601600082815260200190815260200160002073__propositionVotingLibrary______________633369581c90916040518263ffffffff1660e01b81526004018082815260200191505060006040518083038186803b15801561090557600080fd5b505af4158015610919573d6000803e3d6000fd5b5050505050565b600080600080600a600601600086815260200190815260200160002060000160009054906101000a900460ff16600a600601600087815260200190815260200160002060000160019054906101000a900460ff16600a600601600088815260200190815260200160002060000160029054906101000a900460ff16600a600601600089815260200190815260200160002060000160039054906101000a900460ff1693509350935093509193509193565b600080600080600a600601600086815260200190815260200160002060020154600a600601600087815260200190815260200160002060000160089054906101000a900460ff16600a600601600088815260200190815260200160002060000160099054906101000a900460ff16600a60060160008981526020019081526020016000206001015493509350935093509193509193565b60005481565b60028060000154908060010154908060020154905083565b60068060000160009054906101000a900473ffffffffffffffffffffffffffffffffffffffff16908060010160009054906101000a900473ffffffffffffffffffffffffffffffffffffffff16908060020160009054906101000a900473ffffffffffffffffffffffffffffffffffffffff16908060030160009054906101000a900473ffffffffffffffffffffffffffffffffffffffff16905084565b600560009054906101000a900460ff1681565b6000610b67600660000160009054906101000a900473ffffffffffffffffffffffffffffffffffffffff1661175e565b600073ffffffffffffffffffffffffffffffffffffffff168673ffffffffffffffffffffffffffffffffffffffff16148015610bcf5750600073ffffffffffffffffffffffffffffffffffffffff168573ffffffffffffffffffffffffffffffffffffffff16145b8015610bde57506000801b8414155b15610d9757600a73__propositionVotingLibrary______________63cd3393d09091600660030160009054906101000a900473ffffffffffffffffffffffffffffffffffffffff16898989898960008060008060066040518d63ffffffff1660e01b8152600401808d81526020018c73ffffffffffffffffffffffffffffffffffffffff1673ffffffffffffffffffffffffffffffffffffffff1681526020018b73ffffffffffffffffffffffffffffffffffffffff1673ffffffffffffffffffffffffffffffffffffffff1681526020018a73ffffffffffffffffffffffffffffffffffffffff1673ffffffffffffffffffffffffffffffffffffffff1681526020018981526020018860ff1660ff1681526020018760ff1660ff168152602001861515151581526020018515151515815260200184151515158152602001831515151581526020018281526020019c5050505050505050505050505060206040518083038186803b158015610d5557600080fd5b505af4158015610d69573d6000803e3d6000fd5b505050506040513d6020811015610d7f57600080fd5b81019080805190602001909291905050509050611317565b600073ffffffffffffffffffffffffffffffffffffffff168673ffffffffffffffffffffffffffffffffffffffff161461116757600073ffffffffffffffffffffffffffffffffffffffff168573ffffffffffffffffffffffffffffffffffffffff1614610fb357600a73__propositionVotingLibrary______________63cd3393d09091600660030160009054906101000a900473ffffffffffffffffffffffffffffffffffffffff16898989898960008060008060086040518d63ffffffff1660e01b8152600401808d81526020018c73ffffffffffffffffffffffffffffffffffffffff1673ffffffffffffffffffffffffffffffffffffffff1681526020018b73ffffffffffffffffffffffffffffffffffffffff1673ffffffffffffffffffffffffffffffffffffffff1681526020018a73ffffffffffffffffffffffffffffffffffffffff1673ffffffffffffffffffffffffffffffffffffffff1681526020018981526020018860ff1660ff1681526020018760ff1660ff168152602001861515151581526020018515151515815260200184151515158152602001831515151581526020018281526020019c5050505050505050505050505060206040518083038186803b158015610f7157600080fd5b505af4158015610f85573d6000803e3d6000fd5b505050506040513d6020811015610f9b57600080fd5b81019080805190602001909291905050509050611317565b600a73__propositionVotingLibrary______________63cd3393d09091600660030160009054906101000a900473ffffffffffffffffffffffffffffffffffffffff16898989898960008060008060066040518d63ffffffff1660e01b8152600401808d81526020018c73ffffffffffffffffffffffffffffffffffffffff1673ffffffffffffffffffffffffffffffffffffffff1681526020018b73ffffffffffffffffffffffffffffffffffffffff1673ffffffffffffffffffffffffffffffffffffffff1681526020018a73ffffffffffffffffffffffffffffffffffffffff1673ffffffffffffffffffffffffffffffffffffffff1681526020018981526020018860ff1660ff1681526020018760ff1660ff168152602001861515151581526020018515151515815260200184151515158152602001831515151581526020018281526020019c5050505050505050505050505060206040518083038186803b15801561112557600080fd5b505af4158015611139573d6000803e3d6000fd5b505050506040513d602081101561114f57600080fd5b81019080805190602001909291905050509050611317565b600a73__propositionVotingLibrary______________63cd3393d09091600660030160009054906101000a900473ffffffffffffffffffffffffffffffffffffffff16898989898960008060008060076040518d63ffffffff1660e01b8152600401808d81526020018c73ffffffffffffffffffffffffffffffffffffffff1673ffffffffffffffffffffffffffffffffffffffff1681526020018b73ffffffffffffffffffffffffffffffffffffffff1673ffffffffffffffffffffffffffffffffffffffff1681526020018a73ffffffffffffffffffffffffffffffffffffffff1673ffffffffffffffffffffffffffffffffffffffff1681526020018981526020018860ff1660ff1681526020018760ff1660ff168152602001861515151581526020018515151515815260200184151515158152602001831515151581526020018281526020019c5050505050505050505050505060206040518083038186803b1580156112d957600080fd5b505af41580156112ed573d6000803e3d6000fd5b505050506040513d602081101561130357600080fd5b810190808051906020019092919050505090505b95945050505050565b600073__propositionVotingLibrary______________63995e9228600a60050160003373ffffffffffffffffffffffffffffffffffffffff1673ffffffffffffffffffffffffffffffffffffffff16815260200190815260200160002054846040518363ffffffff1660e01b8152600401808381526020018281526020019250505060206040518083038186803b1580156113bb57600080fd5b505af41580156113cf573d6000803e3d6000fd5b505050506040513d60208110156113e557600080fd5b81019080805190602001909291905050509050919050565b61142b600660000160009054906101000a900473ffffffffffffffffffffffffffffffffffffffff1661175e565b600a73__propositionVotingLibrary______________6396233b5f9091600a6006016000868152602001908152602001600020846040518463ffffffff1660e01b81526004018084815260200183815260200182151515158152602001935050505060006040518083038186803b1580156114a657600080fd5b505af41580156114ba573d6000803e3d6000fd5b505050505050565b600a60020154600a6006016000848152602001908152602001600020600301540142101561151d57611518600660020160009054906101000a900473ffffffffffffffffffffffffffffffffffffffff1661175e565b611528565b8061152757600080fd5b5b600a600601600083815260200190815260200160002073__propositionVotingLibrary______________63d2e73b9d9091836040518363ffffffff1660e01b815260040180838152602001821515151581526020019250505060006040518083038186803b15801561159a57600080fd5b505af41580156115ae573d6000803e3d6000fd5b505050505050565b6000600a73__propositionVotingLibrary______________63aed723d59091600a6006016000868152602001908152602001600020600660000160009054906101000a900473ffffffffffffffffffffffffffffffffffffffff166040518463ffffffff1660e01b8152600401808481526020018381526020018273ffffffffffffffffffffffffffffffffffffffff1673ffffffffffffffffffffffffffffffffffffffff168152602001935050505060206040518083038186803b15801561168057600080fd5b505af4158015611694573d6000803e3d6000fd5b505050506040513d60208110156116aa57600080fd5b81019080805190602001909291905050509050919050565b600560019054906101000a900460ff1681565b60008042600a600601600085815260200190815260200160002060030154106116fd57600080fd5b600a600601600084815260200190815260200160002060040154600a60060160008581526020019081526020016000206005015491509150915091565b600a8060000154908060010154908060020154908060030154908060040154905085565b600081905060008173ffffffffffffffffffffffffffffffffffffffff16635549ea51336040518263ffffffff1660e01b8152600401808273ffffffffffffffffffffffffffffffffffffffff1673ffffffffffffffffffffffffffffffffffffffff16815260200191505060206040518083038186803b1580156117e257600080fd5b505afa1580156117f6573d6000803e3d6000fd5b505050506040513d602081101561180c57600080fd5b8101908080519060200190929190505050141561182857600080fd5b60009150505056fea265627a7a72315820efa124775eadf96d29104e2ade35a13182a47af27d301df436061e18282444b064736f6c634300050c0032",
  "source": "pragma solidity >=0.4.22 <0.6.0;\r\n\r\n// Standard contract for promulgation of a norm\r\n\r\nimport \"../standardProcedure.sol\";\r\nimport \"../Organ.sol\";\r\nimport \"../libraries/propositionVotingLibrary.sol\";\r\n\r\ncontract voteOnNormsProcedure is Procedure{\r\n    // 1: Cyclical many to one election (Presidential Election)\r\n    // 2: Cyclical many to many election (Moderators Election)\r\n    // 3: Simple norm nomination \r\n    // 4: Simple admins and master nomination\r\n    // 5: Vote on Norms \r\n    // 6: Vote on masters and admins \r\n    // 7: Cooptation\r\n\r\n    using procedureLibrary for procedureLibrary.fourRegisteredOrgans;\r\n    using propositionVotingLibrary for propositionVotingLibrary.Proposition;\r\n    using propositionVotingLibrary for propositionVotingLibrary.VotingProcessInfo;\r\n\r\n    // First stakeholder address is votersOrganContract\r\n    // Second stakeholder address is membersWithVetoOrganContract\r\n    // Third stakeholder address is finalPromulgatorsOrganContract\r\n    // Fourth stakeholder address is affectedOrganContract\r\n    procedureLibrary.fourRegisteredOrgans public linkedOrgans;\r\n    propositionVotingLibrary.VotingProcessInfo public votingProcedureInfo;\r\n\r\n    // ######################\r\n\r\n    constructor (address payable _affectedOrganContract, address payable _votersOrganContract, address payable _membersWithVetoOrganContract, address payable _finalPromulgatorsOrganContract, uint _quorumSize, uint _votingPeriodDuration, uint _promulgationPeriodDuration, uint _majoritySize, bytes32 _name) \r\n    public \r\n    {\r\n        procedureInfo.initProcedure(5, _name, 4);\r\n        linkedOrgans.initFourRegisteredOrgans(_votersOrganContract, _membersWithVetoOrganContract, _finalPromulgatorsOrganContract, _affectedOrganContract);\r\n        votingProcedureInfo.initElectionParameters(_quorumSize, _votingPeriodDuration, _promulgationPeriodDuration, _majoritySize);\r\n    }\r\n\r\n    /// Create a new ballot to choose one of `proposalNames`.\r\n    function createProposition(address payable _contractToAdd, address payable _contractToRemove, bytes32 _ipfsHash, uint8 _hash_function, uint8 _size) \r\n    public \r\n    returns (uint propositionNumber)\r\n    {\r\n        // Check the proposition creator is able to make a proposition\r\n        procedureLibrary.isAllowed(linkedOrgans.firstOrganAddress);\r\n        \r\n        // First, checking if we are trying to add a norm with no address\r\n        if(_contractToAdd == address(0) && _contractToRemove == address(0) && _ipfsHash != 0)\r\n        {\r\n            // Adding a new norm\r\n            return votingProcedureInfo.createPropositionLib(linkedOrgans.fourthOrganAddress, _contractToAdd, _contractToRemove, _ipfsHash, _hash_function, _size, false, false, false, false, 6);\r\n        }\r\n\r\n        //In order to remove/eplace a norm, the norm to be removed must be designated by its NUMBER, encoded in hex in the contractToRemove field.\r\n        else if(_contractToAdd != address(0))\r\n        {\r\n            if (_contractToRemove != address(0))\r\n            { \r\n                // Replacing a norm\r\n                return votingProcedureInfo.createPropositionLib(linkedOrgans.fourthOrganAddress, _contractToAdd, _contractToRemove, _ipfsHash, _hash_function, _size, false, false, false, false, 8);\r\n            }\r\n            else\r\n            {\r\n                // Adding a new norm\r\n                return votingProcedureInfo.createPropositionLib(linkedOrgans.fourthOrganAddress, _contractToAdd, _contractToRemove, _ipfsHash, _hash_function, _size, false, false, false, false, 6);\r\n            }\r\n        }\r\n        else \r\n        {\r\n            // Removing a norm\r\n            return votingProcedureInfo.createPropositionLib(linkedOrgans.fourthOrganAddress, _contractToAdd, _contractToRemove, _ipfsHash, _hash_function, _size, false, false, false, false, 7);\r\n        }        \r\n    }\r\n\r\n    /// Vote for a proposition\r\n    function vote(uint _propositionNumber, bool _acceptProposition) \r\n    public \r\n    {\r\n        // Check the voter is able to vote on a proposition\r\n        procedureLibrary.isAllowed(linkedOrgans.firstOrganAddress);\r\n        votingProcedureInfo.voteLib(votingProcedureInfo.propositions[_propositionNumber], _acceptProposition);\r\n    }\r\n\r\n        /// Vote for a candidate\r\n    function veto(uint _propositionNumber) \r\n    public \r\n    {\r\n        // Check the voter is able to veto the proposition\r\n        procedureLibrary.isAllowed(linkedOrgans.secondOrganAddress);\r\n        \r\n        votingProcedureInfo.propositions[_propositionNumber].vetoLib();\r\n    }\r\n\r\n    function endPropositionVote(uint _propositionNumber) \r\n    public \r\n    returns (bool hasBeenAccepted) \r\n    {\r\n        return votingProcedureInfo.endPropositionVoteLib(votingProcedureInfo.propositions[_propositionNumber], linkedOrgans.firstOrganAddress);\r\n    }\r\n\r\n    function promulgateProposition(uint _propositionNumber, bool _promulgate) \r\n    public\r\n    {\r\n        // If promulgation is happening before endOfVote + promulgationPeriodDuration, check caller is an official promulgator\r\n        if (now < votingProcedureInfo.propositions[_propositionNumber].votingPeriodEndDate + votingProcedureInfo.promulgationPeriodDuration)\r\n        {        \r\n            // Check the voter is able to promulgate the proposition\r\n            procedureLibrary.isAllowed(linkedOrgans.thirdOrganAddress);\r\n        }\r\n        else \r\n        { \r\n            // If Promulgator did not promulgate, the only option is validating\r\n            require(_promulgate);\r\n        }\r\n\r\n        votingProcedureInfo.propositions[_propositionNumber].promulgatePropositionLib(_promulgate);\r\n    }\r\n\r\n    function haveIVoted(uint _propositionNumber) \r\n    public \r\n    view \r\n    returns (bool IHaveVoted)\r\n    {\r\n        return propositionVotingLibrary.getBoolean(votingProcedureInfo.userParticipation[msg.sender], _propositionNumber);\r\n    }\r\n\r\n    function getPropositionDocumentation(uint _propositionNumber) \r\n    public\r\n    view\r\n    returns (bytes32 ipfsHash, uint8 hash_function, uint8 size, uint propositionType)\r\n    {\r\n        return (votingProcedureInfo.propositions[_propositionNumber].ipfsHash, votingProcedureInfo.propositions[_propositionNumber].hash_function, votingProcedureInfo.propositions[_propositionNumber].size, votingProcedureInfo.propositions[_propositionNumber].propositionType);\r\n    }\r\n\r\n    function getPropositionStatus(uint _propositionNumber) \r\n    public\r\n    view\r\n    returns ( bool wasVetoed, bool wasCounted, bool wasAccepted, bool wasEnded, uint votingPeriodEndDate)\r\n    {\r\n        return (votingProcedureInfo.propositions[_propositionNumber].wasVetoed, votingProcedureInfo.propositions[_propositionNumber].wasCounted, votingProcedureInfo.propositions[_propositionNumber].wasAccepted, votingProcedureInfo.propositions[_propositionNumber].wasEnded, votingProcedureInfo.propositions[_propositionNumber].votingPeriodEndDate);\r\n    }\r\n\r\n    function getPropositionStatistics(uint _propositionNumber) \r\n    public\r\n    view\r\n    returns (uint voteFor, uint totalVoteCount)\r\n    {\r\n        require(votingProcedureInfo.propositions[_propositionNumber].votingPeriodEndDate < now);\r\n        return (votingProcedureInfo.propositions[_propositionNumber].voteFor, votingProcedureInfo.propositions[_propositionNumber].totalVoteCount);\r\n    }\r\n\r\n    function getPropositionAddresses(uint _propositionNumber) \r\n    public\r\n    view\r\n    returns (address targetOrgan, address contractToAdd, address contractToRemove)\r\n    {\r\n        return (votingProcedureInfo.propositions[_propositionNumber].targetOrgan, votingProcedureInfo.propositions[_propositionNumber].contractToAdd, votingProcedureInfo.propositions[_propositionNumber].contractToRemove);\r\n    }\r\n\r\n    function getPropositionPermissions(uint _propositionNumber) \r\n    public\r\n    view\r\n    returns (bool canAdd, bool canDelete, bool canSpend, bool canDeposit)\r\n    {\r\n        return (votingProcedureInfo.propositions[_propositionNumber].canAdd, votingProcedureInfo.propositions[_propositionNumber].canDelete, votingProcedureInfo.propositions[_propositionNumber].canSpend, votingProcedureInfo.propositions[_propositionNumber].canDeposit);\r\n    }\r\n}\r\n\r\n\r\n\r\n",
  "sourcePath": "C:/Users/Ewan Debove/Documents/A5/Blockchain Programming/TD7/contracts/utils/Kelsen/solidity/contracts/procedures/voteOnNormsProcedure.sol",
  "compiler": {
    "name": "solc",
    "version": "0.5.12+commit.7709ece9.Emscripten.clang"
  },
  "schemaVersion": "3.0.19",
  "updatedAt": "2019-12-04T10:02:32.815Z",
  "devdoc": {
    "methods": {}
  },
  "userdoc": {
    "methods": {
      "createProposition(address,address,bytes32,uint8,uint8)": {
        "notice": "Create a new ballot to choose one of `proposalNames`."
      },
      "veto(uint256)": {
        "notice": "Vote for a candidate"
      },
      "vote(uint256,bool)": {
        "notice": "Vote for a proposition"
      }
    }
  }
}